:020000040000FA
:1000000080430020BD1500003D410000A9150000FF
:10001000A9150000A9150000A915000000000000A6
:100020000000000000000000000000009916000021
:10003000A915000000000000A9150000A915000086
:10004000D1170000D1170000D1170000D117000010
:10005000D1170000D1170000D1170000D117000000
:10006000D1170000D1170000D1170000D1170000F0
:10007000D1170000D1170000D1170000D1170000E0
:10008000D1170000D1170000D1170000D1170000D0
:10009000D1170000D1170000D1170000D1170000C0
:1000A000D1170000D1170000D1170000D1170000B0
:1000B000D1170000D1170000D1170000D1170000A0
:1000C000D1170000D1170000D1170000D117000090
:1000D000D1170000D1170000D1170000D117000080
:1000E000D1170000D1170000D1170000D117000070
:1000F000D1170000D1170000D1170000D117000060
:1001000053B94AB9002908BF00281CBF4FF0FF317E
:100110004FF0FF3000F00CB8ADF1080C6DE904CEE3
:1001200000F008F8DDF804E0DDE9022304B07047D0
:10013000704700BF2DE9F04786468C460846089E6A
:10014000154674461946002B40F0C2808542B2FA2B
:1001500082F245D94AB1C2F1200300FA02FC2EFA1C
:1001600003F3954043EA0C0C94404FEA154EA8B2B5
:10017000BCFBFEF8230C0EFB18CC08FB00F943EA8D
:100180000C43994528D9EB1808F1FF3704D299455B
:1001900002D9A8F102072B44A3EB0903A4B2B3FBD5
:1001A000FEFC0EFB1C330CFB00F044EA0344A042AF
:1001B00014D92C190CF1FF3304D2A04202D9ACF1AE
:1001C00002032C44241A43EA07401EB1D440002302
:1001D00034607360BDE8F0874746DDE76346F1E7CA
:1001E00092BB431B01214FEA154EAFB2B3FBFEFC9D
:1001F000200C0EFB1C330CFB07F840EA0343984528
:1002000062D9EB180CF1FF3004D2984502D9ACF159
:1002100002002B44A3EB0803A4B2B3FBFEFC0EFBCD
:100220001C330CFB07F744EA0344A7424ED92C19B0
:100230000CF1FF3304D2A74202D9ACF102032C44E3
:10024000E41B43EA0040C0E7C2F1200320FA03F1B7
:10025000954090402EFA03F303434FEA154EAFB298
:10026000B1FBFEFC0EFB1C10190C0CFB07F841EA5D
:100270000041884504FA02F422D969180CF1FF30D4
:1002800004D2884502D9ACF102002944A1EB08014F
:100290009BB2B1FBFEFC0EFB1C110CFB07F743EA03
:1002A00001439F420ED9EB180CF1FF3104D29F425B
:1002B00002D9ACF102012B44DB1B41EA004192E779
:1002C0006046E3E76146F7E76046A3E76346B7E7C2
:1002D000834206D916B9002108467BE7C6E900E04B
:1002E000F9E7B3FA83F78FB9834201D3724508D88F
:1002F000BEEB020460EB030301209C461EB9002103
:1003000068E73846FAE7C6E9004CF8E7C7F1200C81
:10031000BB4022FA0CF41C432EFA0CF120FA0CF329
:10032000B84001434FEA14490EFA07F5B3FBF9F858
:100330001FFA84FE09FB18300B0C08FB0EFA43EA87
:1003400000439A4502FA07F240D9E31808F1FF305A
:1003500004D29A4502D9A8F102002344A3EB0A0370
:1003600089B2B3FBF9F809FB183308FB0EFE41EA2A
:1003700003418E452CD9611808F1FF3304D28E4514
:1003800002D9A8F10203214443EA0040A0FB0298ED
:10039000A1EB0E014145CE46434602D306D14D4561
:1003A00004D2B9EB020E68EB04030138002EA6D08C
:1003B000B5EB0E0261EB030101FA0CFC22FA07F324
:1003C0004CEA0303F940C6E9003198E74046C5E727
:1003D0004346D9E71FB51F4B1F4AC3F80026C3F891
:1003E0000426C3F80826C3F80C26C3F81026C3F861
:1003F0001426C3F81826C3F81C2603F051FB01A8E5
:1004000000F0ECFB154B1B68834200D0FEE7694609
:100410009DF80800124C03F020FB009A039B134444
:10042000019A12891344236000F052FC00F026FC6C
:1004300001F0EEF823681B6883F30888002383F338
:100440001488BFF36F8FBFF36F8F23685B68984783
:10045000FEE700BF000001403546526E4005002017
:100460003C05002021B1012906D06FF0150070472E
:10047000044B53F830007047024B03EBC00358683D
:10048000704700BF884700002DE9F04F9B46DBB066
:10049000834B679F1E680290DDE9658915460C460F
:1004A00000F0B6FB7F4B0122C3F800253AA802F00A
:1004B00013FAB8F1000F07D0B9F1000F04DD4A4676
:1004C00041463AA803F06DFD23896289D4F80CA057
:1004D00013449A444FF00008C24561D80DA93AA8C8
:1004E00002F06CFA6F4B0022C3F80025C3F8002518
:1004F00027B120220DA9384603F062FE00230093A5
:100500002A464FF6FF73214607A803F0CAFA0746AA
:10051000002856D102980C9C294603F09DFBA0426E
:100520004FD3DFF88CB1DFF87CA14FF0FF340DF131
:10053000160305AA06A907A803F001FB002840DB63
:1005400040F0A780069907A803F045FB50B9BDF815
:100550001600554A4FF6FF7132F8023B8B4230D0FD
:100560009842F9D1BDF81690B9F1100F33D0B9F116
:10057000220F71D0B9F1010FD9D1BDF81430202B61
:100580001FD806993AAA284603F044FD0446C0B98C
:100590009DF814300293202B34D94FF0FF34C6E776
:1005A000649BAAEB0809994528BF99464B465A46D1
:1005B0004146284603F02EFD30B13A4B0022C3F8E5
:1005C0000025374B1E6866E04A4659463AA803F0B4
:1005D000E8FCC84480E7BDF81470202FF1D10699DB
:1005E0003B463AAA284603F015FD0028E9D13A46D1
:1005F0003AA90DA803F029FBDBF800308342E0D1D3
:10060000012794E7294ADFF8AC8013680393039B22
:100610009C42C2DA00F0FCFACAF800951DA802F06C
:100620005BF9D8F8042058F8081B12681DA803F0DD
:10063000B8FC15A91DA802F0C1F90022CAF80025CE
:10064000CAF80025029A3AA915A803F0A9FD0028C6
:100650003FF46DAF0134DAE7631C3FF468AF134B2E
:100660001B68A34299DDBDF81430802BA9D80699E8
:100670003AAA284603F0CEFC0028A2D1E4B2BDF885
:10068000143000943AAA20210DA800F015F806466F
:1006900083E7002F95D030465BB0BDE8F08F00BFF8
:1006A000C404002000A00250484A00009047000007
:1006B00040050020944700002DE9F04796B016460B
:1006C0001D469DF87820374BDFF8E88053F832104C
:1006D000019103EBC20307465B68D8F800901868E5
:1006E00002AA0144302301A803F0E9FB002851D1FC
:1006F000DDE901431C4403AA06AB214601A803F02F
:1007000006FC002846D1049A072A43D126490598B9
:1007100003F046FD00283DD1079A082A3AD1234923
:10072000089803F03DFDA8BB02AA214601A803F0EA
:10073000DAFB78BBDDE901A30AEB0302944229D17D
:10074000412B27D13544302303AA294602A802961B
:1007500003F0B5FBE0B9DDE9023213449D4217D343
:100760002A4602A906A803F044FA88B92A4602A933
:100770000EA803F03EFA58B99AF80030042B07D1BE
:10078000202306AA0AF10101384600F059FA28B1DF
:10079000D8F80090484616B0BDE8F087044BD3F86F
:1007A0000090F7E7944700007F4A0000764A000077
:1007B00040050020C40400202DE9F3471E4683684D
:1007C000994205460C46174644D25B1A934241D3E0
:1007D0008EB36A4603F049F900283DDB013FDDF89E
:1007E00000803C441E4FDFF87C906A462146284634
:1007F00003F03BF900282FDBDDE900A42846224660
:10080000514603F031FC002826DBC7F80096C7F8F4
:100810000496C7F80896C7F80C96C7F81096C7F85C
:100820001496C7F81896C7F81C9676B1D04513D21F
:100830000AF1FF34D9E7511E21446A4603F015F945
:10084000002809DBDDF80080CCE75444444503D898
:100850000134CAE74FF0FF3002B0BDE8F08700BFB7
:10086000000001403546526EF0B52C2505FB010510
:1008700085B02F6A044638460E4603F011FC6B1E05
:10088000EA1C13F8011F814205D19342F9D11C4B98
:10089000186805B0F0BD2C237343E218D2F810C0DD
:1008A0001CF0100FF3D117490868E158164B994214
:1008B0001AD1D16813895B1816D25289D21813D273
:1008C000BB689A4210D240F60C631CEA03030BD1BA
:1008D000CDE9023301934FF4807300933A460B4BFA
:1008E00029462046FFF7D0FD094B1B688342D0D034
:1008F000002ECCD00121384603F045FAC7E700BFEF
:10090000C0040020C40400203DB8F3962412002047
:10091000400500202DE9F84FDFF878B01B4C1C4D46
:10092000884691469A4600260B9B9E4201D30020A2
:100930000FE00B9B174A9F1BB7F5806F28BF4FF442
:1009400080673B4606EB0A01404603F063FB10B1AB
:100950000120BDE8F88F0A993B465A46711848466F
:1009600003F06DFB0028F3D1C4F800563E44C4F8F0
:100970000456C4F80856C4F80C56C4F81056C4F807
:100980001456C4F81856C4F81C56CDE700000140B0
:100990003546526E440500202DE9F04F8B4B4362E3
:1009A0000E4603F58063002189B0044603650846BE
:1009B000FFF758FD04F12001C0B200F04FFC20BB4E
:1009C0000121FFF74FFD04F14C01C0B200F046FCDD
:1009D000D8B9204603F096F9C0B90021204603F0AB
:1009E0007CF9054668B9204603F0D2F948B104A85D
:1009F00003F0A9F903F0B0F90146D0B9204603F09D
:100A00006CF9012384F8583005E0FEE70123984291
:100A100084F85830E1D194F858308DF81730042B11
:100A20002FD8012B2FD800F08F80FF2384F8583067
:100A30008AE09DF81770012F17D1284601F094F92C
:100A4000831E022B05460DD839462046FFF70CFFC2
:100A50005F4B1B68984205D05E4B1D68A84214BFCF
:100A60000525012584F85850D5E701212046FFF7D8
:100A7000FBFE574B1B6898420CBF9DF817300523AF
:100A8000C0E7052BCFE7002503AA012120460395E7
:100A900003F0E5F8D4F82080E76CD4F828A0A94644
:100AA000CA4513D0636A03EBC9032946D3F804B0DF
:100AB000404600235A46FFF77FFE039B5D449D425C
:100AC00047D3E56DB3FBF5F305FB0355E06D03F08C
:100AD000BEF8A26A636A013AD3F800E003EBC203EE
:100AE000002259680A4490429C46A3F10803F8D8B2
:100AF000DCF800000023A0EB0E014046FFF75CFE8F
:100B0000002301950093424639462046FFF702FF35
:100B1000D0B9404601F0B2F80546A8B9226D0346A7
:100B200001465268384603F024F9D4E91423013B06
:100B3000116852F8330002EBC30C411ADCF80420B0
:100B40002B46384603F015F994F85830FF2B03D1A3
:100B5000FEE709F10109A3E70021012B1E4D0391D6
:100B600014D0204603F0B9F880B12D68102200217E
:100B70000DEB020003F02FFBE06C03F04AFA206A51
:100B800003F047FA284609B0BDE8F08F002120465F
:100B9000FFF76AFE0E4F3B688342E6D12A689A420D
:100BA000E3D00C4A12689A42DFD0039B01330393CF
:100BB000039B012B00D0FEE7206A02F054FF307146
:100BC000236A5B6834603D68B360CFE74409002066
:100BD00040050020C0040020C404002038B5064DA4
:100BE000044660220021284603F0F5FA21462846F3
:100BF000FFF7D2FE38BD00BF441100200A4619B1EC
:100C0000024B00211B681847704700BFC804002032
:100C100070B5094D2B780BB1002070BD074C012633
:100C2000C4F8006501F0FAFE18B92E70C4F800058A
:100C3000F2E74FF0FF30F0E72413002000A002504D
:100C40002DE9F041DFF83080ACB01F4606460C4677
:100C50001546FFF7DDFF0123C8F800352A46334665
:100C60000097214603A803F062FC0023C8F8003572
:100C70002CB0BDE8F08100BF00A00250BFF36F8F21
:100C800072B6124B4FF0FF32C3F88020C3F88420B5
:100C9000C3F88820C3F88C20C3F89020C3F89420B0
:100CA000C3F89820C3F89C20C3F88021C3F884219E
:100CB000C3F88821C3F88C21C3F89021C3F894218C
:100CC000C3F89821C3F89C21704700BF00E100E001
:100CD0003C4A2DE9F0434FF0FF3301215160C2F847
:100CE0004833C2F8083302F5C042374E5160C2F8AB
:100CF0004833C2F8083302F59832344FDFF8D48015
:100D0000516085B0C2F848330025C2F8083356F860
:100D1000044B4FF0FF3944F30730C4F8089300F058
:100D2000CDFC012363600023C4F84C31D4F84C217E
:100D3000C4F81031D4F81021C4F84431D4F8442157
:100D4000C4F80035D4F80C250092D4F8142501928B
:100D5000D4F808250292D4F810250392C4F80C9513
:100D60006846C4F81495C4F80895C4F8109550F86E
:100D7000042B511C0FD002F01F01520919D0012A77
:100D80001AD1424602EB8102D2F80017394041F0F5
:100D90000201C2F800170133042BE8D13DB10C4B1E
:100DA0004FF0FF32C3F8082505B0BDE8F0830125F8
:100DB000ADE74FF0A042E5E701F5E071002353F8FD
:100DC0002130FFDE00B00040A0470000F0F8FCFF3B
:100DD00000F0014000030050014B1B68184700BFA2
:100DE000CC040020014B1860704700BFCC040020E9
:100DF00007B50B46002102460091034800F006F8B3
:100E000003B05DF804FB00BFD90D00002DE9F04FE1
:100E10008DB01D46531E8246019103934FF0000989
:100E2000039B5878252803F1010419D11E460020A0
:100E30004FF0FF380236034602904446317803965D
:100E4000392954D81F2914D8002900F0EE810199BE
:100E50002520D04701993078D04709F10209DFE712
:100E6000002800F0E2810199D04709F101090394BB
:100E7000D6E7A1F12002192AE9D801A757F822F0F4
:100E8000E90E00004F0E00004F0E0000E90E0000BA
:100E90004F0E0000690F00004F0E00004F0E0000C3
:100EA0004F0E00004F0E0000B50F0000E90E0000CD
:100EB0004F0E0000C90F0000750F00004F0E00001C
:100EC000830F0000A30F0000A30F0000A30F00007A
:100ED000A30F0000A30F0000A30F0000A30F00004A
:100EE000A30F0000A30F000008460136A6E758290B
:100EF00000F0EB80A1F16302D7B2172FA7D8172A11
:100F0000A5D801A757F822F071110000EF0F0000DB
:100F10004F0E00004F0E00004F0E0000CF0F0000DC
:100F2000EF0F00004F0E00004F0E0000CF0F00002B
:100F30004F0E00004F0E00004F0E0000A5100000E5
:100F40004F0E00004F0E0000451100004F0E000034
:100F5000EF0F00004F0E00004F0E0000A510000024
:100F60004F0E0000CF0F000001992520D04709F156
:100F7000010955E7029A02F0FE0202924FF00008C2
:100F8000B3E7002C0DDAB8F1000F0DDA029A002A4F
:100F900000F0438124EAE4740A2202FB0414303C8A
:100FA000A3E7B8F1000FF5DB0A2202FB0812A2F159
:100FB00030089AE7B8F1000F55F8042B80F22F8122
:100FC000002A80F22E815442022202928DE7682983
:100FD00003D1682B06D1482387E76C2902D16C2BFB
:100FE00000F02181002B7FF432AF0B467DE77A2B96
:100FF00006D1752955F8046B14D14FF0000B0CE0A5
:101000006C2BF6D04C2BF4D1073525F0070375294E
:10101000D3E9006B03F1080506D120283BD1854FA9
:10102000013C09E04FEAE67BBBF1000FF5DA7642BE
:10103000814F6BEB4B0B013C0DF12D03059300230E
:101040000493304659460A220023FFF759F8059BBE
:10105000303203F8012DB4460593049B5A46BCF187
:101060000A0F8B4672F1000203F1FF31064604912C
:10107000E7D2C3F1010B30330DEB0306B8F1000FDB
:10108000A6F104066DDA029BD9077DD4A8EB0B0309
:10109000A4EB0B0413E02B280ABF684F684F04F140
:1010A000FF34C9E770290FD155F8042B0023FAB992
:1010B000634F644E053C6FF004034FF0050B029A3A
:1010C000920770D4A04666E078216C2B03D155F8C6
:1010D000042B002308E04C2BF9D1073525F007033A
:1010E0001D465B6855F8082B232825D1880621D595
:1010F000554F023C01F06001A1F1390B0DF12D0EAD
:10110000002602F00F01092988BF594430310EF83A
:10111000011D102A4FEA121141EA03714FEA131C14
:1011200073F1000306F1FF3008D2C6F1010B06F19E
:101130003003A1E7454FDCE7414FDBE706460A46AF
:101140006346DEE755F8046B304603F022F8B8F149
:10115000000F834602DB4045A8BFC346384F4FF01F
:101160000008A8EB0B03002B92DDA4EB0804A6E714
:1011700055F8043B8DF81830314F013C4FF0FF33E8
:101180004FF0010B06AE9AE7A046EAE702930199F9
:101190002020D047029BB8F10108F7D524EAE47279
:1011A000013C9144A41AB84606E0049302920199C6
:1011B000D047029A049B9046424612F8010B002841
:1011C000F3D11A46013A15D5002BACBFC7EB030784
:1011D0007F425B46013B15D5BBF1000FA8BF5F44C2
:1011E0004F442646013E14D5002CA8BF3F1907EBFB
:1011F000080915E60493029201993020D047049B18
:10120000029ADFE70293019916F8010BD047029B7F
:10121000E0E701992020D047E4E70122D5E6904697
:1012200063E6144661E64C235FE648460DB0BDE830
:10123000F08F00BFE44A0000E24A0000E64A0000E6
:101240008C4B0000EE4A0000E84A0000EB4A000028
:10125000014B036000207047A847000070B5104B99
:101260001C680D46B4B10F4B196800238B4202DB9A
:101270006FF0010070BD224612F8106B864202D05A
:1012800001331446F2E7E06803F011F928B12C604D
:101290000020EFE76FF00C00ECE76FF01200E9E7D9
:1012A000D0040020A847000010B588B0436802931E
:1012B0008368C068CDE903320A680023CDE90623BC
:1012C0000C4601AA0449059302F0C8FF079808B923
:1012D000059B236008B010BDAF40000008B505486D
:1012E00002F07CFE044802F079FEBDE808400348A5
:1012F00002F074BEF44A00002C4B00005F4B00006B
:10130000014801F03BB800BF6C48000030BFFFF758
:10131000FDBF00BF70B5264B15469A6A12F0100F3C
:101320009A6A14BF1124102412F0080F9A6A18BF89
:101330001224920706460AD5586B9A6A140634D5C9
:1013400019B19A6A22F080029A62132401E06FF0C8
:101350001500174B9A6A12F0010F9A6A18BF1424ED
:1013600012F0200F9A6A18BF1524D20602D49B6A85
:101370009B070AD50E4B5B68190506D5314600F070
:10138000E5F910B180F309880224094B9A6A9206A4
:1013900042BF5A6A22F400525A629A6A42F0FF022D
:1013A0009A6200232B70204670BD6FF01500CCE7C9
:1013B00000ED00E0134B9A6A12F0007F9A6A14BFA6
:1013C0001E201D2012F0807F9A6A18BF1F2012F481
:1013D000002F9A6A18BF212012F4802F9A6A18BF32
:1013E000222012F4003F9A6A18BF232012F4803F93
:1013F0009A6A6FEA02426FEA12429A6218BF242088
:10140000704700BF00ED00E010B5194B0246986A26
:101410009C6A10F4805F14BF1720162014F4006F2C
:101420009C6A18BF1820A40509D5986B986A000417
:1014300004D51AB19A6A22F400429A6219200C4B20
:101440009A6A12F4806F9A6A18BF1A20D2050CD4D7
:101450009B6A13F4005F18BF1C20054A936A43F48B
:101460007F43936200230B7010BD1B20F5E700BF84
:1014700000ED00E070B5454B5B688AB00546C3F3EC
:101480000803002686F31188BFF36F8F02F07F40B8
:10149000B0F17F4F11D102F00C0008280DD01007D9
:1014A0004CBF0D4601260022033B8DF80720032B7D
:1014B00005D8DFE803F01E5D615A3546F3E70024E6
:1014C0009DF807309BB92022294602A802F078FE39
:1014D000099B002E54D0C3F3080222B96FEA5323AC
:1014E0006FEA4323099302A9204602F01DFE0AB0C9
:1014F00070BD264BDA6A9107E1D4DA6A002ADEDB96
:10150000DA6A5200DBD55A69A96942F480725A61DD
:10151000BFF34F8FBFF36F8F5A6931F8021C22F46B
:1015200080725A61BFF34F8FBFF36F8F4DF6027217
:1015300091420AD09A6AD2B24AB10DF10702012152
:101540002846FFF7E7FE0446BAE72C68B8E79A6A30
:1015500012F47F4F05D00DF107010120FFF754FF72
:10156000F1E79B6AB3F5803FA9D3FFF723FFEAE7D2
:101570000DF107020021E3E70DF107010020EDE77F
:1015800023F4FF7323F00103ACE700BF00ED00E09C
:10159000044B5A6942F010025A615A6922F008025B
:1015A0005A61704700ED00E0EFF30880EFF3098126
:1015B00001B57246FFF75EFF01BD00BF002080F35A
:1015C0001488BFF36F8F0F4880F3088800F038FC51
:1015D00000200D490860BFF34F8F00F02BF820204A
:1015E00080F3118809484FF40461401880F309889A
:1015F000EFF314800221084380F31488BFF36F8F48
:1016000000F07EF88043002094ED00E040130020BD
:101610000749D1F890200023C2F3072218469342CD
:1016200000DB7047C1F89830C1F8A0000133F6E73D
:1016300000ED00E008B572B6002383F31388FFF7CE
:10164000E7FF144B4FF0FF32C3F88020C3F884202B
:10165000C3F88820C3F88C20C3F89020C3F89420E6
:10166000C3F89820C3F89C20C3F88021C3F88421D4
:10167000C3F88821C3F88C21C3F89021C3F89421C2
:10168000C3F89821C3F89C2162B6BFF34F8FBFF314
:101690006F8F08BD00E100E01EF0040F0CBFEFF3F8
:1016A0000880EFF30980816911F8021C0229FFD03C
:1016B00001B5724602F03EFD01BD00BF40B20028F8
:1016C0000CDB4309064900F01F0020330122824051
:1016D00041F82320BFF34F8FBFF36F8F704700BFD8
:1016E00000E100E0044B054A23F07F039360BFF361
:1016F0004F8FBFF36F8F70470000000000ED00E0D8
:1017000008B5FFF7EFFF104BD3F8882022F47002E2
:10171000C3F88820D3F8882042F4A002C3F88820B8
:101720004FF04042C3F83422BFF34F8FBFF36F8FA7
:101730000023E1EE103A00F073FD00F0B9FD00F077
:101740003BF800F079FD00BF00ED00E010F1160F4E
:10175000074B08D0984208D34033834205D98B42C7
:1017600003D9044870474033F9E70020704700BFB1
:10177000801B0020C01B002080B5154606460C4685
:101780000022E1EE102A064F87F309880020054960
:101790008847204629461A46B04703488047FEE757
:1017A000C04300205541000063410000014B10225E
:1017B0001A61704700ED00E0044800232021C218A0
:1017C0000133302B82F80013F9D1704700E100E0BB
:1017D00008B5EFF30583064A103B02EBC30152F84C
:1017E000330049688847BDE8084002F0AEBC00BF3E
:1017F000E0450000024B034A0348022100F066B8AE
:10180000000004200000002074480000084AC2F8CC
:1018100098000B6823F01F03034343F01003C2F842
:101820009C308B6843F00103C2F8A030704700BFC2
:1018300000ED00E02DE9F043DFF8608085B00E4652
:101840001F4604464FF00009B14523DA6068D8B15D
:101850003FB1411E08421BD11F2819D923681942E4
:1018600016D12368019302F084FCA3680343039319
:10187000D8F89050C5F30725D0B2013DA84207D84B
:1018800001A9FFF7C3FF421C09F101090C34DBE792
:101890006FF01502104605B0BDE8F08300ED00E0E2
:1018A000044B0522C3F89420BFF34F8FBFF36F8F13
:1018B000704700BF00ED00E0BFF35F8F024B0022D6
:1018C000C3F89420704700BF00ED00E010B5034C52
:1018D00001232278FFF7AEFF207010BD25130020F2
:1018E0002DE9F043534B544CD3F890302568C3F3A3
:1018F00007239D4285B000F29A80FFF7DDFF0020AC
:101900000C2685421AD14D4C4D4F25706846FFF785
:101910009FFCDFF82081DFF82C9106460025AE42BF
:1019200013D1237843490020D1F89020C2F3072235
:10193000934276DBFFF7B4FF002042E0616806FBCC
:101940000011FFF763FF0130DBE7009800EB0511A2
:101950004FEA051CCB683B40B3F5000F48D00AD8CE
:10196000B3F5001F30D0B3F5800F36D0B3F5801F2C
:1019700010D00135D3E7B3F1807F42D0B3F1007FBF
:10198000F7D150F80C3088684A6802F0F2FB40F456
:10199000802009E050F80C3088684A6802F0E9FBC2
:1019A00040F0885040F43020CDE901230390D8F86E
:1019B00090302078C3F30723013B98422AD96FF077
:1019C000150005B0BDE8F08350F80C3088684A680F
:1019D00002F0CFFB40EA0900E6E750F80C308868D7
:1019E0004A6802F0C6FB40F0007040F40030DBE7CC
:1019F00050F80C3088684A6802F0BBFB40F08270F7
:101A0000D2E750F80C3088684A6802F0B2FB40F028
:101A10008870C9E701A9FFF7F9FE23780133237025
:101A2000A7E7C1F89830C1F8A00001337CE74FF078
:101A3000FF30C6E700ED00E08C48000025130020D1
:101A40000000F0FF00000811014B1860704700BF54
:101A5000D40400200D4A0123C2F840354FF08052D3
:101A6000D2F8301108290AD1D2F83421052A06D833
:101A700007498A5C1AB14FF08042C2F838364FF0FD
:101A800080430122C3F880250020704700E0014018
:101A90009C4B000010B5044C2046FFF7A3F92046EC
:101AA000FFF7D2FF002010BDAD1A000073B50C4E39
:101AB0008DF807000446032501220DF107010020DF
:101AC00000F044FB20B101233370204602B070BD0A
:101AD0003378002BF9D0013DEED13570F5E700BF2A
:101AE00026130020024B0B6001231360704700BFD8
:101AF000A411002000487047AC48000010B502F067
:101B000079FC034C206002F071FC6060002010BD85
:101B1000A41100204FF08042D2F81015D2F81035F1
:101B200001F01E0123F01F030B4343F00103C2F831
:101B30001035024B00221A70704700BF2713002097
:101B40004FF08053D3F83031082B20D14FF0804232
:101B5000D2F81015CB071AD5D2F8103501F01E01B6
:101B600023F01F030B43C2F81035D2F808315BB1E4
:101B7000D2F8103523F01F030B4343F00103C2F8E2
:101B800010356FF08B007047024B01221A70002055
:101B9000704700BF271300202DE9F0410D4616467F
:101BA00002F024FC31460746284602F08CFB28B39D
:101BB000B5FBF7F307FB135303BBB6FBF7F407FBC7
:101BC0001464DCB9B74213D802F010FCDFF834809B
:101BD0000746FFF7B5FF044668B9284600F028FA23
:101BE00098F800300BB1FFF795FFF61B3D44F0D19C
:101BF0002046BDE8F0816FF08B04F9E76FF0150423
:101C0000F6E700BF271300202DE9F8430E463046C3
:101C1000194617461C4602F056FB30B344EA060547
:101C200015F0030521D11CB3DFF84C906319032B89
:101C3000A6EB050807D80F4AD2F80034DB07FBD51E
:101C40000020BDE8F883FFF77BFF58B97B1B4046B7
:101C5000196800F00DFA99F800300BB1FFF75AFF40
:101C6000043DE3E76FF08B00EBE76FF01500E8E76A
:101C70002046E6E700E001402713002030B58168E8
:101C800085B0103921F00704054602F009FA102248
:101C90000146684602F09FFA07491022684602F0A2
:101CA0008FFA10236A462146284602F0C8F9003808
:101CB00018BF012005B030BD664A000030B50D46A2
:101CC000816887B0102302AA1039044602F0A2F9F5
:101CD000002802DA012007B030BD102202A92046F8
:101CE00002F035FB00283AD11E49102202A802F06A
:101CF00057FA00280CBF012302232B70204602F064
:101D000012FB012301460DF10702204602F082F981
:101D10000028DFDB9DF8073003F00F021B096A7013
:101D20002B7101220DF10701204602F010FB10B9C2
:101D30006B78042B03D901236B7000232B71A268ED
:101D4000183A22F00702083AA91C204602F012FBBA
:101D50000028BFD1E91C204602F028FBBBE7032383
:101D6000CBE700BF664A00007FB5264D44006946B8
:101D700055F8240002F020FB002835D1013402A9D7
:101D800055F8240002F018FB01282BD103238DF80D
:101D900008308DF80B309DF800509DF808601A4A05
:101DA00000241078294602F0C4FA18B3507831465E
:101DB00002F0BFFAF0B19378042B03D09DF8031022
:101DC000994217D1D378042B03D09DF80B10994278
:101DD00010D11379042B09D15079831E022B03D81B
:101DE00004B070BD0028D6D0FF20F9E79DF802109E
:101DF0009942F1D00134032C02F10602D1D1012025
:101E0000EEE700BFB4480000BC4B00004FF0805329
:101E1000D3F83021082A06D1D3F83431052B02D863
:101E2000024AD05C70470020704700BFD44B0000CE
:101E3000024AD2F80034002BFBD0704700E001408A
:101E400010B54FF08053D3F83021082A4ED14FF00F
:101E500080420021C2F80C11C2F81011C2F83815E6
:101E600002F54042D3F80414C2F82015D3F8081440
:101E7000C2F82415D3F80C14C2F82815D3F810149E
:101E8000C2F82C15D3F81414C2F83015D3F818146E
:101E9000C2F83415D3F81C14C2F84015D3F8201436
:101EA000C2F84415D3F82414C2F84815D3F82814FE
:101EB000C2F84C15D3F82C14C2F85015D3F83014CE
:101EC000C2F85415D3F83414C2F86015D3F8381496
:101ED000C2F86415D3F83C14C2F86815D3F840145E
:101EE000C2F86C15D3F84434C2F87035FFF78EFF92
:101EF00018B1414B414AC3F88C26FFF787FF18B150
:101F00003F4BFB22C3F81825FFF780FF70B14FF05D
:101F100080414FF08053D1F8E42ED3F8583222F0AC
:101F20000F0203F00F031343C1F8E43EFFF76EFF07
:101F300020B1344B4FF40072C3F840264FF0805369
:101F4000D3F83031082B09D14FF08043D3F8002467
:101F5000D20744BF6FF00102C3F800242A4AD2F826
:101F6000883043F47003C2F88830BFF34F8FBFF35B
:101F70006F8F4FF08053D3F83021082A0ED1D3F859
:101F80003431052B02D8214AD35C3BB14FF01023EA
:101F9000D3F808224FF08043C3F858254FF01023A0
:101FA000D3F80022002A03DBD3F80432002B22DA14
:101FB000174901234FF01020C1F804351224FFF710
:101FC00037FFC0F80042FFF733FFC0F80442FFF7C5
:101FD0002FFF0023C1F80435FFF72AFFBFF34F8F0F
:101FE00009490C4BCA6802F4E0621343CB60BFF3AB
:101FF0004F8F00BFFDE710BD005000404881030037
:1020000000F000400090024000ED00E0CE4B0000E8
:1020100000E001400400FA05044AD2F80034DB076E
:10202000FBD50160BFF35F8F704700BF00E0014048
:102030004FF080531A69B0FBF2F302FB130373B93C
:10204000084B0222C3F80425C3F80805D3F800247E
:10205000D207FBD500220448C3F804257047034883
:10206000704700BF00E001400000AD0B0A00AD0B5F
:1020700010B5054C0123C4F80435FFF7CDFF00234C
:10208000C4F8043510BD00BF00E0014010B5144C89
:10209000A8220021204602F09EF803232361114A62
:1020A0006361114BA261E3614FF4806323620023FB
:1020B000A3626362E36222660C4A62661022A26631
:1020C0002367E3666367BFF35F8F094A12F8011D58
:1020D000E1540133102BF9D1BFF35F8F10BD00BF66
:1020E00010040020DA4B0000100000200000002047
:1020F000F34B0000F8B5144B182700FB07751D447F
:1021000007FB00330E46DB6A012B14460AD0022B74
:1021100014D023B9284602F071F9844208D900246A
:102120002046F8BD284602F069F9844228BF0446DB
:1021300022463146284602F06AF9F1E72846BDE812
:10214000F84002F081B900BF10040020F8B50B4B35
:102150001B78532B04460D46164601D0FFF796FF19
:10216000EFF311874FF0200181F3118832462946A1
:102170002046FFF7BFFF87F31188F8BD1004002049
:1021800010B4BFF35F8F0C4A0C490023C85C12F8EF
:10219000014D84420AD10133102BF7D10023BFF344
:1021A0005F8F2BB15DF8044BFFF770BF0123F6E79B
:1021B0005DF8044B704700BFF34B00001004002093
:1021C00038B50A4B53F82040013053F82050A5424F
:1021D00000D838BD606830B1037FDB0701D402F05E
:1021E0008BF90834F3E723689847FAE7BC48000006
:1021F00008B5094B012203201A70FFF7E1FFFFF732
:102200006DF80420FFF7DCFFFEF7E4F8034A137BC8
:1022100023F00103137308BD28130020AC11002024
:1022200008B50348034A0021121A02F07CF908BDE0
:102230003C0500202C13002008B50020FFF7C0FF4C
:10224000184B83F30888184C636943F40073636187
:102250000025E02384F82230E57725766576A5769B
:1022600084F82050636A43F4E023636284F82350C7
:10227000FFF78EF9FFF79AFA4FF0FF33A362E3629C
:10228000FFF72EFBFFF7B6FA02F010F90120FFF777
:1022900097FF0220FFF794FF04482B462A46294661
:1022A000FFF76AFA801B002000ED00E0F12100003A
:1022B0000748084A084908B5121A02F036F90748D3
:1022C000074A0849BDE80840121A02F02EB900BFBB
:1022D000C00400203C050020FC4B0000B804002096
:1022E000C0040020F44B000010B50A4C23681BB159
:1022F00001232360002010BD00F048F80028F7D02B
:102300000138062803D8044B53F8200010BD0348B9
:1023100010BD00BF0C120020D4480000FE8FFFFF4C
:10232000BFF34F8F0549064BCA6802F4E0621343BE
:10233000CB60BFF34F8F00BFFDE700BF00ED00E0B3
:102340000400FA0510B40A4B0A490B4C4FF0FE3258
:10235000C3F800244968C3F80424C3F80824C3F868
:102360000C240023C4F800355DF8044B084700BF77
:1023700000B00250D804002000A00250D0E90012A2
:10238000014BC3E900127047D804002038B500F0B3
:102390002FF820B1032400F063F8204638BD00F088
:1023A00031F898B900F0ACF898B90F4DD5F8283944
:1023B0001B0EF02B08D1D5F8242A0C4B9A420AD0D8
:1023C000072400F017F8E6E70624FAE7042420467D
:1023D00038BD0024F5E7012000F092F804460028FB
:1023E000F7D1C5F80C0AD8E700B002500000E02091
:1023F0000020704700207047014BC3F8040A704763
:1024000000B0025010B5114800F048F800B110BDFE
:102410000F4800F043F80028F9D10E4C204600F098
:102420003DF80028F3D10C4B0C481C6000F036F846
:1024300001460028EBD100F02DF8044608B12046F3
:1024400010BD00F03FF82046FAE700BFF00400207E
:10245000EC040020E8040020E0040020E404002054
:1024600008B5084800F024F8074800F021F80748AC
:1024700000F01EF8064800F01BF8BDE8084000F028
:102480000BB800BFF0040020EC040020E80400209A
:10249000E404002000207047704700BF08B5034BDC
:1024A00002681B6810689847002008BD08050020D6
:1024B00008B5034B02685B6810689847002008BDA8
:1024C0000805002070B5094C094D2069AB68984794
:1024D00018B1084B08485B689847084AEB682069C0
:1024E00000211160BDE87040184700BFF4040020CF
:1024F00008050020D8040020F04800001012002039
:10250000F8B51A4D1A4E0446B26828699047E8B9E2
:10251000184F3B684CB1A3B1012B19D0013B3B6074
:102520002869F36898470020F8BD43B9124A012191
:10253000C2F800151149D1F81029002AFBD1013346
:102540003B60F368286998470020F8BD0C48F8BD47
:102550000A4AD2F81039002BFBD1074A6FF07E40AF
:10256000C2F80035FFF748FF3B68D7E7F4040020C6
:10257000080500201012002000A0025000B00250F8
:10258000E98FFFFF10B5044650B1636813F0685F30
:1025900005D0064A934202D000232360626010BD3A
:1025A000034B04485B689847EFE700BF2C5F5CA9CA
:1025B000D804002010490000C8B143680D4A934276
:1025C00013D013F0685F0ED0012350E8002F194696
:1025D00040E8001C9CF0000FF7D1012AF5D0BFF3B2
:1025E0005F8F0020704704487047044870476FF4BD
:1025F000E04070472C5F5CA9E98FFFFFEA8FFFFF87
:1026000080B14368094A93420AD013F0685F05D04D
:10261000BFF35F8F0023036018467047044870477C
:10262000044870476FF4E040704700BF2C5F5CA91E
:10263000E98FFFFFEA8FFFFF10B5044620B1044B7E
:1026400063600022226010BD0248FFF77BFEF6E7C0
:102650003A00003A3849000030B10268034B0448A0
:102660009A4208BF0020704702487047DD55AABB58
:102670008208F0007108F00038B50D460446B0B18C
:10268000A0220021043001F06BFF95B108222946F9
:1026900004F1640001F06AFF082205F1200104F151
:1026A000840001F063FF044B2360002038BD034821
:1026B000FCE70348FAE700BFDD55AABB7108F0004C
:1026C0008308F0002DE9F74305460E46994611466A
:1026D000FFF7C2FF0446002840F08480002E00F07F
:1026E0008580002900F08480B9F1200F40F08280BD
:1026F00005F14404082205F10408204601F036FFE4
:1027000005F1240708223146404601F02FFF06F16B
:1027100020010822384601F029FF02A94FF48070F9
:1027200041F8049D01F016FF002865D1334A4FF4AB
:1027300080731360012193600823314A00F02EFB5F
:102740000121084605232F4A00F028FB08234246B2
:1027500001211C2000F022FB08233A46012103201E
:1027600000F01CFB224608230121022000F016FB8A
:102770000823254A01211A2000F010FB0523234AD3
:1027800001211B2000F00AFB0823214A012114200B
:1027900000F004FB08231F4A0121152000F0FEFA77
:1027A000082305F164020121162000F0F7FA08233E
:1027B00005F184020121172000F0F0FA0823164ADF
:1027C00001210B2000F0EAFA00F044FB04460198D6
:1027D00000F0D2FA114B002C18BF1C46A421284649
:1027E00001F0C0FE204603B0BDE8F0830C4CF9E7D1
:1027F0000C4CF7E70C4CF5E7084CEFE790B00250B3
:102800009C490000144A00005C490000004A000096
:10281000C0490000E04900007C4900008408F00045
:102820007608F0008008F0008108F0000C4BC269C7
:102830001A60826943F8042C426943F8082C026943
:1028400043F80C2CC26843F8102C826843F8142C0F
:10285000426843F8182C026843F81C2C704700BFEC
:102860005CB602500C4B1B68C3610C4B1B68836148
:102870000B4B1B6843610B4B1B6803610A4B1B68C6
:10288000C3600A4B1B688360094B1B684360094B9C
:102890001B680360704700BF5CB6025058B6025018
:1028A00054B6025050B602504CB6025048B60250D0
:1028B00044B6025040B6025030B10268034B04489F
:1028C0009A4208BF0020704702487047DD55AABBF6
:1028D0000202F0000002F00038B5044668B1051DA0
:1028E0007021284601F03EFE28462022044901F0CE
:1028F00035FE044B2360002038BD0348FCE700BFD1
:10290000284A0000DD55AABB0002F0002DE9F04383
:10291000284B04460E4615460FCB85B06F4687E818
:102920000F002DB94FF00009484605B0BDE8F0830F
:102930002046FFF7C1FF81460028F5D1231D0193F2
:10294000636AA3BB236F8BB1C3F14008A84528BFBE
:10295000A84604F1300031461844424601F0FEFD1D
:10296000236F434446442367A5EB0805226F402AA2
:1029700006D104F13001384600F0AEFB0023236796
:1029800005F03F0835F03F0505D031462A46384668
:1029900000F0A2FB2E44B8F1000FC3D042463146EE
:1029A00004F1300001F0DAFDC4F87080BCE7DFF814
:1029B0000890B9E7784700000C02F0002DE9FF41CC
:1029C000144B04460E460FCB6F4687E80F00204697
:1029D000FFF772FF8046B0B9CEB1636A251D01953D
:1029E0003BB901236362226F04F13001384600F0E5
:1029F00073FB2B46043E243453F8042B12BAA34233
:102A000046F8042FF8D1404604B0BDE8F081DFF865
:102A10000880F8E7784700000502F000084B1B68C3
:102A20001B0EF02B08D1074B1A68074B9A4205D1B1
:102A3000064B00201860704705207047062070473D
:102A400028B9025024BA02500000E0200CBA02500B
:102A5000002230B549001346023840F6FC7502F1F9
:102A6000A05404F52C44A400904202F10102CABF14
:102A7000236025605B181E2AF1D1044A13600B44C1
:102A80005360034B034A1A6030BD00BF78B0025058
:102A900084B0025020F80F0030B51E4B85B01A46A6
:102AA000196800910099CC07FAD500F1A05000F503
:102AB0002C408000016813680193019BD807FAD568
:102AC000154B164C1868164D1F30202390FBF3F061
:102AD0000138002810DA00230130400153B1A0F181
:102AE00020014FF00042134204D1013888424FEADE
:102AF0005202F8D105B030BD13680393039BDB0786
:102B0000FAD5431823602B680293029B002BE3D174
:102B10000138DEE7B4B00250ACB00250E4B002506D
:102B2000DCB00250F0B51D6885B001F01F040DB98E
:102B30001F2C25D1154D2E462F680197019FFF07A9
:102B4000FAD500F1A05000F52C40800000683568EF
:102B50000395039DED07FAD50D4D00EB611028603C
:102B60000C48006802901F2C18BFC94302980FBF81
:102B7000106001F01F0100FA01F1116000211960DD
:102B800010684300C00F136005B0F0BDB4B0025030
:102B9000E4B00250DCB002500C4B18603F3020F023
:102BA0003F008901403058609960D96019615961CE
:102BB00099611C330648196082B002680192019A3B
:102BC000D207FAD5196002B0704700BF90B002502A
:102BD000B4B0025038B5A0F12003B3F5426F0546FA
:102BE0002CD88F2826D800F1470300F16604DB06B5
:102BF0004FEA541400D0013464013F34A409013475
:102C000011B1A1421AD30C46E3004FF48050B0FB3F
:102C1000F3F0202828BF202002B11060084B0122C9
:102C20001A602146FFF714FF28462146FFF7B4FF3C
:102C3000002038BD00F11F046409DDE70148F8E712
:102C40001CB802502221F000F0B5454B89B01D465A
:102C50001C680194019CE407FAD5424BDFF80CE1B3
:102C6000DFF80CC113449B0000241A680B181E2BBC
:102C700088BFC0F11E011F320B1852095343B3F530
:102C8000806F82BF4FF48061B1FBF2F1091A00F14D
:102C9000A05000F52C402746A14233DC2B6804935A
:102CA000049BDB07FAD5304B1B6829680591059911
:102CB000CF07FAD52D4C2E49236000231E469342A0
:102CC00003F1010040D120F00102294819460026F5
:102CD0008A423CD8296806910699CE07FAD525493B
:102CE0000968286807900798C007FAD5216020482E
:102CF00000210C468B422DD11D4900209A422CD830
:102D000009B0F0BD2B680293029BDB07FAD50319CB
:102D10009B001B682E680396039EF607FAD5CEF833
:102D200000300023934203F1010306D1164623F03D
:102D30000103B34204D80134AEE7CCF80070F1E7E8
:102D4000CCF800700136F4E70E600346B7E7066082
:102D50000131BDE704600131CCE708600133CDE704
:102D6000B4B0025024AC00147CB00250D4B0025075
:102D7000D8B0025078B0025008B540B120280146C2
:102D80004FF0070228BF20210020FFF75DFF024B14
:102D900000221A6008BD00BF1CB80250F0B5294DD2
:102DA00085B02C462E680096009EF607FAD500F1F5
:102DB000A05000F52C408000056820680190019823
:102DC000C707FAD52048214F056002EB8306B242BF
:102DD00029D15A1C1D4E22F0010200279A4227D801
:102DE00023680293029BDE07FAD5194B0B449B0024
:102DF0001B681F335B099A4213D221680391039920
:102E0000C907FAD5154400219B1A104A05600846E7
:102E10008B4210D85A1C0D4922F0010200209A4220
:102E20000CD805B0F0BD52F804CBC7F800C0CEE70F
:102E300037600133D2E710600131E9E70860013300
:102E4000EDE700BFB4B00250D4B00250D8B0025089
:102E500024AC00142DE9F041814B1D6898682033A3
:102E6000A0B01E461A680192019AD707FAD57D4B89
:102E70007D4A1A6032680292029AD407FAD57B4AD8
:102E80001A607B4A1446116803910399C907FAD561
:102E9000784A1168C1F3402137680497049FFF07FF
:102EA000FAD5754F1F6027680597059FFF07FAD56C
:102EB0001768002900F0CF80B90540F1CC80316857
:102EC00006910699CF07FAD56C49196021680791D8
:102ED0000799C907FAD51168C1F3402137680897E7
:102EE000089FFF07FAD5664F1F6027680997099F5B
:102EF000FF07FAD51268002900F0AF80910540F174
:102F0000AC8032680A920A9AD207FAD5564A1A60F9
:102F100032680B920B9AD707FAD55A4A1A60316871
:102F20000C910C99CC07FAD55749196031680D916D
:102F30000D99C907FAD55549196031680E910E9956
:102F4000CF07FAD55249196031680F910F99CC0714
:102F5000FAD550491960504B1E46196810911099C6
:102F6000C907FAD53F4C4D4B236033681193119B31
:102F7000DB07FAD54A4B236033681293129BDF07B5
:102F8000FAD5484B23603A4B984619681391139928
:102F9000C907FAD5324F386033681493149BDB07A6
:102FA000FAD5226033681593159BD807FAD53E4BA6
:102FB000236033681693169BD907FAD53B4B2360E1
:102FC00033681793179BDA07FAD5394B23603368B8
:102FD0001893189BDB07FAD5364B23603368199397
:102FE000199BD807FAD5344B236033681A931A9B80
:102FF000D907FAD5314B236033681B931B9BDA0743
:10300000FAD52F4B236000F01DFC08BBD8F8003028
:103010001C931C9BDB07F9D53D6033681D931D9BFA
:10302000D907FAD5274B236033681E931E9BDA0716
:10303000FAD5254B2360D8F800301F931F9BDB0780
:10304000F9D50C4B1B6813F4805F204B08BF184662
:1030500020B0BDE8F0811E48FAE71E48F8E700BF3F
:1030600090B0025080B0025000100251C01F72296F
:10307000B4B0025088B00250C0CF0129C01F0E2941
:10308000C03F002940010249003184A800001649D0
:10309000400108A180440888B0B00250C044708844
:1030A00080077A41C0077E4100006A4980061649C0
:1030B00040006E4900020021008220214082202130
:1030C0008082242140A161A100C861510308F10060
:1030D0000108F1000208F1002DE9F74F314B446877
:1030E0008046924699461A68002AFCD12E4B9B4690
:1030F0001A68002AFCD14FF0FF30019100F094FCD7
:10310000802000F097FC294D294A2A4F2A4E01239E
:1031100007202B60A2F59E72C2F83C011360636A1F
:103120003B60A36A3360D8F8003042F8043CD8F81A
:103130000830204698470199D9F80030002BFBD180
:10314000BAF1000F20D11D4B04221A60D9F80030CB
:10315000002BFBD1DBF800A0BAF1000FFAD1D8F8B0
:103160000C30204698473B6863623368A362144B77
:10317000C3F800A0C3F844A1D9F80030002BFBD15C
:103180002B6003B0BDE8F08F236A012B04BF0C4A0B
:1031900013600C4B40201960C3F804A000F050FCF1
:1031A000D4E700BF10B9025020BC025018B802503A
:1031B00000B90250CCB70250D0B70250C8B7025085
:1031C00084B6025028BC025010B5544B98B0194632
:1031D0001A680192019AD207FAD5514B514A1A60E6
:1031E0000A680292029AD407FAD54F4A1A600A680E
:1031F0000392039AD007FAD54C4818600A680492E3
:10320000049AD207FAD54A4A1A600A680592059AC2
:10321000D407FAD5474A1A600A680692069AD20776
:10322000FAD5454A1A600A680792079AD407FAD570
:10323000424A1A600A680892089AD207FAD5404AA8
:103240001A600A680992099AD407FAD53D4A1A60A9
:103250000A680A920A9AD207FAD53B4A1A600A68A3
:103260000B920B9AD407FAD5384A1A600A680C9266
:103270000C9AD207FAD5364A1A600A680D920D9A4E
:10328000D407FAD5334A1A600A680E920E9AD2070A
:10329000FAD5314A1A600A680F920F9AD407FAD504
:1032A0002E4A1A600A681092109AD207FAD52C4A50
:1032B0001A601A4B19461C681194119CE407FAD540
:1032C000174B1860086812901298C407FAD51A6054
:1032D0000A681392139AD007FAD5124A1A600A683C
:1032E0001492149AD207FAD51E4A1A600A681592E7
:1032F000159AD407FAD51C4A1A600A681692169ACB
:10330000D007FAD5194A1A600A681792179AD20795
:10331000FAD5174A1A6018B010BD00BFB0B00250FD
:1033200080B0025000936521000431904096659072
:103330000083612100C3302100C36490008161904B
:1033400000461021008111210041442100C32029A1
:103350000C4610C80086312100C3602140C12829D5
:10336000409665210013319040962529594614C88E
:103370004004324910B5494B94B019461A6800927E
:10338000009AD207FAD5464B464A1A600A6801925B
:10339000019AD407FAD5444A1A600A680292029A3E
:1033A000D007FAD5414818600A680392039AD207F9
:1033B000FAD53F4A1A600A680492049AD407FAD5EB
:1033C0003C4A1A600A680592059AD207FAD53A4A29
:1033D0001A600A680692069AD407FAD5374A1A6024
:1033E0000A680792079AD207FAD5354A1A600A681E
:1033F0000892089AD407FAD5324A1A600A680992E4
:10340000099AD207FAD5304A1A600A680A920A9ACB
:10341000D407FAD52D4A1A600A680B920B9AD20784
:10342000FAD52B4A1A600A680C920C9AD407FAD57E
:10343000284A1A600A680D920D9AD207FAD5264AD0
:103440001A600A680E920E9AD407FAD5234A1A60B7
:103450000A680F920F9AD207FAD5214A1A600F4BC9
:1034600019461C681094109CE407FAD50C4B1860A0
:10347000086811901198C407FAD51A600A68129268
:10348000129AD007FAD5174A1A600A681392139A4B
:10349000D207FAD5144A1A6014B010BDB0B0025069
:1034A00080B002508090652100040990409665909C
:1034B00080806121802008218020649000816190BB
:1034C0000046102100811121004144218020202943
:1034D000024610C800860921802060214021282949
:1034E0004096652140962529594614C810B5504B81
:1034F00096B01C461A680192019AD207FAD54D4B34
:103500004D4A1A6022680292029AD207FAD54B4AB3
:103510001A604B4A42EA804022680392039AD2071B
:10352000FAD5186022680492049AD007FAD5454A61
:103530001A60A2F5800242EA814122680592059A4A
:10354000D207FAD5196022680692069AD007FAD5F2
:103550003D4A1A6022680792079AD107FAD53B4A7A
:103560001A6022680892089AD207FAD5384A1A6077
:1035700022680992099AD007FAD5364A1A60226859
:103580000A920A9AD107FAD5334A1A6022680B9236
:103590000B9AD207FAD5314A1A6022680C920C9A1B
:1035A000D007FAD52E4A1A6022680D920D9AD107DB
:1035B000FAD52C4A1A6022680E920E9AD207FAD5D2
:1035C000294A1A6022680F920F9AD007FAD5274A23
:1035D0001A60216810911099C907FAD51A60144B26
:1035E0001A46196811911199C807FAD5114B20494B
:1035F0001960116812911299C907FAD51D4919600D
:10360000116813911399CC07FAD50B491960116809
:1036100014911499C807FAD51749196011681591C2
:103620001599C907FAD5154A1A6016B010BD00BF22
:10363000B0B0025080B00250400441900086292969
:10364000D81001C84014419040142129401465212C
:103650000034409000310C90C0400C90C0302029C4
:1036600040960D9000416090031645C800861121D8
:1036700000416021594644C84014459040142D90A3
:1036800070B5264888B0054604680094009CE6079B
:10369000FAD52348234C0460234C44EA83432C6826
:1036A0000194019CE407FAD50360930143EA824246
:1036B00042F0104444F4C0442B680293029BDE079E
:1036C000FAD504602B680393039BDB07FAD5174BED
:1036D00003608B0143EA814141F0104343F4C0434E
:1036E0002E680496049EF607FAD503602B680593AE
:1036F000059BDE07FAD5046041F058412B6806931C
:10370000069BDC07FAD5016042F058422B6807930C
:10371000079BDB07FAD5026008B070BDB0B002505D
:1037200080B00250C02102298071009880611890F9
:10373000354B8EB019461A680092009AD207FAD516
:10374000324B334A1A600A680192019AD007FAD5BF
:10375000304A1A600A680292029AD207FAD52E4AB3
:103760001A600A680392039AD007FAD52B4A1A60A6
:103770000A680492049AD207FAD5294A1A600A689C
:103780000592059AD007FAD5264A1A600A68069269
:10379000069AD207FAD5244A1A600A680792079A4D
:1037A000D007FAD5214A1A600A680892089AD20707
:1037B000FAD51F4A1A600A680992099AD007FAD501
:1037C0001C4A1A600A680A920A9AD207FAD51A4A5B
:1037D0001A6008680B900B98C007FAD51A600A683F
:1037E0000C920C9AD007FAD5144A1A600A680D9206
:1037F0000D9AD207FAD5124A1A600E210D230F2214
:1038000000200EB0FFF73CBFB0B0025080B00250B5
:10381000804301294063392180700129802054218F
:1038200000D13490C0403490C0302029C0530D9056
:1038300000413890832308C880E3102100413821DB
:10384000CF4308C82DE9F041012392B0CDE90333FD
:10385000624B1D461A680592059AD207FAD5604C4C
:10386000604B2360604B19461A680692069AD70788
:10387000FAD55E4B1A68D60400F1A8802A68079230
:10388000079AD007FAD55A4A22600A680892089A1D
:10389000D207FAD51E68C6F30036002E40F0988095
:1038A0001220FFF7F9F807461320FFF7F5F88742D3
:1038B0008CBF12201320FFF7EFF8471EFFF738FFE9
:1038C00003AB01AA39461220FFF72CF904AB80465E
:1038D00002AA39461320FFF725F900EB4800022819
:1038E00032D003283ED0012874D12B680993099B5C
:1038F000DB07FAD53F4B23602B680A930A9BD80756
:10390000FAD53D4B23602B680F930F9BD907FAD54F
:103910003A4B23602B681093109BDA07FAD5384B8B
:1039200023602B681193119BDB07FAD5354B23607D
:10393000013F25D51023192218210020FFF7A0FEF2
:10394000304612B0BDE8F0812B680B930B9BD90772
:10395000FAD52D4B23602B680C930C9BDA07FAD514
:103960002A4BCFE72B680D930D9BDB07FAD5284B2D
:1039700023602B680E930E9BD807FAD5254BC1E721
:1039800003AB01AA39461220FFF7CCF804AB04467A
:1039900002AA39461320FFF7C5F810EB440402D100
:1039A000FFF712FCC4E7FFF7E5FC022C08D0032C5C
:1039B00009D0012C10D117211620FFF797FDB7E78A
:1039C00015211420F9E70F210E20F6E7124EB7E774
:1039D000124EB5E7124EB3E7124EB1E7B0B0025047
:1039E00080B0025000084A51B4B0025088B0025072
:1039F00000084E5100065A4940065E490004424103
:103A00000014424940042E490006524940065649D6
:103A100000063A4940063E490608F1000708F10051
:103A20000408F1000508F100014B1860704700BF61
:103A300008BA0250014B1860704700BF04BA025028
:103A4000034A13681842FCD0024A106018467047B7
:103A500000BA025008BA0250704708B908607047AF
:103A60006FF0150070470020704730B5002985B011
:103A70000446154611DB83688B420ED96368C06823
:103A8000194401AA00F0E6FB28B96268019B9B1A61
:103A90002B60029B6B6005B030BD6FF02100FAE730
:103AA00070472DE9F7430E4617469946044628B954
:103AB0004FF0FF38404603B0BDE8F0830029F7D04F
:103AC000002AF5D0CB680D891D4404230DEB0302B9
:103AD0002946384600F09EFA80460028E8D1BDF815
:103AE0000410738946F60812914225D1BDF80610DC
:103AF0009942DDD104230DEB03022944384600F03E
:103B000089FA0028D4D1BDF8042046F607139A425A
:103B1000CED1C4E900679DF82830A4F80890A372BC
:103B20007389BDF806202B44E360738913442B444A
:103B3000043563612561BDE7002BE4D0B8E72DE9CA
:103B4000F3410E4617461D46044620B94FF0FF309C
:103B500002B0BDE8F0810368002BF7D04368002B6A
:103B6000F4D04FF6FF78D4E904239A4216D22368A2
:103B70005B8923B1E368934204BF043323610423C8
:103B8000216960680DEB030200F044FA0028DDD1E2
:103B9000A37A2BB1D4E903329A4201D30120D7E7AB
:103BA0002389BDF80610434501F1040203D0BDF896
:103BB00004C09C450BD115B1BDF804302B8023699E
:103BC000043333603980236913442361C0E72369D8
:103BD00013442361C7E748B103683BB143682BB185
:103BE000C068884294BF0020012070474FF0FF302A
:103BF000704773B50C4606461146022301AA2046BB
:103C000000F05DF90546E8B9019A1F2A0ED923682C
:103C1000A2F1200119442022304600F0D1FA236895
:103C2000019A13442360284602B070BD0146C2F1D8
:103C30002002304600F0CFFA019A2168C2F120003C
:103C40003044EAE76FF00205EDE700F0A9BA4FF45F
:103C5000C073584330307047084600F064BB2DE90C
:103C6000F3412C2303FB01051746EB682E89D5F899
:103C700020801E4404230DEB03023146404600F031
:103C8000C9F9044620B10124204602B0BDE8F08104
:103C9000BDF804206D8946F608139A421AD1BDF882
:103CA00006309D4201D00324EEE704230DEB03020E
:103CB000A919404600F0AEF90028E4D1BDF804206F
:103CC00046F607139A42EED1BDF806102944314456
:103CD0003960D9E7002DF1D0E5E738B500230D466E
:103CE00002461946044600F091F8034648B904F12B
:103CF0002C020121204600F089F810B1002D08BFE8
:103D0000002038BD37B50446426A802501A902204B
:103D1000019500F0EEF958B9019B226DA36201A94B
:103D20000520019500F0E5F9054628B1092500E0D8
:103D30000125284603B030BD019B206A636500F071
:103D4000A8F9E065F5E70123036003F1012343606F
:103D50000023C0E9023370474379012B07D1036880
:103D6000012B04D10079431E58425841704700206E
:103D7000704710B41AB15DF8044BFCF71DBD104636
:103D80005DF8044B7047002382681946FFF7F1BFC6
:103D9000F0B5D0F828C0BCF1800F35D8466D802E24
:103DA00032D800210B460A460D460C46624507D321
:103DB000B34205D3624527D19B1B58425841F0BD01
:103DC000AC420CD1476A07EBC20701327F683C4422
:103DD000076D07EBC30701337F683D44E6E709D26F
:103DE000476A07EBC20702297F683C440CD00132C6
:103DF0000121DBE7076D07EBC30701297F683D441D
:103E000002D001330221D1E70020D8E708B52C23E6
:103E100003FB010020230021006A00F0FBF80038BA
:103E200018BF012008BD70B50368CD1A002D02DC53
:103E30006FF05F0070BD93F900601C78002E0ADB04
:103E40005C1C04601B7813600368C91A13688B42FA
:103E5000EED80020EEE704F07F04013C032C2BD8C1
:103E6000DFE804F0020A1421012DE1D05B78136031
:103E7000036802330360E7E7022DD9DDB3F80130B0
:103E80005BBA9BB2136003680333F3E7032DCFDD06
:103E90009C785D78DB78240244EA05442343136070
:103EA00003680433E6E7042DC2DDD3F801301BBA02
:103EB000136003680533DDE76FF06300BAE770B4A1
:103EC00004680E1B002E07DD26789E4208D10134BF
:103ED000046070BCFFF7A7BF6FF05F0070BC704755
:103EE0006FF06100FAE738B503230446FFF7E7FFF8
:103EF00018B9136813B96FF0670038BD013B136040
:103F000023681A78002AF6D101332360F5E72DE9FA
:103F1000F34190461F4601AA302305460E46FFF79F
:103F2000CEFF0446F0B92B68F61A002E34DD424667
:103F30001B7842F8043B019B2E681E443146062341
:103F40002846FFF7BCFF044660B92B68D8F8042068
:103F5000C8F808309918B142296007D10C213846B9
:103F6000FCF74CFE204602B0BDE8F0819B5C3A466F
:103F7000314642F8043B2B6801332B602846FFF79B
:103F800052FF60B92B687A68BB601344B3422B6060
:103F900018BF6FF06504E5E76FF05F04E2E70446E1
:103FA000E0E7F8B5B1F1005F00AF0546144610D266
:103FB000D31D23F007036E46ADEB030D684600F0FA
:103FC000FFF8694622462846FEF7A0FCB546BD46E6
:103FD000F8BDFEF79BFCFAE7002070470FB407B569
:103FE00004A951F8040B0191FCF702FF03B05DF83E
:103FF00004EB04B070477047002908DB80688842F2
:1040000005D9401A904234BF00200120704700209B
:104010007047704770B516461A4605460C46FFF7BE
:10402000EBFF48B16968E868214482681468324649
:10403000A446BDE8704060476FF0150070BD70B5D4
:1040400016461A4605460C46FFF7D6FF48B1696882
:10405000E8682144826854683246A446BDE870404E
:1040600060476FF0150070BD10B50B460446FFF7B2
:10407000C3FF40B16168E068194483689B682BB155
:10408000BDE8104018476FF0150010BD6FF05700E5
:10409000FBE708B5C0688368DB689847006808BD1F
:1040A00008B5C0688368DB689847407908BD70B57B
:1040B0004C680368A34201D2012070BD8A68224483
:1040C000934201D30020F8E7D1E903254E69B542B8
:1040D00003D36FF00B038B61F4E71B1B42F8353001
:1040E0004368086902EBC00253600B6901330B613E
:1040F000E2E737B50C46C0B201A91546FDF7AEF8A8
:1041000000280CDB019850B121462A46FDF7CCF877
:1041100004460198FFF77DFF204603B030BD6FF0E5
:104120001504F9E7FEE77047012801D1EFF3058395
:1041300000F0D3B901460068FFF7F6BF08B5FDF7F8
:10414000E5F8BDE8084000F000B870470021012004
:10415000FFF7EABF61B662B680F31188BFF36F8FD5
:104160007047EFF31180202383F31288BFF36F8F22
:104170007047202809D9B0F1004F08D80138B0FAAB
:1041800080F0C0F11F0040007047082070473E20BB
:104190007047034600201A5C02B970470130FAE705
:1041A00010B55AB10139841810F8012B11F8013FEC
:1041B000A04201D09A42F7D0D01A10BD1046FCE7B9
:1041C00010B5431E0A44914200D110BD11F8014BB5
:1041D00003F8014FF7E7C9B202440346934200D106
:1041E000704703F8011BF9E74FF0FF3070472DE9E6
:1041F000F3411C469046002382682360A360536904
:104200000D4601AA69469847019B5A1E019223B99F
:104210006FF0150002B0BDE8F0810098A268476811
:104220002168676085B9A8EB02030668B34228BF1E
:1042300033461A4403FB07112160A26002689A42C8
:1042400006D808300090DFE76B1AB3FBF7F3ECE712
:104250000020DFE713460022FFF7C9BF2DE9F04732
:10426000836886B05B698846914601A902AA98478F
:104270000024A2462546029BAB4202D806B0BDE808
:10428000F087019F07EBC50700267B6804933A6817
:10429000B2420AEB060302D801359A46EBE70394D3
:1042A0000593494603A8C0470028E7D0049B013680
:1042B0001C44ECE710B50C4600F092F80023C4E96A
:1042C0000003184610BD38B505460C4600F088F8C6
:1042D000002D07DBA84205D9401B84428CBF00207B
:1042E000012038BD0020FCE770B50D462846194670
:1042F00016461C46FFF7E7FF38B124B1224629468F
:104300003046FFF75DFF002070BD6FF01500FBE742
:10431000FDF7EABF08B5FCF7F3FFFFF704FFBDE8C0
:104320000840FDF7E1BF8068183820F0070010381A
:104330007047042809D0052803D1481E18BF012062
:104340007047431A5842584170470120704738B5AA
:1043500015460C4661B15AB1FFF7A2FE254421462D
:1043600011F8013B834203D1A942F9D1012038BDA4
:104370000020FCE738B50C460123114622460546CD
:10438000FFF748FE00280FDB012221462846FFF7F1
:10439000DEFF38B92378012B14BF022301232370D9
:1043A000002038BD0323FAE70120FAE78268183AB3
:1043B00022F00702FFF7DEBF13B50C46C0B201A919
:1043C000FCF74CFF50B921460198FDF777FC0446F5
:1043D0000198FFF71EFE204602B010BD0124FAE747
:1043E0004FF080531A695869504370474FF080531B
:1043F000186970474FF08053586970470369C26865
:1044000093429CBF81685B18013B981A70472DE965
:10441000F041D0E902840546A8EB040640689642C4
:1044200020440F46144406D9FFF7CAFEBFF35F8F3E
:10443000EC60BDE8F0813246A4EB0804FFF7C0FE53
:1044400068682246B919EFE72DE9F843C5680646C2
:10445000894617464FF000083369B46870689D427A
:1044600028BF1B19641BBC4203F1FF3328BF3C4625
:104470005B1B9C4228BF1C46494622462844FFF746
:104480009FFEB3682544A044A1443F1BAB4208BF34
:104490000025BFF35F8FF560002FDDD14046BDE8FA
:1044A000F88308B5FDF76CFE002008BD704740B1E9
:1044B000C368587810F001001EBF1878B0FA80F079
:1044C00040097047EFF31183202383F31288BFF371
:1044D0006F8FFEE708B5FFF7F5FF10B5EFF3118416
:1044E000202383F31288BFF36F8FFFF7F3FF84F36A
:1044F0001188BFF36F8F10BD10B54369044633B9FF
:104500000020E268537843F00103537010BD9847D0
:104510000028F5D00028B8BF4042E368FF28A8BFB4
:10452000FF201870EDE7FFF756BEFFF749BE2DE9F3
:10453000F041069F044615461E46FEF79DF838B921
:104540003B46324629462046BDE8F041FEF7BAB860
:10455000BDE8F0810A460021FEF73CBBFFF730BE04
:10456000FFF739BE0A460021FFF735BE01EB820294
:1045700004388A4201D10020704752F8043D1BBA2A
:1045800040F8043FF5E70000ACBBFF7F01000000EE
:10459000551A000000000000A344000000000000C5
:1045A000951A000000000000114300000000000008
:1045B000154300000000000000000000C04500009E
:1045C000A24B0000000000006047000038050020FA
:1045D00000000000FD1A00000000000000000000C4
:1045E000000000004D410000000000004D410000AF
:1045F000000000004D410000000000004D4100009F
:10460000000000004D410000000000004D4100008E
:10461000000000004D410000000000004D4100007E
:10462000000000004D410000000000004D4100006E
:10463000000000004D410000000000004D4100005E
:10464000000000004D410000000000004D4100004E
:10465000000000004D410000000000004D4100003E
:10466000000000004D410000000000004D4100002E
:10467000000000004D410000000000004D4100001E
:10468000000000004D410000000000004D4100000E
:10469000000000004D410000000000004D410000FE
:1046A000000000004D410000000000004D410000EE
:1046B000000000004D410000000000004D410000DE
:1046C000000000004D410000000000004D410000CE
:1046D000000000004D410000000000004D410000BE
:1046E000000000004D410000000000004D410000AE
:1046F000000000004D410000000000004D4100009E
:10470000000000004D410000000000004D4100008D
:10471000000000004D410000000000004D4100007D
:10472000000000004D410000000000004D4100006D
:10473000000000004D410000000000004D4100005D
:10474000000000004D410000000000004D4100004D
:10475000000000004D410000000000004D4100003D
:10476000E9420000091C0000991B0000F51A000036
:10477000B5420000E51A0000020000000000000041
:104780002D28000065280000020000000500000040
:1047900001000000874A00009C4700005B00000009
:1047A00000200040008002400C00000000000000DB
:1047B0000000000000600000C04500000100000093
:1047C0000060000000020000C04500000200000080
:1047D0000060000000A00700C045000003000000CA
:1047E00000620000009E0700C045000004000000B9
:1047F00000620000009E0700C045000005000000A8
:104800000000080000A00700C045000006000000EE
:104810000000080000020000C04500000700000082
:1048200000020800009E0700C045000008000000CC
:1048300000A00D0000000200C045000009000000BB
:1048400000A00F0000200000C04500000A0000008A
:1048500000C00F0000100000C04500000B00000069
:1048600000D00F0000300000C04500000000000034
:1048700025410000C00400200000000000000B06DD
:10488000801B00204000000000000B15020000000B
:1048900094480000000000008D4B0000260002023A
:1048A00000000020954B000022000B1104000000C6
:1048B00000FF00000200000005000000904500001D
:1048C00090450000B0450000B0450000C045000024
:1048D000C0450000FF8FFFFFFF8FFFFFFE8FFFFF30
:1048E000FE8FFFFFFD8FFFFFFC8FFFFFFC8FFFFFA1
:1048F000436F756C64206E6F74206C6F636B2070F7
:104900006F7765722073617665206D7574657800C8
:104910006D757465785F667265652063616C6C6542
:10492000642077697468204E554C4C207061726128
:104930006D6574657200000043616E277420696EB6
:10494000697469616C697A65206D757465782C206D
:10495000776173204E554C4C0D0A0000FFFFFFFF9E
:10496000FFFFFFFFFFFFFFFF00000000000000004F
:104970000000000001000000FFFFFFFFFCFFFFFF41
:10498000FFFFFFFFFFFFFFFF00000000000000002F
:104990000000000001000000FFFFFFFF512563FC45
:1049A000C2CAB9F3849E17A7ADFAE6BCFFFFFFFFAA
:1049B000FFFFFFFF00000000FFFFFFFF00000000FF
:1049C00096C298D84539A1F4A033EB2D817D0377A9
:1049D000F240A463E5E6BCF847422CE1F2D1176B44
:1049E000F551BF376840B6CBCE5E316B5733CE2B17
:1049F000169E0F7C4AEBE78E9B7F1AFEE242E34F46
:104A0000FFFFFFFF7F0000008000000000000000AB
:104A100000000000FFFFFFFF7F000000800000009B
:104A2000000000000000000067E6096A85AE67BB71
:104A300072F36E3C3AF54FA57F520E518C68059B80
:104A4000ABD9831F19CDE05B0100020010001100FB
:104A50001200200021002200230024003000310039
:104A600032003300FFFF77C295F360D2EF7F3552FB
:104A7000500F2CB679802A8648CE3D030107002AC4
:104A80008648CE3D0201003059301306072A864879
:104A9000CE3D020106082A8648CE3D0301070342A7
:104AA00000043BDDC402647B16737E366C9FECB35E
:104AB00028CFABA0CD918C6482AB807D0921CF8CB7
:104AC0006686C8C500D67BB07D4D498C8B81036757
:104AD000C28DA97D33A469AC62FBB20D00A8CD9E46
:104AE00005F92D0020002B00307800305800286E8A
:104AF000696C29002A2A2A20426F6F74696E672028
:104B00004D79204170706C69636174696F6E2076B5
:104B1000322E312E302D6465762D3262363964396D
:104B2000336537356263202A2A2A0A002A2A2A2076
:104B30005573696E67206E524620436F6E6E6563D3
:104B4000742053444B2076332E312E302D3663366D
:104B5000653562333234393665202A2A2A0A002A1A
:104B60002A2A205573696E67205A65706879722009
:104B70004F532076342E312E39392D31363132369D
:104B800038336434303130202A2A2A0A00464C4116
:104B900053485F30005352414D5F30000000010028
:104BA0000000666C6173682D636F6E74726F6C6C5D
:104BB0006572403430303165303030000401040318
:104BC00004020401040104030104030401040000BD
:104BD000000000010100000000005465726D696E64
:104BE000616C000000000000005454522052454700
:044BF00047455300E2
:104BFC0001000000FFFFFFFFD7410000D93F00007C
:104C0C00AC470000E9410000000000002123000037
:104C1C00E804002004050020FC040020F804002017
:104C2C00F404002030050020280500202005002079
:104C3C000000000018050020392600008525000022
:104C4C00B925000001260000141200203A00003A99
:104C5C00181200203A00003A1C1200203A00003AC8
:104C6C00201200203A00003A0000000015E015E088
:106000003DB8F3960000000000020000B809060049
:106010000000000002012500030000000000000055
:10602000FFFFFFFFFFFFFFFFFFFFFFFFFFFFFFFF80
:10603000FFFFFFFFFFFFFFFFFFFFFFFFFFFFFFFF70
:10604000FFFFFFFFFFFFFFFFFFFFFFFFFFFFFFFF60
:10605000FFFFFFFFFFFFFFFFFFFFFFFFFFFFFFFF50
:10606000FFFFFFFFFFFFFFFFFFFFFFFFFFFFFFFF40
:10607000FFFFFFFFFFFFFFFFFFFFFFFFFFFFFFFF30
:10608000FFFFFFFFFFFFFFFFFFFFFFFFFFFFFFFF20
:10609000FFFFFFFFFFFFFFFFFFFFFFFFFFFFFFFF10
:1060A000FFFFFFFFFFFFFFFFFFFFFFFFFFFFFFFF00
:1060B000FFFFFFFFFFFFFFFFFFFFFFFFFFFFFFFFF0
:1060C000FFFFFFFFFFFFFFFFFFFFFFFFFFFFFFFFE0
:1060D000FFFFFFFFFFFFFFFFFFFFFFFFFFFFFFFFD0
:1060E000FFFFFFFFFFFFFFFFFFFFFFFFFFFFFFFFC0
:1060F000FFFFFFFFFFFFFFFFFFFFFFFFFFFFFFFFB0
:10610000FFFFFFFFFFFFFFFFFFFFFFFFFFFFFFFF9F
:10611000FFFFFFFFFFFFFFFFFFFFFFFFFFFFFFFF8F
:10612000FFFFFFFFFFFFFFFFFFFFFFFFFFFFFFFF7F
:10613000FFFFFFFFFFFFFFFFFFFFFFFFFFFFFFFF6F
:10614000FFFFFFFFFFFFFFFFFFFFFFFFFFFFFFFF5F
:10615000FFFFFFFFFFFFFFFFFFFFFFFFFFFFFFFF4F
:10616000FFFFFFFFFFFFFFFFFFFFFFFFFFFFFFFF3F
:10617000FFFFFFFFFFFFFFFFFFFFFFFFFFFFFFFF2F
:10618000FFFFFFFFFFFFFFFFFFFFFFFFFFFFFFFF1F
:10619000FFFFFFFFFFFFFFFFFFFFFFFFFFFFFFFF0F
:1061A000FFFFFFFFFFFFFFFFFFFFFFFFFFFFFFFFFF
:1061B000FFFFFFFFFFFFFFFFFFFFFFFFFFFFFFFFEF
:1061C000FFFFFFFFFFFFFFFFFFFFFFFFFFFFFFFFDF
:1061D000FFFFFFFFFFFFFFFFFFFFFFFFFFFFFFFFCF
:1061E000FFFFFFFFFFFFFFFFFFFFFFFFFFFFFFFFBF
:1061F000FFFFFFFFFFFFFFFFFFFFFFFFFFFFFFFFAF
:1062000080E30220FD79020001770200E1790200BB
:10621000E1790200E1790200E1790200000000006A
:10622000000000000000000000000000C57B02002C
:10623000E1790200000000001D7B0200E17902000C
:10624000957E0200DD870400957E0200957E0200A7
:10625000957E0200957E0200957E0200957E0200EA
:10626000DD870400957E0200957E0200DD87040034
:10627000957E0200957E0200957E0200957E0200CA
:10628000957E0200957E0200957E0200957E0200BA
:10629000957E0200957E0200957E0200957E0200AA
:1062A000957E0200957E0200957E0200957E02009A
:1062B000957E0200957E0200957E0200957E02008A
:1062C000957E0200957E0200957E0200957E02007A
:1062D000957E0200957E0200957E0200957E02006A
:1062E000957E0200957E0200957E0200957E02005A
:1062F000957E0200957E0200957E0200957E02004A
:1063000001F0FF01102A2BDB10F0070F08D010F866
:10631000013B013A8B422DD010F0070F42B3F6D16A
:10632000F0B441EA012141EA014122F007047FF083
:1063300000070023F0E80256083C85EA010586EADA
:10634000010685FA47F5A3FA87F586FA47F6A5FA16
:1063500087F68EB9EED1F0BC01F0FF0102F0070222
:1063600032B110F8013B013A83EA010313B1F8D1CD
:106370000020704701387047002D06BF35460338AE
:10638000073815F0010F07D1013015F4807F02BFE7
:10639000013015F4C03F0130F0BC0138704700BF38
:1063A0002DE9F04F95B01C460592CDE901010AF0A8
:1063B00097F9182305460F460820B64904EB440216
:1063C00013FB0404631801EBC2026458197BD3F871
:1063D000049093F80DA00491083201F1010B0FCA4B
:1063E0000DF1380C8CE80F0003940AF09BF9204063
:1063F00009F05AFF80460AF033FA00900AF076F965
:1064000006460AF09BF9804508EB0B0200F2B381C7
:10641000009B9B4500F3AA81B24280F28F80002A44
:10642000B6BF93190092009309F0D4FCBAF1010FA2
:10643000834609D0DFF86082D8E90223B3F1FF3F39
:1064400008BFB2F1FF3F4CD009F0FAFCB7F1FF3FB3
:1064500008BFB5F1FF3F069003D0AC4279EB0703CC
:106460006FD2019B03210022E31A8B4261DBDFF82C
:106470002882D8E902319C4279EB010045D2B1F182
:10648000FF3F08BFB3F1FF3F40F07F81019B0792C0
:10649000E61A029B69EB030B09F0D2FC0930C31723
:1064A00086427BEB030380F0E080059B079A012B7B
:1064B00000F0E580002A48D1B7F1FF3F08BFB5F1F1
:1064C000FF3F42D0291B67EB0903042973F1000049
:1064D00080F23681012973F100032ADA934603958D
:1064E00044E00028B0D109F0ABFCB7F1FF3F08BF92
:1064F000B5F1FF3F069004D0AC4279EB070380F082
:10650000AA80019BC11C0122AEE7BBF1000FBDD1E7
:10651000B1F1FF3F08BFB3F1FF3FB7D00698E31AD0
:1065200069EB0101834271F10003AFD2BAF1010FAF
:10653000ACD00026304615B0BDE8F08F931B009319
:1065400072E700212B460A468EE7204649460AF0AC
:10655000C5F94FF0000B0028EBD0B9F1FF3F08BFA1
:10656000B4F1FF3F00F00C8125464F460AF0DAF8FF
:10657000039B184009F098FE06460AF071F9019055
:106580000AF0B4F802900AF0D9F8009B01999A1B1E
:1065900091420DD8A6EB030C614500F2B080904209
:1065A000C0F0C980604580F0FA80029A32449A1A9D
:1065B000D31700200AF056FA06460028B9D0BAF1DF
:1065C000010FD8E902236BD0BBF1000F40F08280AD
:1065D000B3F1FF3F08BFB2F1FF3F00F0C080D8F831
:1065E00018304FF080420120C2F8080518600AF008
:1065F0000FFBB8F81030002B40F09680049B8DF80C
:10660000443000238DF8483008934FF0FF324FF0AC
:10661000FF33CDE90A238DF845A0CDF83C900E94C8
:1066200008AF0FCFDFF8748045460FC50FCF0FC5F9
:1066300097E80F0085E80F002046494609F042FE22
:10664000049B0133181841F10001C8E904013046E8
:1066500015B0BDE8F08F98F81030002B069B14BFE2
:106660000021194601222B46FEE6204649460AF043
:1066700035F9BAF1010B18BF4FF0010B6BE7B7F119
:10668000FF3F08BFB5F1FF3F00F0848003954FF056
:10669000000B6BE7B01C002010200020B81F00206A
:1066A000B3F1FF3F08BFB2F1FF3F19D1BBF1000FBB
:1066B00028D1B8F81030BBBBBAF1010F9ED1621ED1
:1066C00069F1000305200AF0CDF900283ED088F8D2
:1066D00011A093E7B3F1FF3F08BFB2F1FF3F11D024
:1066E00009F072FB9FED307BD8F818104FF0804214
:1066F000002388ED027B0B60C2F80835D6E7CCF1A9
:10670000000255E7069BEA1A67F1000305200AF02C
:10671000A9F900283FF40DAF98F81030002BCBD129
:10672000012388F81030C7E705200AF041F900235B
:10673000A8F81030C0E71A46029B1A44921B37E7AC
:106740002046494693460AF0C9F804E7D8F81830BD
:106750004FF08042C2F808A5C3F800A04EE709F048
:106760002DFB11F01DFEC8E9020138E740F231416E
:1067700070200CF05BFB4FF4866170200CF056FB30
:106780004FF4FB6170200CF051FB40F2BF717020A0
:106790000CF04CFB40F23B7170200CF047FB40F6D4
:1067A000B20170200CF042FBFFFFFFFFFFFFFFFF75
:1067B00010B509F07BFF164B164C18780CF010FD45
:1067C000D4E90223B3F1FF3F08BFB2F1FF3F0CD081
:1067D00009F0FAFA9FED0C7BA1694FF0804200238B
:1067E00084ED027B0B60C2F80835238A13B90023BD
:1067F000237510BD05200AF0DBF800232382002357
:10680000237510BDAFF30080FFFFFFFFFFFFFFFF09
:10681000E81F00201020002080EA101404F0F0147B
:1068200080EA0410604081EA111404F0F01481EA57
:106830000411614082EA121404F0F01482EA041296
:10684000624083EA131404F0F01483EA04136340F3
:1068500080EA102404F47F4480EA0420604081EA46
:10686000112404F47F4481EA0421614082EA122465
:1068700004F47F4482EA0422624083EA132404F48D
:106880007F4483EA0423634081EA500404F05534D2
:1068900080EA4400614083EA520404F0553482EAFD
:1068A0004402634082EA900404F0333480EA8400B6
:1068B000624083EA910404F0333481EA8401634046
:1068C000704700BF82EA900404F0333480EA840009
:1068D000624083EA910404F0333481EA8401634026
:1068E00081EA500404F0553480EA4400614083EAB0
:1068F000520404F0553482EA4402634080EA1024D2
:1069000004F47F4480EA0420604081EA112404F406
:106910007F4481EA0421614082EA122404F47F4426
:1069200082EA0422624083EA132404F47F4483EA67
:106930000423634080EA101404F0F01480EA041089
:10694000604081EA111404F0F01481EA04116140FE
:1069500082EA121404F0F01482EA0412624083EA1C
:10696000131404F0F01483EA04136340704700BF6B
:106970002DE9F14F94464FEA930B8A68CB6808687B
:106980004968FFF749FF0BF1060E33E083EA134431
:1069900080EA134582EA134746BA96EA34446040D7
:1069A00000F00F1684EA063420F00F1684EA161061
:1069B00054BA94EA0106724002F00F1486EA0436D3
:1069C00022F00F1486EA14124CBA6540694001F0B7
:1069D0000F1485EA043521F00F1485EA14115CBA0E
:1069E00067407B4003F00F1487EA043723F00F144D
:1069F00087EA1413BCE8F0006040694072407B40B5
:106A000000F0E03400F0103500F00F3040EA5400A0
:106A100040EAC50080EA900404F0332480EA840050
:106A2000604001F0E03401F0103501F00F3141EA2F
:106A3000540141EAC50181EA910404F0332481EA5A
:106A40008401614002F0E03402F0103502F00F32B0
:106A500042EA540242EAC50282EA920404F0332474
:106A600082EA8402624003F0E03403F0103503F060
:106A70000F3343EA540343EAC50383EA930404F063
:106A8000332483EA8403634081EA324787EA13456B
:106A900081EA354690EA060484EA034B82EA1B4207
:106AA00080EA044484EA054483EA144A85EA1444EB
:106AB0008BEA044B84EA374481EA0B4181EA1641B0
:106AC00004EA0A00454082EA04082BEA0800414033
:106AD0008AEA0B0602EA060084EA34438AEA3A4666
:106AE00003EA060778404540414088EA38478BEA88
:106AF0003B4007EA000985EA090583EA07094640A1
:106B000006EA0906714085EA010005EA3546464075
:106B100006EA314181EA304181EA364606EA3046EA
:106B200086EA3546344008EA010886EA01052A402B
:106B300086EA364003405A4081EA31431F407C4098
:106B400080EA030709EA070988EA0908544088EA45
:106B5000020806EA0A0601EA0B018AEA0B0215405E
:106B60008AEA3A42104045408BEA3B4003405E408F
:106B70004240174079404D404E40E443F64386EA98
:106B800018435D4085EA054083EA134386EA0341E2
:106B900083EA384284EA114383EA04435FEA3343D9
:106BA000BEF1010E3FF6F2AE1ED4BCE8F00060402C
:106BB000694072407B4020BCFFF784FE286069601A
:106BC000AA60EB60BDE8F08F2DE9E0414FF2F002E2
:106BD00080EA1031114080EA0130484041088208C3
:106BE000C3084FF0000E4FE700F0113001F01131F3
:106BF00002F0113203F0113340EA410040EA820012
:106C000040EAC3004FF2F00280EA1031114080EAFE
:106C100001304840BDE8E0812DE9F04F02F11C054C
:106C20000646074600EB850851F8040B043A46F87F
:106C3000040BF9D14FF0010CFFF7C6FF5FEA3020DB
:106C400080EA0C001ECF41404A4053405C401EC6C3
:106C50002000464517D04FEA4C0C1CF4807F18BF2B
:106C6000ACF1E50C2C2DE7D03C2D06D1FFF7ACFFA5
:106C700006CF41404A4006C6100006CF41404A4078
:106C800006C61000D8E736E90F00FFF7C5FD043D42
:106C900086E80F00F7D1BDE8F08F00BF2DE9F14F76
:106CA00003F11C0402EB840C4FEA930B8A68CB6857
:106CB00008684968FFF7B0FD3CE9F00060406940B2
:106CC00072407B400BF1060E4EE083EA134480EAEB
:106CD000134582EA134746BA96EA3444604000F00E
:106CE0000F1684EA063420F00F1684EA161054BA00
:106CF00094EA0106724002F00F1486EA043622F08C
:106D00000F1486EA14124CBA6540694001F00F1462
:106D100085EA043521F00F1485EA14115CBA674046
:106D20007B4003F00F1487EA043723F00F1487EA3F
:106D3000141344BA44404DBA4D4056BA56405FBA57
:106D40005F4087EA174886EA174B84EA17464FEAFE
:106D500038488BEA1B4485EA1B4788EA1B4580EAD2
:106D60003440694072407B4000F0703400F0803560
:106D700000F00F3040EA440040EAD50080EA900479
:106D800004F0332480EA8400604001F0703401F0A4
:106D9000803501F00F3141EA440141EAD50181EA31
:106DA000910404F0332481EA8401614002F07034DC
:106DB00002F0803502F00F3242EA440242EAD50284
:106DC00082EA920404F0332482EA8402624003F0EF
:106DD000703403F0803503F00F3343EA440343EA91
:106DE000D50383EA930404F0332483EA84036340E5
:106DF000C943DB4381EA000483EA044686EA0201D0
:106E000083EA014382EA334583EA14435C4084EA1F
:106E100000077FEA040A8AEA024A8AEA010B87EA43
:106E200011488AEA374A80EA060181EA1A418AEA69
:106E3000030A04EA0A00454088EA040707EA0B004F
:106E400041408AEA0B0608EA060084EA34428AEAEC
:106E50003A4602EA060358404540414087EA374334
