:020000040000FA
:10000000383000208D0B00006D360000790B0000A9
:10001000790B0000790B0000790B0000790B0000D0
:100020000000000000000000000000005D0C000067
:10003000790B000000000000790B0000790B000034
:10004000950D0000950D0000950D0000950D000028
:10005000950D0000950D0000950D0000950D000018
:10006000950D0000950D0000950D0000950D000008
:10007000950D0000950D0000950D0000950D0000F8
:10008000950D0000950D0000950D0000950D0000E8
:10009000950D0000950D0000950D0000950D0000D8
:1000A000950D0000950D0000950D0000950D0000C8
:1000B000950D0000950D0000950D0000950D0000B8
:1000C000950D0000950D0000950D0000950D0000A8
:1000D000950D0000950D0000950D0000950D000098
:1000E000950D0000950D0000950D0000950D000088
:1000F000950D0000950D0000950D0000950D000078
:10010000950D0000950D0000950D0000950D000067
:10011000950D0000950D0000950D0000950D000057
:10012000950D0000950D0000950D0000950D000047
:10013000950D0000950D0000950D0000950D000037
:10014000950D0000950D0000950D0000950D000027
:10015000950D0000F8B5044603F009FA002868D0B0
:100160004CF25030D4E9006503F018FA002331490D
:10017000314A324F3248C1F80035C2F80035C7F86D
:100180000035C0F80035C1F80035C2F80035C7F8B1
:100190000035C0F80035C1F800354FF0FF31C2F826
:1001A000003502F5C032C2F8003502F58052C2F8BF
:1001B000003502F58052C2F8003502F58052C2F8CF
:1001C0000035A2F5B832C2F808134FF0E0221361EF
:1001D000536193619A0002F16042013302F561427A
:1001E000102BC2F88010C2F88011F3D1154B5A6A57
:1001F00022F4E0225A6272B69C60002383F30A88DC
:1002000083F30B8886F3088883F30988BFF34F8F45
:10021000BFF36F8F83F31488BFF36F8F83F310885E
:1002200083F3118883F31388BFF36F8F45F00105C3
:100230002847F8BD008000500090005000B00050EA
:1002400000C0005000ED00E008B500224FF0502340
:1002500040F0C000C3F820054FF45520C3F81C251A
:1002600003F085F918B14FF45520FFF773FF4FF4F1
:10027000004003F07CF918B14FF40040FFF76AFF2B
:10028000024C204603F08AF9FBE700BF40420F0012
:100290004FF050232DE9F047D3F800446F48C3F8DE
:1002A0000044D3F81C5588B005F0F003B02B06D0FD
:1002B00003F074F914F01A040AD003F084F905F07D
:1002C0000F0503F06BF9022DF4D90220FFF7BCFFF4
:1002D0004FF05023D3F82025A52A02D1C3F820459A
:1002E000EBE75F4C204603F083FC0028E5D0226951
:1002F000A1681368204643F0800313600B684FF039
:100300000112072198470028D7DB564B07212046CA
:100310001B690A2503F017F90721204603F013F99A
:100320000128CAD144F6206003F038F9013DF3D129
:1003300003264FF006094FF004084B4B4B4F029336
:100340008DF80C504FF0CC720723CDE90623002323
:1003500004A91A4602A8CDE9049802F06FFEB8423B
:1003600006D04FF4FA6003F019F9013EEAD1A4E790
:1003700002A802F09DFE352300258DF806301523D6
:10038000029C4FF0010AC4F88835C4F84851D4F8EB
:100390004831C4F80451D4F80431C4F82451D4F8D5
:1003A0002431C4F86051D4F860310DF10603C4F86B
:1003B00044354FF48073C4F848A54FF4A471C4F8D1
:1003C00000322046C4F820A0C4F808A08DF80750D9
:1003D00003F0E6F8A8421CDC00254FF0010A4FF4B8
:1003E00082712046C4F814A003F0DAF8D4F8C434BB
:1003F00002A8C4F8C43402F06BFE02A802F086FE24
:10040000002DAED09DF807305B067FF556AF504605
:100410005CE7C4F80451D4F80431C4F82451D4F88A
:1004200024310DF10703C4F834354FF48053C4F878
:1004300038A54FF48271C4F800322046C4F820A0D9
:10044000C4F800A003F0ACF80028C5DDD4F8C4540B
:10045000C4F8C454B5FA85F56D09BEE7A08601005D
:10046000C03C00000025845000B000500000AD0BDF
:10047000014B1B68184700BF0020002007B50B4642
:10048000002102460091034800F006F803B05DF831
:1004900004FB00BF710400002DE9F04F82464FF0CD
:1004A000000989B01D46531E00910193019B5878A5
:1004B0005C1C252819D100274FF0FF321E46BB4691
:1004C0003B461446023630780196392855D81F2805
:1004D00014D8002800F0E18100992520D047009928
:1004E0003078D04709F10209E0E7002800F0D58113
:1004F0000099D04709F101090194D7E7A0F1200143
:100500001929E9D80FF2040C5CF821F075050000F8
:10051000D9040000D904000075050000D9040000CA
:10052000FD050000D9040000D9040000D904000032
:10053000D90400003D06000075050000D904000044
:100540004F06000009060000D90400001106000053
:100550002F0600002F0600002F0600002F060000C7
:100560002F0600002F0600002F0600002F060000B7
:100570002F06000007460136A5E7582800F0E48062
:10058000A0F163015FFA81FCBCF1170FA4D8172911
:10059000A2D80FF2080C5CF821F000BFDD070000C4
:1005A00075060000D9040000D9040000D904000039
:1005B0005506000075060000D9040000D9040000AB
:1005C00055060000D9040000D9040000D904000039
:1005D00023070000D9040000D9040000B10700007F
:1005E000D904000075060000D9040000D9040000F9
:1005F00023070000D90400005506000025200099BB
:10060000D04709F1010951E700220BF0FE0BB2E7D8
:10061000002C0CDA002A0CDABBF1000F00F0348158
:100620000A2124EAE47401FB0404303CA3E7002A15
:10063000F6DB0A2101FB0202303A9CE7002A55F85A
:10064000041B80F22481002980F223814C424FF068
:10065000020B90E7682803D1682B06D148238AE76C
:100660006C2802D16C2B00F01681002B7FF434AF84
:10067000034680E77A2B09D175282B6805F104061B
:100680001DD1202F46D1874D013C1DE06C2BF3D0AE
:100690004C2BF1D1073525F00705752805F1080623
:1006A000D5E9003108D10029EBD04FF003086FF0F5
:1006B00002037D4F033C40E0B1EBE37FF5D1002B1B
:1006C000DFDA7A4D5B42013C00210A200DF11E0E5B
:1006D000B3FBF0F700FB173C0CF1300C0EF801CD2A
:1006E0009C46BCF1090F3B460F4601F1FF31EFD8A4
:1006F00007F12003C7F10108002A0DEB0307A7F15A
:10070000030765DA1BF0010F74D1A2EB0803A4EB19
:10071000080413E02B2F0ABF654D664D04F1FF342A
:10072000D2E770280FD12E4656F8041B09BB4FF0B4
:1007300005086FF00403604F053C5E4D1BF0020F8F
:1007400067D1A3465DE078206C2B03D12E4656F886
:10075000041B0AE04C2BF9D1073525F007052E467E
:100760006B6856F8081B002B9FD1232F1ED18306E0
:100770001AD5524D023C002700F06003393B0DF1C1
:100780001E0001F00F0CBCF1090F88BF9C440CF156
:10079000300C0F2900F801CD4FEA111E07F1FF3C84
:1007A000A6D967467146ECE7454DE3E7414DE2E7E0
:1007B0002E4656F8047B0292384602F0ABFF029AAE
:1007C0008046002A02DB9042A8BF90460022394DA5
:1007D000A2EB0803002B9ADDA41AAFE72E4656F8C9
:1007E000043B4FF001088DF81430013C4FF0FF330B
:1007F00005AFA2E72246EBE7029320200099D047FD
:10080000029BBBF1010BF7D524EAE472013C914451
:10081000A41AAB4606E0CDE902230099D047029A1C
:10082000039B93465A4612F8010B0028F3D11A464F
:10083000013A16D5002BACBFC5EB03056D4243460C
:10084000013B16D5B8F1000FA8BF454427464D44DB
:10085000013F15D5002CA8BF2D1905EB0B09354616
:1008600024E6CDE9022330200099D047DDE90223B8
:10087000DEE70293009917F8010BD047029BDFE7F0
:1008800000992020D047E3E74FF0010B73E60A46BA
:1008900071E60C466FE64C236DE6484609B0BDE8AC
:1008A000F08F00BF98410000A24100009641000077
:1008B0009A4100000E420000A64100009C41000049
:1008C0009F410000014B036000207047E83F00009B
:1008D00008B5044802F09DFEBDE80840024802F059
:1008E00098BE00BFAC410000E1410000014802F0A9
:1008F00023BD00BFE83F000030BFFFF7FDBF00BFD2
:10090000154B9A6A12F0007F9A6A14BF1E201D20B0
:1009100012F0807F9A6A18BF1F2012F4801F9A6A13
:1009200018BF022012F4002F9A6A18BF212012F477
:10093000802F9A6A18BF222012F4003F9A6A18BFCB
:10094000232012F4803F9A6A18BF24206FEA0242E3
:100950006FEA12429A62704700ED00E010B5194B41
:100960000246986A9C6A10F4805F14BF1720162014
:1009700014F4006F9C6A18BF1820A40509D5986B61
:10098000986A000404D51AB19A6A22F400429A6265
:1009900019200C4B9A6A12F4806F9A6A18BF1A20B9
:1009A000D2050CD49B6A13F4005F18BF1C20054AC3
:1009B000936A43F47F43936200230B7010BD1B20A6
:1009C000F5E700BF00ED00E010B51C4B0246986A49
:1009D0009C6A10F0100F14BF1120102014F0080FA3
:1009E0009C6A18BF1220A40709D5586B986A0006A4
:1009F00004D51AB19A6A22F080029A6213200F4B32
:100A00009A6A12F0010F9A6A18BF142012F0200F90
:100A10009A6A18BF1520D40658BF9B6A074B9A6A7A
:100A2000920642BF5A6A22F400525A629A6A42F00F
:100A3000FF029A6200230B7010BD00BF00ED00E0C2
:100A400070B5444B06465B6800258AB0C3F30803C3
:100A500085F31188BFF36F8F02F07F40B0F17F4FB5
:100A600011D102F00C0008280DD010074CBF0E4623
:100A700001250022033B8DF80720032B05D8DFE872
:100A800003F01E5C60592E46F3E700249DF8073002
:100A90009BB92022314602A802F06AFE099B002D74
:100AA00053D0C3F3080222B96FEA53236FEA4323FA
:100AB0000993204602A902F0CFFD0AB070BD254B74
:100AC000DA6A9107E1D4DA6A002ADEDBDA6A5200D8
:100AD000DBD55A69B16942F480725A61BFF34F8F16
:100AE000BFF36F8F5A6931F8021C22F480725A6189
:100AF000BFF34F8FBFF36F8F4DF60272914209D053
:100B00009A6AD2B242B101200DF10701FFF75CFFF2
:100B10000446BBE73468B9E79A6A12F47F4F05D000
:100B200001200DF10701FFF719FFF1E79B6AB3F50B
:100B3000803FAAD3FFF7E4FEEAE700200DF10701AA
:100B4000E4E700200DF10701EDE723F4FF7323F044
:100B50000103ADE700ED00E0064B5A6942F01002D8
:100B60005A615A6942F480625A615A6922F0080255
:100B70005A61704700ED00E0EFF30880EFF3098160
:100B800001B57246FFF75CFF01BD00BF002080F396
:100B90001488BFF36F8F002080F30A8880F30B88DE
:100BA0000F4880F3088801F0CBF800200D49086059
:100BB000BFF34F8F00F02CF8202080F311880A48F3
:100BC0004FF40061401880F30988EFF3148002218C
:100BD000084380F31488BFF36F8F00F097F800008C
:100BE0003830002094ED00E0382200200023184621
:100BF0000649D1F89020C2F30722934200DB7047E8
:100C0000C1F89830C1F8A0000133F6E700ED00E02C
:100C100010B572B6002484F31388FFF7E7FF23466C
:100C20004FF0FF300C4A03F120010133102B42F842
:100C30002100F8D100234FF0FF30074A03F1600193
:100C40000133102B42F82100F8D162B6BFF34F8F69
:100C5000BFF36F8F10BD00BF00E100E01EF0040F76
:100C60000CBFEFF30880EFF30980816911F8021CD3
:100C70000229FFD001B5724602F0F4FC01BD00BFAD
:100C800040B2002807DB01234109034A00F01F009E
:100C9000834042F82130704700E100E040B2002874
:100CA0000CDB01220649430900F01F00824020337B
:100CB00041F82320BFF34F8FBFF36F8F704700BF02
:100CC00000E100E040B2002801F10101ACBF00F1F9
:100CD0006040064B4FEA4111C9B2ABBF00F561401D
:100CE00000F00F0080F800131954704714ED00E075
:100CF000044B054A23F07F039360BFF34F8FBFF38C
:100D00006F8F70470000000000ED00E008B5FFF7AE
:100D1000EFFF074AD2F8883023F47003C2F8883016
:100D200002F054FA02F09CFA00F028F802F05AFAA5
:100D300000ED00E0154680B506460C46002282F321
:100D40000B88084FA7F5C06888F30B8887F30988DC
:100D5000002005498847204629461A46B0470348DF
:100D60008047FEE7383000208536000093360000CB
:100D70001022014B1A61704700ED00E00023202192
:100D80000348C2180133452B82F80013F9D170478C
:100D900000E100E008B5EFF30583064A103B02EBE3
:100DA000C30152F8330049688847BDE8084002F0A3
:100DB00064BC00BF203D00000121024B024A0348F1
:100DC00000F0ECB80000072000200020F03F0000F9
:100DD00010B50C7A0B6804F01F0223F01F031A43AE
:100DE000CB68640923F01F03054943EA440343F039
:100DF0000103C1F89800C1F89C20C1F8A03010BDD3
:100E000000ED00E010B5074BD3F89030C3F3072393
:100E1000013B984202D8FFF7DBFF10BD6FF01500D1
:100E2000FBE700BF00ED00E02DE9F04F0F46144650
:100E300006464FF000084D4D85B0B84580F29280CF
:100E4000D6F80490B9F1000F36D0B9F11F0F40F277
:100E5000878019F01F0F40F08380D6F800A01AF0A9
:100E60001F0F7DD1504602F033FC834609EB0A0088
:100E7000013802F02DFC834572D11BF1160F6FD0A3
:100E80005C456DDDC5F898B0D5F89C10C5F898B0F4
:100E9000D5F8A03021F01F0143F01F0AD6E9003237
:100EA0001A44994202F1FF391ED1CA4508D1314690
:100EB0005FFA8BF002F015FC08F101080C36BCE774
:100EC0003146C5F898B0D5F89C3022F01F0203F0E7
:100ED0001F031343C5F89C30E0B202F002FC10F18E
:100EE000160F3DD0441CE7E7C5F898B0D5F8A02010
:100EF000013B23F01F0302F01F021343CA45314692
:100F0000E0B2C5F8A030E8D002F0EBFB10F1160F0C
:100F100026D0C5F898B0D5F89C209DF808300AF185
:100F2000FF3A62F304038DF80830D5F8A0309DF83D
:100F300008205B0863F347128DF80820D6E90032D9
:100F40001344009323F01F035344A3EB0903013020
:100F500023F01F036946C0B20393FFF753FFBEE7B8
:100F60006FF01504204605B0BDE8F08F00ED00E0FD
:100F70000522044BC3F89420BFF34F8FBFF36F8F4C
:100F8000704700BF00ED00E0BFF35F8F0022024B0F
:100F9000C3F89420704700BF00ED00E010B5034C8B
:100FA0002278FFF741FF207010BD00BF30220020E3
:100FB000F0B54149414CD1F890302568C3F307237F
:100FC0009D4287B075D80020FFF7DEFF3C4BC1F88B
:100FD000C030854216D13B4C01A82570FFF772FC4A
:100FE00000250646384FAE4213D1002023783249FF
:100FF000D1F89020C2F30722934254DBFFF7B8FFE9
:1010000000202FE0616801EB0011FFF7E1FE0130E5
:10101000DFE70199280101EB0513DA683A40B2F5E0
:10102000001F21D0B2F5800F2BD0B2F5801F38D130
:101030005A689B680958013B22F01F0003440120B5
:10104000844623F01F0340EA4C10CDE902218DF8BD
:10105000100002A920780593FFF7D4FE00281DDABE
:101060006FF0150007B0F0BD5A689B680958013B46
:1010700022F01F0003444FF0020C012023F01F0355
:10108000E1E75A689B680958013B22F01F000344BE
:101090004FF0000C022023F01F03D4E72378013324
:1010A000237001359FE7C1F89830C1F8A0000133E3
:1010B0009EE74FF0FF30D5E700ED00E0FC3F000079
:1010C000AAFF4400302200200000F0FF054B03EB94
:1010D0008000D0F8003223F0E04343F04053C0F8E2
:1010E0000032704700258450012208B50B4B0C4993
:1010F000C3F8002502230020C1F8D036FFF7E6FF31
:101100001046FFF7E3FFC1F80427C1F80429C1F82E
:10111000002BBDE8084000F0A5B800BF001000504B
:101120000040005007B50DF1070000F069FF0F4BBC
:10113000984218D14FF480620D4B0E49C3F8B82580
:101140004FF40062C3F83C259DF8070002F07CFCD8
:101150009DF80700084902F072FC01209DF8073055
:10116000984000F047FF03B05DF804FB0000AD0BB2
:1011700000A002502CA0025028A1025048B1054BFB
:10118000054A1B68B3FBF2F35843044B43F00103D9
:10119000184770470420002040420F00D03F000055
:1011A000002170B5104C114D114E000714F8013B91
:1011B00003F01F025B090FD0012B0FD1334603EB65
:1011C0008203D3F80022013122F0E04202430429D5
:1011D000C3F80022EAD170BD2B46F0E7002380322D
:1011E00053F82230FFDE00BF224200000025845069
:1011F000002884502DE9F041064601200D46FFF7F6
:10120000CFFF4FF47F03D3F83021D3F83431072ACE
:1012100020D1023B032B02D8114AD35CD3B14FF04B
:1012200050244FF0010800270520C4F81886C4F8A0
:10123000147600F091FE4046C4F8148600F08CFE4F
:10124000C4F81476C4F8187630462B46BDE8F04151
:10125000002118474FF050230022C3F81426F3E76B
:101260001E4200000149024802F0E0B9244000009B
:101270008C20002000F1744000F5A6000A289ABFD7
:10128000024B33F910006FF00F00704780410000EF
:1012900000487047304000000268154BFF2A08BF25
:1012A0004FF0FF32C3F824254268FF2A08BF4FF0F1
:1012B000FF32C3F828258268FF2A08BF4FF0FF32AB
:1012C000C3F83025C268FF2A08BF4FF0FF32C3F8C9
:1012D00034250269FF2A08BF4FF0FF32C3F83825D2
:1012E0004269FF2A08BF4FF0FF32C3F83C25704720
:1012F00000B0025038B50F4B044699420FD1EFF3BE
:101300001180202383F31288BFF36F8F1D4623784B
:1013100033B10023237080F31188BFF36F8F38BD82
:1013200002F0BFF9EFF3118085F31288BFF36F8FDE
:10133000EDE700BF0000AD0B2DE9F04F8246884677
:101340001C46174685B0002A00F09180002B00F063
:101350008A800029C0F28B804268CB18D26A9342FF
:1013600000F28580C8F1000505F00305006902F070
:101370009AFAA54228BF25467B4203F0030307F0F3
:10138000030658BF5E42764206F00306A64228BF17
:101390002646631BA41B24F0030423F00309A14584
:1013A000C8BFA14603F0030BC8BFA3EB040BB9F100
:1013B000000F18D0BB1908EB0502494618460193E7
:1013C00002F0E0FB04460146DAF81000FFF792FF56
:1013D000284A94423DD1B54205D0019B4A46194660
:1013E000781902F0AEF9C5B1C5F104060421A8EBE5
:1013F000060202A802F0C6FB04460146DAF8100015
:10140000FFF778FF1B4B9C4223D106F108032A46C5
:1014100038460DEB030102F0ABF9BBF1000F17D01A
:10142000082108EB05024A440DEB010002F0AAFB7B
:1014300004460146DAF81000FFF75CFF0D4B9C42B2
:1014400007D109EB05005A4602A9384402F090F989
:10145000084CDAF8100002F01CFA204605B0BDE88E
:10146000F04FFFF707BF184605B0BDE8F08F6FF0EB
:101470001500F9E70000AD0B2DE9F3470F460546CF
:101480001E4690464168002A79D0002B77D0042B65
:1014900001D9B30773D117F0030470D1002F6EDBAD
:1014A000CA6ABB1993426AD8286902F0FCF920463F
:1014B00002F0DAF9044648B1012002F0D5F92869B2
:1014C00002F0E7F9204602B0BDE8F087032E1ED8EF
:1014D00004213A460DEB010002F054FB044601469C
:1014E0002869FFF707FF274B9C4235D1324641461A
:1014F00001A802F03DF904213A460DEB010002F08B
:101500003EFB044601462869FFF7F4FE24E008F09C
:101510006043B3F1005F02D118F0030F2BD0DFF866
:1015200064A0042EB14628BF4FF0040941464A4644
:1015300001A802F01DF93A46494601A802F01FFB36
:10154000044601462869FFF7D5FE544504D1B6EBA1
:101550000906C8444F44E4D12046FFF78BFE0446F9
:10156000012002F081F90646286902F092F9002C68
:1015700008BF3446A6E73A4631464046BFE76FF01B
:1015800015049FE70000AD0B2DE9F047C1F30B03F5
:1015900007460E461546D0F804C0002A67D0C2F3AD
:1015A0000B0050EA030462D1002960DB8B18DCF8E1
:1015B0002C2093425BD8386902F075F92046D7F8A1
:1015C000048002F051F9044600284AD1DFF8A490C3
:1015D000D8F82C30AB4216D102F0D7FAAA4604460E
:1015E00021463869FFF786FE4C4521D15644A5EBCC
:1015F0000A0502F01EF9041E30DB14F00104F8D1D4
:10160000002DE5D118E0B5F5803F09D3B3B2D3B9C9
:101610003146012001F030FC4FF4803A0446DFE708
:10162000B5F5805F0FD214493869FFF763FE124C9D
:101630002046FFF71FFE0446012002F015F9002C9A
:1016400008BF04460DE0C6F30B000028EBD131467D
:1016500001F012FC4FF4805A0446C1E7012002F069
:1016600003F9386902F015F92046BDE8F0876FF0FC
:101670001504F9E70000AD0B0400AD0B2DE9F047B0
:10168000436890B05D6B0746002128460AAA02F025
:10169000B7F9041E7BDB0A9B2A681979186800F0E9
:1016A00093FA041E73DB002201212B20FFF70AFBB3
:1016B00000264FF05023C3F8B865072002F093FAD4
:1016C000D7F804803A694046564901F02FFBFFF7EE
:1016D000D1FD041E51DB544D0AAC0FCD0FC495E86B
:1016E0000300AB230DF1040984E803000196C9E966
:1016F00001668DF804304D4B0AA8D3F8242504ADBB
:10170000D2B20492D3F82825D2B20592D3F830256C
:10171000D2B20692D3F83425D2B20792D3F8382544
:10172000D2B20892D3F83C35DBB20993FFF7B4FD8F
:10173000012001F079FB01462846FFF7ADFD3C4B47
:10174000994228D13146484602F042F8041E14DB83
:101750001E2002F048FA4FF0030A9F2331460AA8E0
:10176000CDE90A66CDF81090CDF814A08DF8283098
:101770000C9502F02DF8041E10DA4FF050230222CF
:10178000C3F8B82501F06EFB08B101F059FB204603
:1017900010B0BDE8F0876FF00404EEE7524649460A
:1017A00008F1300001F0BDFF0446002834D17A680A
:1017B000537F023B012B2DD9167F023E022E8CBF98
:1017C0000026012602F035F8002828DBC2B2C0F35B
:1017D00080108642D1D00023012182F040020AA865
:1017E000ADF800300A938DF80020CDF810D00591A7
:1017F0000C938DF828100B9501F0EAFF04460028A1
:10180000BBD102F016F8041E01DBE307F9D404EAA9
:10181000E474B2E70126D5E76FF01204ADE70446A1
:10182000ABE700BFBB370000A03F000000B0025094
:101830000000AD0B004870479C400000F8B50E4614
:101840001946304617461D4602F042F8B8B145EA3F
:10185000060414F0030412D14DB12B19032BA6EB8F
:10186000040006D8074AD2F80034DB07FBD5002075
:10187000F8BD3B1B196800F0E7FF043CEDE76FF093
:101880001500F5E700900350F0B51646426801F0E8
:101890001F04107B87B044EA40141069002871D0FF
:1018A000B6F5001F02F1100506D12146284602F0C8
:1018B0004EF9002007B0F0BD0027B6F5800F01A853
:1018C0000197476039D1B3F1007F14BF052304238A
:1018D0008DF804300023CDE90403039393680DF1E0
:1018E000030723FA01F111F001013DD1B6F1A07F08
:1018F0003AD104F01F03620903F1800328D0012AC2
:1019000046D1254A52F82330DB072DD43A462146EA
:10191000284600F0E5FD214B98421BD00297214656
:10192000284603AA00F094FC1D4B98422DD10122B9
:101930002146284600F02CFEBBE7B3F1C06F05D06E
:10194000B3F1007F14BF01230223C1E70323BFE7E4
:10195000144AD7E73946284600F012FE104B984249
:10196000DCD06FF00B00A5E73A462146284600F090
:10197000B7FD0B4B9842D2D128469DF8031000F0DA
:10198000F7FDCCE76FF0850094E76FF0150091E765
:1019900051F82330FFDE00BF002884500400AD0B57
:1019A0000000AD0B002584504209034670B502D0FB
:1019B000012A17D070BD0D4E326951680029F9D047
:1019C000012503F01F030C689D400029F2D08A68AE
:1019D0002A4002D030464B6898472CB123682146F4
:1019E0001C46F2E7024EE7E72346F8E7C03C00005A
:1019F000A03C000038B545682B69B3B110352846C6
:101A000000F0ACFD044680B90146284600F082FD96
:101A1000084B98420BD122462846074900F05AFD50
:101A2000224605210D20FFF74DF9002038BD6FF04B
:101A30000400FBE70000AD0BA91900002DE9F043FD
:101A400040F206354668D00648BF0320337B02EAE1
:101A5000050558BFC2F3401087B001F01F07B5F568
:101A6000837F144647EA43178DF8030043D00FD80D
:101A7000062D18D007D8B5B1022D3ED06FF0150055
:101A800007B0BDE8F083B5F5807FF7D101250AE006
:101A900040F20222954232D0B5F5407F31D0B5F503
:101AA000007FEBD1022522032DD5012372688B40E4
:101AB0009360326982BB07F01F037F092AD0012F90
:101AC00077D13E4A02EB830284F48033D2F80012CD
:101AD000C3F30043C4F3404444EA430421F4706177
:101AE00044EA800421F00F0144EA05230B43C2F8C5
:101AF00000320020C4E70725D5E70425D3E70525F4
:101B0000D1E70325CFE7630341BF012372688B4010
:101B1000D360CEE72A4AD5E71036394630460DF174
:101B2000020200F0DDFC14F4403F80460CD139463F
:101B3000304602F00AF8234B9845DAD130469DF83A
:101B4000021000F015FDD4E74FF0000901AB394653
:101B5000304603AACDE90439CDE90199CDF80C90BE
:101B600000F076FB174B984288D114F4003315D05F
:101B70009DF8033084F48034C4F300448DF80E30B3
:101B800039464B46304603AA8DF80C508DF80D406F
:101B900000F01EFC0B4B9842CDD06FE7CDE904332B
:101BA00039460DF10303304603AA039300F050FBBE
:101BB000F0E7803352F82330FFDE00BF0028845066
:101BC000002584500000AD0B2DE9F04F884600261B
:101BD00040F2FF194FF0010BDFF834A1DFF834E1D8
:101BE000F3B2984502D80020BDE8F08F50F82640A7
:101BF000C4F3C3210829C4F308037DD8464D240E3D
:101C00000B3C4B4508BF4FF0FF33695C172C76D86F
:101C1000DFE804F00C3D757575757575757575752E
:101C2000757575757575454B56595C5FC2F8083505
:101C300019B15C1C5BD10136D2E7591CFBD00024E2
:101C40000621254650F826C00CF40047002F1CBF83
:101C50000124002503F01F075B094BD0012B51D154
:101C6000734603EB8703D3F80072CCF3412C0902CF
:101C700027F4433741EA8C0127F44377294327F0BF
:101C8000030741EA44013943C3F80012D3E7C2F81D
:101C90000C350029D1D05F1CCDD0002423E0C2F840
:101CA00024355C1CC7D0012422E0C2F828355D1C15
:101CB000C1D05C0910D0012C17D000239B60FFDE3F
:101CC000C2F83035EDE7C2F83435EAE7C2F8383506
:101CD000E7E7C2F83C35EAE70D4D03F01F040BFAC5
:101CE00004F4AC6001242546ACE77546F5E7002412
:101CF0000025A7E75346B4E76FF0150074E76FF0CF
:101D0000850071E70023803753F82730D7E700BFFD
:101D10000025845000288450614200004FF47F0366
:101D2000D3F83021D3F83431072A05D1023B032BF5
:101D300002D8024AD05C704700207047724200000F
:101D400008B5FFF7EBFF58B1784BD3F8202A3AB922
:101D50000D21C3F8201A0121C3F81C19C3F81C294E
:101D60000022D30003F57F03D3F80013013107D01D
:101D7000D3F800130132D3F80433202A0B60F0D1DA
:101D8000FFF7CCFF002840F0B980FFF7C7FF40B154
:101D9000674B684AC3F830254FF050230122C3F83F
:101DA00058254FF47F03D3F83021D3F83431072A74
:101DB00009D1023B032B06D85F4AD35C1BB100223A
:101DC0005E4BC3F84C25FFF7A9FF50B14FF05023ED
:101DD000D3F80024D00742BF0022C3F81421C3F86F
:101DE00018214FF47F03D3F83021D3F83431072A78
:101DF00009D14FF05023D3F80024D10744BF6FF02E
:101E00000102C3F80024FFF789FF18B16522474B90
:101E1000C3F80C274FF47F03D3F83021D3F83431C3
:101E2000072A16D1454BD3F82034002B11DA4FF096
:101E300050230322C3F8182501229A60D3F8042105
:101E4000002AFBD00022C3F804210122DA60C3F883
:101E500018254FF47F03D3F83021D3F83431072A03
:101E600023D1023B032B02D8354AD35CEBB17E224F
:101E70002E4B2F49C3F80C27C3F83C297F23314A46
:101E8000C2F818310023C1F8043EC1F8083E01F53C
:101E90004821C1F81031C2F82431C2F82C3102F5C2
:101EA000FF1202F58052C2F8A032274B9A6AD2077D
:101EB0002CD501211E4AC2F80415D2F800140029BD
:101EC000FBD09A6A22F001029A62194BD3F80024DF
:101ED000002AFBD00022C3F80425D3F80024002AEE
:101EE000FBD0BFF34F8F1949194BCA6802F4E06267
:101EF0001343CB60BFF34F8F00BFFDE729220B4B8D
:101F0000C3F80C270322C3F83C273EE70F49D1F85A
:101F10008C2042F44062C1F88C2019680D4AC2F846
:101F20004415DB69C2F84C3508BD00BF00400050C5
:101F3000009003504400EFBE6E42000000200350AA
:101F40006A420000002000500080FF0000ED00E029
:101F50000400FA050060005048B1054B054A1B68B3
:101F6000B3FBF2F35843044B43F0010318477047A7
:101F70000420002040420F00E03F000030B504681C
:101F8000ACB1B4FA84F30122C3F11F03DBB29A406F
:101F900024EA0202D0E8EF5FA54204D1C0E8EC2FAA
:101FA000BCF1000FF6D1EAD102480B7030BD0248F7
:101FB000FCE700BF0000AD0B0200AD0B10B50368DD
:101FC000CB40DB0710D401238B40026843EA0201B7
:101FD000D0E8EF4F944204D1C0E8EC1FBCF1000FF1
:101FE000F6D1F2D1014810BD0148FCE70000AD0B6D
:101FF0000400AD0B014BC3F804057047007001509D
:102000000146014800F002B8082000200079024B88
:1020100003EB0010FFF7B2BF10200020036803F0AD
:102020001F025B09026004D0012B034818BF002087
:1020300070470248704700BF002884500025845034
:10204000034A4309D35C00F01F001844C0B2704734
:102050007642000070B50546FFF7F2FF0C4C0830E1
:1020600034F810300E46DA0508D5C3F3432304EBE9
:10207000C302284654F8333052689847A3682BB1FE
:1020800031462846E268BDE87040184770BD00BF81
:10209000C820002008B5FFF7D3FF034B083033F802
:1020A0001000400B08BD00BFC820002008B5FFF796
:1020B000C7FF034B083033F81000C0F3400008BDE1
:1020C000C820002008B5FFF7BBFF034B083033F8EA
:1020D0001000C0F3401008BDC8200020034611F0D6
:1020E000010010B5CCB20BD1A207C4F340000DD54E
:1020F000074A106A58601062003818BF012005E0D6
:1021000004490A6A1A600A62002AEDD010BD00BFB5
:10211000002884500025845010B5FFF791FF124A23
:10212000083032F81030D9051CD5C3F3432123F40D
:10213000F85322F81030002002F10E0434F8023F68
:1021400013F4807F03D0C3F3432399420AD00130B4
:102150003028F3D1002342F831300448BDE8104064
:10216000FFF72CBF10BD00BFC82000204021002079
:10217000F0B5044600200125064601F1A05101F505
:102180005151104A89008A420BD10F4BD3F87C2160
:1021900032B10022C3F87C21D3F87C3140F00040FA
:1021A000F0BD02F13043A3F551439B0805FA03F358
:1021B0001C4204D0176817B1166017681843043220
:1021C000E1E700BF00D1005000D00050F7B506464F
:1021D0000846FFF735FF1A4F00F1080537F81530AC
:1021E0000C46DB072AD5304601F08BFC2046FFF772
:1021F00069FF58B12046FFF74DFF0022316800B259
:1022000001EB8003C3F81025C3F810252046FFF723
:1022100083FF002301A827F815300194FFF7FEFE85
:10222000019B00EB8300D0F80022064B134043F0E3
:102230000203C0F80032044803B0F0BD0348FBE7D6
:10224000C8200020F0F0FCFF0000AD0B0400AD0B37
:102250002DE9F0431646804685B00846FFF7F0FEAC
:102260000C463168054609B32046FFF71FFF18B139
:102270002046FFF727FF10BB00230DF10F02CDE929
:1022800000338DF80E308DF80F3020460B460DF1DF
:102290000E0101F0DEFB4A4A05F1080132F8113067
:1022A00023F0020343F0010322F8113073687BB37B
:1022B00020461F785968FFF7F9FE10B1E9B141488F
:1022C00029E03F4A05F1080032F8103023F02003DE
:1022D000DB04DB0C22F8103079B1032FEFD87168E2
:1022E000D1F804E0D8F800109EF800C001EB8C0192
:1022F000A7B9C1F81075C1F81075314A05F1080188
:1023000032F8113023F01C0343EA870322F811301E
:10231000B3685BBB2C4805B0BDE8F083D1F810E58D
:1023200043EA4C332EF0030EC1F810E5D8F8001044
:1023300043F0200301EB8C0EDEF8101522F810306C
:1023400021F44F3121F44071CEF810152102DEF84E
:10235000108501F47C5141EA074141EA0801CEF8B9
:10236000101502EB4C01A1F87C40C6E72046D3E9EA
:102370000067FFF7D1FE002ECCD0114CD4E900232A
:10238000964203D19F4201D1002209E00F480DF18E
:102390000F01FFF7F3FD0C4B9842BCD19DF80F20C5
:1023A00004EBC20308355F6034F8153044F832603E
:1023B00043EA422343F4807324F81530AAE700BFB0
:1023C000C82000200400AD0B0000AD0B4021002010
:1023D0002DE9F0430C46804685B0204611461D4647
:1023E000FFF72EFE064629B32046FFF75FFE18B919
:1023F0002046FFF767FE18BB334F06F1080937F890
:10240000193013F01C0F02D04B78012B18D0012388
:102410008DF80F3000234A1CCDE9001320468B1C99
:102420000DF10F0101F015FB37F8193043F00303EC
:1024300027F81930002D44D02046FFF737FE18B991
:10244000224805B0BDE8F083002295F800C0D8F816
:1024500000301D4F03EB8C03C3F81025C3F8102583
:1024600006F1080237F812104FEA8C0E21F0200115
:10247000C904C90C27F812106E7816B3D8F80000FA
:10248000AD787044D0F81035360423F4991323F452
:10249000F853C0F81035230203F47C5306F4403699
:1024A0002D05D0F810E5334305F480152B4341EAA0
:1024B0004C3143EA0E0341F02001C0F8103527F8F3
:1024C00012100348BDE700BFC82000200400AD0B78
:1024D0000000AD0B014BC3E902127047C820002079
:1024E00010B508461446FFF7EDFD50B10846FFF75A
:1024F000A7FD054B083033F8103004485B0B237000
:1025000010BD0348FCE700BFC82000200000AD0B51
:102510000400AD0B70B50E4C064694F88C50A5B96E
:102520006022294604F1100001F02DF93068C0F84E
:102530007C51D0F87C3140F30730FEF7A1FB01233A
:10254000044884F88C30A36770BD0348FCE700BFE3
:10255000C82000200000AD0B0C00AD0B034B93F81E
:102560008C00003818BF0120704700BFC820002031
:102570000079024B03EB8000FFF720BD20200020F4
:102580000079024B03EB8000FFF7F8BC202000200D
:10259000F7B5054608461646FFF794FD0C46296830
:1025A000F0B12046FFF782FD0746C8B92046FFF785
:1025B00071FD04B2A40004F580728F508A58296816
:1025C0002144D1F8102542F00102C1F810252EB1A6
:1025D0000122296802FA00F3C1F8043303B0F0BD08
:1025E000D1F804332046002BA4BF4FF00043C1F8BC
:1025F0000433FFF725FD0F4B083033F81030C3F3D9
:102600008203042B11D0052B11D001A80194FFF7F0
:1026100005FD019A0369D34003F00103991C20468C
:1026200003B0BDE8F04001F05DBA0321F7E70221F5
:10263000F5E700BFC82000202DE9F04F634B0821CB
:10264000D3F8040387B0C0B240F00040FFF790FD1C
:10265000051E2BDA0023032104A8CDE90433FFF77C
:102660003DFD4FF000094FF0010BDFF864A10DF1C3
:1026700010081AF8013B5749DA088A5C03F007038F
:1026800022FA03F3DA071CD408F10408B9F1000FA9
:1026900014D000214FF00040FFF76AFD032104A889
:1026A000FFF71CFD0028DCD125F000450124474E32
:1026B000494F002D75D107B0BDE8F08F4FF00109EB
:1026C000D7E7464B4B440093D8F800100029DBD0E5
:1026D00091FAA1F1B1FA81F1009B1C7841EA44140E
:1026E0002046FFF7ADFC3C4B083033F81070C808AB
:1026F00018F8002001F007010BFA01F122EA0102AB
:10270000BB0808F8002003A801930394FFF786FC98
:10271000039A019B803250F82220C7F382065B07A0
:102720003746C2F3014221D520463946D6B2FFF7DB
:1027300091FC03A80394FFF771FC039B803350F8CE
:102740002330C3F301439E4207D10021204601F00C
:10275000C9F93146204601F0C5F903A80394FFF7F3
:102760005DFC039B0BFA03F30362ADE7022A0CD175
:102770000321204601F0B6F906F00503012BECD148
:1027800039462046FFF766FCE7E702212046019222
:1027900001F0A8F9032EF3D0019A032ADDD1022E0D
:1027A000EDE795FAA5F3B3FA83F304FA03F225EA09
:1027B000020503F5A27256F8221007EB4303B3F8A3
:1027C0007C00C1F30141FFF745FC72E700D00050E7
:1027D00086420000D8400000C82000208642000049
:1027E0000022034BC3F88425C3F80425704700BFBB
:1027F00000900350044AD2F80034DB07FBD5016097
:10280000BFF35F8F704700BF0090035008B5C0F35F
:102810000B0383B90222094BC3F88425C3F80425AE
:102820004FF0FF320260D3F80024D207FBD5FFF748
:10283000D7FF034808BD0348FCE700BF00900350E2
:102840000000AD0B0A00AD0B012208B5054BC3F823
:102850008425C3F80425FFF7CDFFBDE80840FFF746
:10286000BFBF00BF0090035000220121054B83F839
:102870003820054BC3F808131961C3F80025C3F8C5
:10288000002170475821002000B0025070B5104D53
:102890006C6B9CB14FF47A735C430A23B4FBF3F482
:1028A0000C4ED6F8003163B995F839304BB90A208F
:1028B000FFF752FB013CF4D1074870BD4CF2503495
:1028C000EEE795F83930002BF6D10448F5E700BF64
:1028D0005821002000B002500700AD0B0000AD0BE6
:1028E00010B500220124084BC3F80045C3F80021AD
:1028F0001C6038B1FFF7CAFF044B984203D1044B68
:1029000083F83840014810BD00B002500000AD0B04
:10291000582100202DE9F04106461746984601F05F
:102920001EF9002863D106F06043B3F1005F60D167
:10293000B3075ED1314C94F83030012B05D04345BC
:1029400059D194F83830002B55D000232C4AB8F1D7
:10295000020F0BBFC2F81075C2F80475C2F81465F7
:10296000C2F808650CBFC2F81815C2F80C1584F837
:10297000393023680CBF08250425C3B994F83830D2
:102980006BB100221E4B05F1A045C3F800210123C5
:1029900005F52C352B60BDE8F041FFF777BF01202E
:1029A000FFF79EFF174B9842EBD1BDE8F081A3687B
:1029B00023B1E6606161E7611348F6E7104AA6605B
:1029C0002161A76184F83080C2F800310123C2F888
:1029D000043394F8382002F0FF0012B9FFF780FFAB
:1029E000EAE705F1A04505F52C352B60E4E707483B
:1029F000DBE70748D9E70748D7E700BF58210020A1
:102A000000B002500700AD0B0000AD0B0800AD0B8D
:102A10000A00AD0B0B00AD0B084B9A685A621A699D
:102A20009A629A69DA62DA689A6032B15A691A610E
:102A3000DA699A610022DA607047704758210020F5
:102A400000F01F0340090FD001280FD10A4A02EB02
:102A50008302D2F80002094B034043EA012343F00A
:102A60000203C2F800327047054AF0E700228033C3
:102A700052F82330FFDE00BF00288450F0F0FCFF46
:102A80000025845010B50E4B0238D3F83C26D3F8FD
:102A90003836072813D8DFE800F0110F0D0B0A08AD
:102AA0000604100EC871100C8871100A48710A7162
:102AB0001A0ECA701A0C8A701A0A4A700B7010BD6E
:102AC00000B00250023807281FD8DFE800F029279D
:102AD000251123211F04CB791B068A7943EA02437F
:102AE0004A7943EA02230A7913430E4AC2F83C3674
:102AF000CB781B068A7843EA02434A7843EA0223EA
:102B00000A781343074AC2F8383670470023E4E7CF
:102B10000023E5E70023E6E70023EBE70023ECE7EB
:102B20000023EDE700B002500268154BFF2A08BFF2
:102B30004FF0FF32C3F824254268FF2A08BF4FF048
:102B4000FF32C3F828258268FF2A08BF4FF0FF3202
:102B5000C3F83025C268FF2A08BF4FF0FF32C3F820
:102B600034250269FF2A08BF4FF0FF32C3F8382529
:102B70004269FF2A08BF4FF0FF32C3F83C25704777
:102B800000B0025030B5194D8DB006AC0FCD0FC45A
:102B900095E8030084E80300154906A8D1F8243518
:102BA000DBB20093D1F82835DBB20193D1F8303590
:102BB000DBB20293D1F83435DBB20393D1F8383568
:102BC000DBB20493D1F83C35DBB20593FFF7ACFFE1
:102BD0000023C1F8003101230B60D1F80031002B34
:102BE000FBD06846FFF7A0FF0DB030BDB83F000036
:102BF00000B0025070B590F8293004461BB190F82F
:102C00002A20002A3CD16068FF2800F08580A16856
:102C1000FF2900F08180E268FF2A7DD025690E2D12
:102C20007AD1112878D1122976D10D2A74D162690E
:102C3000FF2A01D00F2A6FD1A269FF2A01D0102AE2
:102C40006AD1BBB903211120FFF7FAFEA068FFF794
:102C5000F7FEE068FFF7F4FE2069FFF7F1FE606918
:102C6000FF2801D0FFF7ECFEA069FF2802D0032166
:102C7000FFF7E6FE94F82A3013B9201DFFF754FF42
:102C8000636A264E264D736394F8293086F83A30ED
:102C90000123C5F80833FFF775FF2368C5F84035F1
:102CA000A37F617F227F9B0143EAC1031343E27F3D
:102CB00043EAC213C5F8443594F82320D5F84435C7
:102CC0002ABB43F44033C5F844354FF4C063C5F81C
:102CD0004036D5F8002694F8203022F07F4222F0CA
:102CE000FF02134394F8212043EA026394F8222060
:102CF00043EA426394F8232043EA0273C5F800369E
:102D0000336813B12B20FDF7BBFF064870BD23F4D9
:102D1000003343F48033D6E70348F7E75821002017
:102D200000B002500000AD0B0400AD0B38B50C4CE8
:102D300094F8305095B9C4E9001248B90023012233
:102D4000C4E90233074884F8302084F8383038BDAD
:102D5000FFF750FF034B9842F9D1EFE70248F6E73F
:102D6000582100200000AD0B0C00AD0B2DE9F843FD
:102D700004468846154600F0F2FE002843D1DFF8ED
:102D8000909099F8300001283FD199F83830214FC0
:102D90006BB30123204EC6F80833FFF7F3FEB8F1FA
:102DA000000F2BD14FF0000889F83980C6F8008158
:102DB000A37862781B0343EA022322781343E27864
:102DC00043EA4233227943EA8233627943EAC233E7
:102DD000C6F83436FFF75AFDB8420CD0C6F8008169
:102DE0001DB129466078FFF74DFE0C4804E0FFF75F
:102DF00077FDB842CDD10748BDE8F88341466078F9
:102E0000FFF760FECEE70648F6E70648F4E700BFA6
:102E1000582100200700AD0B00B002500000AD0BA0
:102E20000800AD0B0B00AD0B034B93F838300BB91A
:102E3000FFF756BD01487047582100200C00AD0B2C
:102E400008B5054B93F83030012B03D1FFF70CFD8B
:102E5000024808BD0248FCE7582100200000AD0BE5
:102E60000B00AD0B034B93F83000003818BF012066
:102E7000704700BF5821002070B5054600F06FFE76
:102E800000283AD111F0030639D11F4B1A6892B9C4
:102E90001E4CC4F81C15C4F8205583F8392093F84B
:102EA00038300BB30023C4F800310123E360BDE8E0
:102EB0007040FFF7EBBC93F83040012C21D1134A4E
:102EC000C2F81C150421C2F8205583F8396083F834
:102ED0003010C2F80061C2F8044393F8383053B997
:102EE000FFF7FEFC0A4805E00120FFF7F9FC094B5B
:102EF0009842D7D170BDD460F4E70748FAE7074895
:102F0000F8E70748F6E700BF5821002000B002505C
:102F10000000AD0B0700AD0B0800AD0B0A00AD0BB8
:102F20000B00AD0B10B5224BD3F8002192B100225B
:102F3000204CC3F8002194F8381094F8302071B96F
:102F40000121032A84F8381005D0042A05D0022A6A
:102F500000D1996010BD5960FCE7D960FAE7032AF7
:102F600019D0042A19D0022A04D1012384F8203070
:102F7000FFF752FDA36813B9012384F8303094F8A9
:102F8000393003F0FF0013B9D4E90031984700232A
:102F900084F82030DEE70223E8E7032284F82020CB
:102FA000D3F81C256262D3F8203584F82830E1E795
:102FB00000B002505821002030B500F01F04400935
:102FC00011D0012811D10B4800EB8400D0F8005239
:102FD000094C1B0243EA82022C4042EA4101214390
:102FE000C0F8001230BD0548EEE70023803453F8E6
:102FF0002430FFDE00288450F0F0FCFF00258450D0
:1030000010B4CC7B8A6803682CB9D1E90041C3F8BD
:103010000845C3F80C15C3F8242528220379534327
:10302000054AD3582BB1006810BC40F30730FDF7B8
:1030300027BE10BC704700BF942100202DE9F0414D
:10304000074690F80480282000FB08F0144E0C4638
:10305000351895F82210F1B9A96032506B6085F8E7
:10306000251085F824106CB1A37B204685F8273005
:1030700000F08FFD88B1637B2146384685F8263005
:10308000FFF7BEFF282303FB08660123054886F8E7
:103090002230BDE8F0810448FBE70448F9E700BFAF
:1030A000942100200000AD0B0C00AD0B0400AD0B13
:1030B000062103680279C3F800152821034B01FBA0
:1030C0000233022283F82220704700BF942100209F
:1030D000282102790B4B01FB023300219960026821
:1030E0000948C2F80803D2F8000220F4BC50C2F824
:1030F0000002C2F80015012283F8241083F8222070
:10310000704700BF9421002002029C01F8B50446DC
:1031100007790068134D40F30730FDF7BFFD2046E7
:10312000FFF7D6FF282303FB075393F8272092B914
:1031300093F826607EB923683246D3F80805D3F8A1
:103140000C4501213346FFF737FF33463246012154
:103150002046FFF731FF282303FB0755002385F89E
:103160002230F8BD9421002038B50A4B53F8204096
:10317000013053F82050A54200D838BD606830B106
:10318000037FDB0701D400F058FD0834F3E7236820
:103190009847FAE7DC400000012208B5094B0320FC
:1031A0001A70FFF7E1FFFDF7BDFFFDF791FB04206B
:1031B000FFF7DAFFFDF76CF8034A137B23F00103F6
:1031C000137308BD31220020BC21002008B503483C
:1031D000034A0021121A00F047FD08BD8C20002090
:1031E0003422002008B50020FFF7BEFF194B03F57D
:1031F000006282F3088883F30A880025E023164CD6
:1032000084F82230E57725766576A57684F8205017
:10321000636A43F4E023636284F82350FDF79CFC67
:10322000FDF7A6FD4FF0FF33A362E362FDF7C0FE9A
:10323000FDF7C2FD00F0DBFCFDF756FF0120FFF7B4
:1032400093FF0220FFF790FF2B462A4629460348AA
:10325000FDF770FD3822002000ED00E099310000FC
:10326000074808B5074A0849121A00F0FFFCBDE8F4
:1032700008400648064A0749121A00F0F7BC00BF8A
:10328000002000208C200020884200000020002028
:10329000002000208842000010B50A4C23681BB1B2
:1032A00001232360002010BD00F04EF80028F7D065
:1032B0000138072803D8044B53F8200010BD0348F9
:1032C00010BD00BF18220020F4400000FE8FFFFF59
:1032D000BFF34F8F0549064BCA6802F4E0621343FF
:1032E000CB60BFF34F8F00BFFDE700BF00ED00E0F4
:1032F0000400FA0530B44FF0FE3200250B4B0C4CA5
:103300000C494968C3F80024C3F80424C3F808240E
:10331000C3F80C24C3F81024C3F81424C3F81824E9
:10332000C3F81C24C4F8005530BC08470050845032
:103330000040845024200020024BD0E90012C3E951
:10334000001270472420002008B500F011F830B9B1
:1033500000F010F838B9054AC2F80C0A08BD00F0B0
:1033600037F8032008BD042008BD00BF005084507A
:103370000020704710B5114800F048F800B110BDAA
:103380000F4800F043F80028F9D10E4C204600F019
:103390003DF80028F3D10C4B0C481C6000F036F8C7
:1033A00001460028EBD100F02DF8044608B1204674
:1033B00010BD00F03FF82046FAE700BF3C20002097
:1033C00038200020342000202C2000203020002035
:1033D00008B5084800F024F8074800F021F807482D
:1033E00000F01EF8064800F01BF8BDE8084000F0A9
:1033F0000BB800BF3C2000203820002034200020E3
:103400003020002000207047704700BF08B5034BF4
:1034100002681B6810689847002008BD54200020EF
:1034200008B5034B02685B6810689847002008BD28
:103430005420002070B5094C094D2069AB689847AD
:1034400018B1084B08485B6898470021074AEB68A9
:1034500011602069BDE87040184700BF402000207F
:103460005420002024200020144100001C220020B1
:1034700010B5044650B1636813F0685F05D0064A82
:10348000934202D000236260236010BD034B0448C6
:103490005B689847EFE700BF2C5F5CA92420002001
:1034A00034410000C8B143680D4A934213D013F071
:1034B000685F0ED0012350E8002F194640E8001C39
:1034C0009CF0000FF7D1012AF5D0BFF35F8F0020E9
:1034D000704704487047044870476FF4E0407047F5
:1034E0002C5F5CA9E98FFFFFEA8FFFFF034680B1E5
:1034F000426809498A420AD012F0685F05D0BFF3DA
:103500005F8F002210461A607047044870470448D5
:1035100070476FF4E04070472C5F5CA9E98FFFFFB4
:10352000EA8FFFFF10B5044620B10023034A236051
:10353000626010BD0248FFF7DDFEF6E73A00003A90
:103540005C410000704737B50C460569836801A9E6
:103550005B68984748B9019B2A685A40012303FADF
:1035600004F10A4214BF1846002003B030BD0368BE
:103570005A1C11D04168A1F58052B2F57F2F0BD8AB
:103580001A0D1205B2F1005F06D19B0704D18842E3
:103590008CBF0020012070470020704700F023BB43
:1035A00070B5044664254618306850B9D4F8243103
:1035B00033B93220FFF7F2FF013DF5D14FF0FF3074
:1035C00070BD0120FCE708B54FF40040FFF7CFFFC6
:1035D00010B90320FCF738FE4FF05023D3F81C3508
:1035E00003F0F002B02A10D103F00F030F2B01D02B
:1035F0000133DBB24FF0502243F0B0034FF40040F0
:10360000C2F81C35FCF7A6FDE3E70023F0E7002035
:1036100070470FB407B504A951F8040B0191FCF7EA
:103620002DFF03B05DF804EB04B0704738B50C46CD
:10363000054658B151B10B6843B14B6833B11C22F8
:10364000002100F0A0F800202C6138BD6FF01500BB
:10365000FBE77047FEE77047012801D1EFF30583D0
:1036600000F0DCBA01460068FFF7F6BF08B5FDF7C9
:1036700043F9BDE8084000F000B870470021012080
:10368000FFF7EABF61B662B680F31188BFF36F8FB0
:103690007047EFF31180202383F31288BFF36F8FFD
:1036A000704772B6002383F31188BFF36F8FBFF3A7
:1036B0004F8F20BF00BF00BF00BF00BF00BF00BFD3
:1036C00000BF00BF80F31188BFF36F8F62B67047F1
:1036D00040E800F313F4803FD8B208BF6FF0150044
:1036E000704730B50C684B6885B00A894D890094E5
:1036F000013B24F01F04234402F01F0242EA45125A
:1037000023F01F0369468DF808200393FDF77AFB29
:1037100005B030BD034600201A5C02B97047013085
:10372000FAE710B55AB10139841810F8012B11F8D5
:10373000013FA04201D09A42F7D0D01A10BD1046E6
:10374000FCE7431A934210B500EB020308D302468C
:1037500001399A420BD011F8014F02F8014BF8E7FA
:103760000A4412F8014D8A4203F8014DF9D110BD07
:1037700010B5431E0A44914200D110BD11F8014B0F
:1037800003F8014FF7E70346C9B20244934200D160
:10379000704703F8011BF9E74FF05023012270B581
:1037A0000C460546C3F814260020FDF7F9FC284610
:1037B0002346BDE870400021184708B901230B706B
:1037C00070474FF4001200230020C1E90023704726
:1037D00037B50D46416811B3D1E90013846804B3CD
:1037E000D4E90024F4B1EBB19C421ED10133092B82
:1037F0001BD88DF8013040F20113ADF802300023E0
:1038000000788DF804308DF8000068468DF805507A
:10381000FFF7ACFA03B0BDE83040FDF72BBD0B4617
:10382000DCE7224601332344E1E76FF0150003B0E3
:1038300030BD7FB5FF238DF803300DF10303002168
:1038400001930123CDE90231052303A88DF80C3043
:1038500001AB04910593FFF7BBFF0028A8BF9DF8BB
:10386000030007B05DF804FB1FB5002188420CBFC0
:103870000623042301A8CDE9011103918DF804303A
:10388000FFF7A6FF002818BF6FF0040005B05DF831
:1038900004FB436833B94FF050230222C3F8B82524
:1038A000FFF7CEBA7047436833B94FF05022C2F8E1
:1038B000B835072000F097B970470020704710B561
:1038C0000C4600F046F90023C4E90003184610BD79
:1038D00038B505460C4600F03CF9002D07DBA84240
:1038E00005D9401B84428CBF0020012038BD002038
:1038F000FCE770B50C46154600F02EF92946064641
:103900002046FFF7E5FFB8B1B4FBF6F306FB13431F
:1039100093B9B5FBF6F306FB13536BB9AE4201D96D
:10392000002070BD00F018F906462046FEF76EFF35
:10393000AD1B3444F9D1F3E76FF01500F1E770B532
:103940000D461946284616461C46FFF7C1FF38B1FA
:1039500024B1224629463046FFF70AFF002070BDF9
:103960006FF01500FBE7436800205B681B690B6084
:103970007047436802EA01005B6821EA020198602F
:103980000020D9607047436800205B6899607047E9
:10399000436800205B68D960704743685A68536881
:1039A00021EA03000B4090600020D360704710B5FF
:1039B00003695868F8B1884219D19C680868A14227
:1039C000586000D19860002008602AB15A680A60E7
:1039D0009A68596002B99960002010E0814206D1CE
:1039E0000868206098688142EDD19C60EBE704464E
:1039F00000680028F2D1002AE8D16FF0150010BD50
:103A000030B543681360057A446804EBC504A342EB
:103A100002D36FF0010030BD5C798C4201D00833D5
:103A2000F0E70020F7E7FFF737BC08B5FCF75EFFCB
:103A3000FFF711FEBDE80840FFF72EBC004740F03D
:103A40000040C1F88000704740F00040C1F880009D
:103A50007047F7B51646DDE90847019001A81D46F5
:103A6000FEF7DCFA019BB6F1000C18BF4FF0010C19
:103A700000EB83000B1E18BF0123002D43EA4C030B
:103A800014BF4FF00C0C4FF0000C002C43EA0C0359
:103A900014BF4FF4706C4FF0000C002F43EA0C037E
:103AA00014BF4FF4403C4FF0000CD0F8002243EA22
:103AB0000C0322EA030301B109780EB136787600CF
:103AC00019430DB12D78AD0031430CB12478240297
:103AD00029430FB13F783F040C433C43C0F80042F8
:103AE00003B0F0BD1FB50DF10F03019300238DF856
:103AF0000F101A4619460093FFF7ABFF05B05DF8AB
:103B000004FB38B5054608460C46FEF7DBFAB0B1B3
:103B10000846FEF7CBFA90B90846FEF7BBFA012338
:103B20002A688340C2F808332A6803B202EB830391
:103B3000D3F8102522F00302C3F8102538BD204623
:103B4000BDE838400021FFF7CDBFFEF73FBBFFF7D0
:103B5000D8BF4FF4801070474FF4805070474FF03B
:103B60005023D3F8B825920707D1D3F8580500F0B1
:103B70000300013818BF012070470120704702235D
:103B8000FEF7C8BE0323FEF7C5BE00210220FFF7E3
:103B900073B970B5C37B04460BB1837BC3B9A3680B
:103BA000B3F17F6F1BD32368222B13D16368232BC0
:103BB00017D10B25A67B5EB92B4603223146206820
:103BC000FFF7FAF92B46032231466068FFF7F4F954
:103BD000012070BD232B04D16368222BE8E7062562
:103BE000E8E70020F5E708B1FDF7C8BA704770476D
:103BF00040B1C368587810F001001EBF1878B0FAC1
:103C000080F040097047EFF31183202383F312887B
:103C1000BFF36F8FFEE708B5FFF7F5FF10B5EFF3C1
:103C20001184202383F31288BFF36F8FFFF7F3FF14
:103C300084F31188BFF36F8F10BD10B5436904463C
:103C400033B90020E268537843F00103537010BD8C
:103C500098470028F5D00028B8BF4042FF28A8BFE9
:103C6000FF20E3681870EDE7FFF78DBDFFF780BD1B
:103C700000000000C03C000000000000A03C00006C
:103C8000273A0000000000002B3A0000000000006E
:103C900000000000E03C000000000000003D0000CB
:103CA00049420000A4400000703F0000882000202E
:103CB000B0200020F5190000000000000000000006
:103CC00055420000BC400000703F00008A200020E8
:103CD000BC200020F51900000000000000000000DA
:103CE00026420000384000005C3F00008420002095
:103CF000A82000207D160000000000000000000049
:103D00003242000000000000483F000086200020F2
:103D100000000000BB3800000000000000000000B0
:103D2000000000007D360000000000007D3600002D
:103D3000000000007D360000000000007D3600001D
:103D4000000000007D360000000000007D3600000D
:103D5000000000007D360000000000007D360000FD
:103D6000000000007D360000000000007D360000ED
:103D7000000000007D360000000000007D360000DD
:103D8000000000007D360000392600003D3A0000AA
:103D9000000000007D360000000000007D360000BD
:103DA000000000007D360000000000007D360000AD
:103DB000000000007D360000000000007D3600009D
:103DC000000000007D360000000000007D3600008D
:103DD000000000007D360000000000007D3600007D
:103DE000000000007D360000000000007D3600006D
:103DF000000000007D360000000000007D3600005D
:103E0000000000007D360000000000007D3600004C
:103E1000000000007D360000000000007D3600003C
:103E2000000000007D360000000000007D3600002C
:103E3000000000007D360000000000007D3600001C
:103E4000000000007D360000000000007D3600000C
:103E5000000000007D360000000000007D360000FC
:103E6000000000007D360000000000007D360000EC
:103E7000000000007D360000252F00003D3A0000C4
:103E8000000000007D360000000000007D360000CC
:103E9000000000007D360000000000007D360000BC
:103EA000000000007D360000000000007D360000AC
:103EB000000000007D360000000000007D3600009C
:103EC000000000007D360000000000007D3600008C
:103ED000000000007D360000000000007D3600007C
:103EE000000000007D360000000000007D3600006C
:103EF000000000007D360000000000007D3600005C
:103F0000000000007D360000000000007D3600004B
:103F1000000000007D360000000000007D3600003B
:103F2000000000007D360000000000007D3600002B
:103F3000000000007D360000000000007D3600001B
:103F4000000000007D3600003F3900003D180000F1
:103F5000F338000035180000BF38000039130000A6
:103F6000791400008915000091120000C337000089
:103F70003D1A0000673900007339000087390000DE
:103F8000913900009B39000089180000AF3900000A
:043F9000000000002D
:103FA000FF000000FF000000FF000000FF00000015
:103FB000FF000000FF000000FF000000FF00000005
:103FC000FF000000FF000000FF000000FF000000F5
:103FD0000338FDD87047000000000000000000001A
:103FE0000338FDD87047000000000000553600007F
:103FF0000020002000000000060001000200000078
:1040000004400000000000000F4200000200000019
:10401000E0FF0F00002000201742000021000000F8
:10402000E0FF0620F51100009937000000000000B5
:104030000400000000FF000000000000000000007D
:104040000000000000000000000000000000000070
:10405000000000000000000000000005F401000066
:1040600000010100000020001F4608007040000011
:1040700000B002507C4000000100000084400000BD
:10408000060000001118001D0D18001F0E1800205A
:104090000F180021101800221218001E0400000042
:1040A00000FF0000FFFF0000002884500000000017
:1040B0000100000000D0005000000000FFFFFFFFE3
:1040C00000258450000000000000000000D00050D7
:1040D000000000000800000003000000703C000029
:1040E000703C0000883C0000883C0000A03C0000C0
:1040F000A03C0000FF8FFFFFFF8FFFFFFE8FFFFF41
:10410000FE8FFFFFFD8FFFFFFC8FFFFFFC8FFFFF88
:10411000FB8FFFFF436F756C64206E6F74206C6FB4
:10412000636B20706F7765722073617665206D75A3
:10413000746578006D757465785F66726565206377
:10414000616C6C65642077697468204E554C4C2016
:10415000706172616D6574657200000043616E2765
:104160007420696E697469616C697A65206D757413
:1041700065782C20776173204E554C4C0D0A000059
:104180000000F0FFF0FFF0FFEAFF74FFF0FFF0FF28
:1041900074FFF0FFEAFF2D0020002B003078003084
:1041A000580045525200286E696C29002A2A2A209C
:1041B000426F6F74696E67206E524620436F6E6E59
:1041C0006563742053444B2076332E312E302D36C8
:1041D0006336653562333234393665202A2A2A0A35
:1041E000002A2A2A205573696E67205A65706879FB
:1041F00072204F532076342E312E39392D313631FD
:10420000323638336434303130202A2A2A0A0046C4
:104210004C4153485F30005352414D5F3000000025
:10422000000121200B0A75686578666C617368402F
:104230003000666C6173682D636F6E74726F6C6CA6
:104240006572403339303030006770696F40383400
:1042500032383030006770696F4038343235303072
:104260000000010203040506070B00000001010124
:10427000000001000000002030303030303030309D
:1042800030303030303000010F3600000090D00365
:104290000070015000000000FFFFFFFF3F00000022
:1042A000FFFFFFFF3F000000FF00000000000000D4
:1042B000D13200003420002050200020482000206F
:1042C00044200020402000207C200020742000207A
:1042D0006C20002000000000642000202535000034
:1042E00071340000A5340000ED34000020220020CD
:1042F0003A00003A242200203A00003A2822002006
:104300003A00003A2C2200203A00003A0000000057
:084310000000000015E015E0BB
:10800000B8BC0420D19E00001F090100BD9E0000E5
:10801000BD9E0000BD9E0000BD9E0000BD9E0000F4
:108020000000000000000000000000002DA0000083
:10803000BD9E000000000000CD9F0000BD9E00001E
:10804000BDA10000BDA10000BDA10000BDA10000B8
:10805000BDA10000BDA10000BDA10000BDA10000A8
:10806000BDA10000BDA10000BDA10000BDA1000098
:10807000BDA10000BDA10000BDA10000BDA1000088
:10808000BDA10000BDA10000BDA10000BDA1000078
:10809000BDA10000BDA10000BDA10000BDA1000068
:1080A000BDA10000BDA10000BDA10000BDA1000058
:1080B000BDA10000BDA10000BDA10000BDA1000048
:1080C000BDA10000BDA10000BDA10000BDA1000038
:1080D000BDA10000BDA10000BDA10000BDA1000028
:1080E000BDA10000BDA10000BDA10000BDA1000018
:1080F000BDA10000BDA10000BDA10000BDA1000008
:10810000BDA10000BDA10000BDA10000BDA10000F7
:10811000BDA10000BDA10000BDA10000BDA10000E7
:10812000BDA10000BDA10000BDA10000BDA10000D7
:10813000BDA10000BDA10000BDA10000BDA10000C7
:10814000BDA10000BDA10000BDA10000BDA10000B7
:10815000BDA1000053B94AB9002908BF00281CBFBF
:108160004FF0FF314FF0FF3000F00CB8ADF1080CCC
:108170006DE904CE00F008F8DDF804E0DDE9022343
:1081800004B07047704700BF2DE9F04786468C4623
:108190000846089E154674461946002B40F0C180DB
:1081A0008542B2FA82F245D94AB1C2F1200300FAFF
:1081B00002FC954094402EFA03F343EA0C0C4FEA7C
:1081C000154EA8B2230CBCFBFEF80EFB18CC08FB26
:1081D00000F943EA0C43994528D9EB1808F1FF3719
:1081E00004D2994502D9A8F102072B44A3EB090355
:1081F000A4B2B3FBFEFC0EFB1C330CFB00F044EA04
:108200000344A04214D92C190CF1FF3304D2A0422C
:1082100002D9ACF102032C44241A43EA07401EB1F0
:10822000D440002334607360BDE8F0874746DDE743
:108230006346F1E792BB431B01214FEA154EAFB2F3
:10824000200CB3FBFEFC0EFB1C330CFB07F840EAD2
:108250000343984561D9EB180CF1FF3004D29845DF
:1082600002D9ACF102002B44A3EB0803A4B2B3FB88
:10827000FEFC0EFB1C330CFB07F744EA0344A74249
:108280004DD92C190CF1FF3304D2A74202D9ACF11D
:1082900002032C44E41B43EA0040C0E7C2F1200380
:1082A0009540944020FA03F12EFA03F34FEA154E5D
:1082B0009040AFB20343B1FBFEFC0EFB1C10190C47
:1082C0000CFB07F841EA0041884522D969180CF1F6
:1082D000FF3004D2884502D9ACF102002944A1EB59
:1082E00008019BB2B1FBFEFC0EFB1C110CFB07F757
:1082F00043EA01439F420ED9EB180CF1FF3104D23F
:108300009F4202D9ACF102012B44DB1B41EA004140
:1083100093E76046E3E76146F7E76046A4E7634614
:10832000B8E7834206D916B9002108467CE7C6E9BA
:1083300000E0F9E7B3FA83F78FB9834201D37245BE
:1083400008D8BEEB020460EB030301209C461EB973
:10835000002169E73846FAE7C6E9004CF8E7C7F1BB
:10836000200CBB400EFA07F522FA0CF42EFA0CF1A1
:10837000BA401C4320FA0CF3B8404FEA14490143B9
:108380001FFA84FEB3FBF9F809FB18300B0C08FB4D
:108390000EFA43EA00439A4540D9E31808F1FF304A
:1083A00004D29A4502D9A8F102002344A3EB0A03A0
:1083B00089B2B3FBF9F809FB183308FB0EFE41EA5A
:1083C00003418E452CD9611808F1FF3304D28E4544
:1083D00002D9A8F10203214443EA0040A1EB0E01B7
:1083E000A0FB02984145CE46434602D306D14D45F7
:1083F00004D20138B9EB020E68EB0403002EA7D0BB
:10840000B5EB0E0261EB030101FA0CFC22FA07F353
:10841000F9404CEA0303C6E9003199E74046C5E755
:108420004346D9E730B52D4B2D4A85B0C2F800360A
:10843000C2F80436C2F80836C2F80C36C2F8103654
:10844000C2F81436C2F81836C2F81C3602F580524B
:10845000C2F80036C2F80436C2F80836C2F80C3644
:10846000C2F81036C2F81436C2F81836C2F81C36F4
:1084700006F0D2FE01A800F071FE1A4B1B68834281
:1084800000D0FEE769469DF8080006F0A2FE04460B
:1084900008B108F0B1FA009A039B134D1344019AF6
:1084A000128913442B6003F0E9FB01F067F801F037
:1084B00049F801F03DFD84F30B8884F30A882B68AA
:1084C0001B6883F3088884F31488BFF36F8FBFF3AE
:1084D0006F8F2B685B689847FEE700BF3546526E8A
:1084E00000800150342400203024002021B10129D3
:1084F00006D06FF015007047044B53F830007047FA
:10850000024B03EBC0035868704700BF381E0100E0
:108510002DE9F04F9B46D9B0794B039038A8DDE99F
:1085200063790E4614461D6800F0E0FF3FB1B9F1D3
:10853000000F04DD4A46394638A807F0DFFE4FF049
:10854000000833897289D6F80CA013449A44C245B6
:1085500045D838A90CA807F0F7FE659B5BB10CAFB6
:108560000DF1500C3A4603CA62451860596017462F
:1085700003F10803F6D100232246009331464FF65B
:10858000FF7306A806F049FE074628BB214603985C
:108590000B9E06F024FFB0421ED34FF0FF36DFF8EB
:1085A00064B1DFF864910DF1120304AA05A906A8CD
:1085B00006F081FE00280FDB40F09A80059906A89E
:1085C00006F0C5FE10BB4FF6FF71BDF812004F4A12
:1085D00032F8023B8B4217D1494B1D688BE0629BFE
:1085E000AAEB0809994528BF99465A464B46414689
:1085F000204608F001F90028EED14A46594638A82D
:1086000007F07CFEC844A2E79842E1D1BDF81230E1
:10861000102B17D0222B4DD0012BC4D1BDF8103018
:10862000202BD9D82046059938AA08F0E5F8064647
:108630000028D1D19DF810A0BAF1200F19D94FF020
:10864000FF36B0E7BDF81070202FC5D13B4620465D
:10865000059938AA08F0D0F80028BDD13A4638A9C3
:108660000CA806F0B5FEDBF800308342B4D1012738
:1086700099E7D9F80030DFF898800393039B9E4276
:10868000DDDA1CA800F032FFD8F804201CA812681C
:1086900058F8081B07F032FE1CA914A807F054FE76
:1086A000524638A914A809F015F900283FF47BAF09
:1086B0000136E3E7731C3FF476AFD9F80030B342DC
:1086C000BDDDBDF81030802B86D82046059938AA2C
:1086D00008F092F800287FF47FAFF6B22021BDF8B1
:1086E0001030009638AA0CA800F014F80546A6E74A
:1086F000002F3FF471AF284659B0BDE8F08F00BF9E
:108700000820002034240020481E0100CC23010052
:108710004C1E01002DE9F04798B016461D469DF805
:108720008020394B074653F8321003EBC2035B68D5
:1087300003911868DFF8D4800144302304AA03A809
:10874000D8F8009006F093FF002849D1DDE90343F3
:108750001C44214608AB05AA03A806F0B0FF002878
:108760003ED1069A072A3BD12949079809F0B2F869
:10877000002835D1099A082A32D126490A9809F0E9
:10878000A9F868BB214604AA03A806F084FF38BBF9
:10879000DDE903A30AEB0302944221D1412B1FD14F
:1087A00035443023294605AA04A8049606F05FFF45
:1087B000A0B9DDE9043213449D420FD32A4604A92F
:1087C00008A806F0D2FD48B92A4604A910A806F068
:1087D000CCFD18B99AF80030042B05D0D8F80090D9
:1087E000484618B0BDE8F08700F092FD20220090C6
:1087F000394608AB0AF1010007F01DFC0128EDD154
:10880000054BD3F80090EBE74C1E01000820002038
:108810002924010020240100342400202DE9F74FF1
:1088200098468368074699428A46144659D25B1A8D
:10883000934256D3B8F1000F43D06A4606F0D1FCFC
:10884000002850DB013CDDF80090A244274D284C65
:10885000284E6A465146384606F0C3FC002842DBE3
:10886000DDE900BA38465246594607F0EFFF0028C6
:1088700039DBC5F80046C5F80446C5F80846C5F812
:108880000C46C5F81046C5F81446C5F81846C5F894
:108890001C46C6F80046C6F80446C6F80846C6F8A0
:1088A0000C46C6F81046C6F81446C6F81846C6F870
:1088B0001C46B8F1000F0ED0D94514D20BF1FF3A87
:1088C000C7E7511E51446A4606F08BFC00280ADBBC
:1088D000DDF80090BAE7DA44CA4504D80AF1010A83
:1088E000B7E74FF0FF3003B0BDE8F08F00800150D4
:1088F0003546526E00900150034637B54FF4007272
:10890000084693F8B84013490192620051F822508A
:10891000A8420ED1582101FB043201FB0434526AF3
:10892000283401A907F0D7FF08B9019B236003B0E1
:1089300030BD013251F82220904208D1582101FB6C
:10894000043201FB0433126D03F15404E9E7012002
:10895000EDE700BF541E010070B590F8B850104EFE
:108960006D0056F825100446FFF7C6FF98B901358B
:1089700056F825102046FFF7BFFF054668B9582274
:1089800094F8B83002FB0343186A07F074FFC4F888
:10899000B400284670BD0125FBE70925F9E700BFB3
:1089A000541E01002DE9F04F4FF02C08582508FB0C
:1089B00001F890F8B890044605FB098303441F6A48
:1089C0000E4687B00FB908F017F8384607F05AFF7F
:1089D000024694F8B80015FB008525446B1E03354C
:1089E00013F8011F914241D19D42F9D13B4B1D68C3
:1089F000284607B0BDE8F08F394B1D68394B1B681E
:108A0000AB4206D0002EF1D00121384606F085FD9C
:108A1000ECE7582294F8B8305343E218D16C8F42F7
:108A2000E6D1D2F82080002205922C2202FB0633E8
:108A3000234419890423384605AA194407F0DCFEAB
:108A40000028D3D194F8B830012B0BD0002BCFD114
:108A5000D8E9012313440599914201D39942C7D91A
:108A60003146D2E74FF082731F4AF4E74FF0580BBC
:108A70002C220BFB09F302FB0633E5182969CA0611
:108A8000B4D4E258194B9A42B6D1EB682A89D2186D
:108A9000B2D26B899B18AFD2BA689342ACD240F67F
:108AA0000C6A11EA0A0AA7D1314603F0C7F9054654
:108AB0000F4B1B689842A1D14FF4807309FB0B81C7
:108AC00000933A462046CDE902AA0A4BCDF804A00D
:108AD0002144FFF71DFD054690E700BF042000205C
:108AE0000820002034240020008800013DB8F396BF
:108AF00000200020707200202DE9F84F8846914632
:108B00009A460026DFF88CB0234D244C0B9B9E42E6
:108B100001D300200FE00B9B40469F1BB7F5806FF1
:108B200028BF4FF480671B4A3B4606EB0A0107F05B
:108B300063FE10B10120BDE8F88F0A993B465A4602
:108B40004846711807F06DFE0028F3D1144BC5F8A4
:108B500000463E44C5F80446C5F80846C5F80C462C
:108B6000C5F81046C5F81446C5F81846C5F81C46A1
:108B7000C3F80046C3F80446C3F80846C3F80C46D9
:108B8000C3F81046C3F81446C3F81846C3F81C4689
:108B9000BCE700BF38240020008001503546526EEB
:108BA000009001502DE9F04F002504460E46A846DE
:108BB0005827DFF8049295B0012D84F8B8501DD9DC
:108BC00000257E4F17F8011B01290CD12846FFF71D
:108BD0008DFC0EA9C0B200F0ABFE014618B90E988C
:108BE000826807F033FE002D00F0D880B8F1000F46
:108BF00000F04B8100212C275825D7E0631993F80A
:108C0000B910002958D107FB054209EB053353621F
:108C100003F5005328461365FFF768FC94F8B81075
:108C2000C0B207FB0141203100F082FE60B9012192
:108C30002846FFF75BFC94F8B810C0B207FB01416F
:108C40004C3100F075FE08B107F0D6FE2046FFF764
:108C500083FE48BB0021204606F018FC824600280F
:108C600040F09580204606F05DFC002800F08F80E3
:108C70000AA806F034FC06F03BFC054608BB94F855
:108C8000B830002BE0D094F8B020042A04BF0122B1
:108C900084F8B020012BD7D094F8B130042BD3D175
:108CA000012384F8B130CFE7012294F8B830904224
:108CB000234483F8B020CDD194F8B8500135EDB2FB
:108CC0007AE79DF82FB0BBF1010F4ED1582294F8EE
:108CD000B830CDF838A002FB0343394AD96AD86CC2
:108CE00091422BD1998E04230EAA194407F084FDDA
:108CF000F8B14FF0050A94F8B830234483F8B0A0D7
:108D000094F8B8306BB1E21892F8B020012AD3D0B1
:108D1000042A0CD094F8B020042A02D1012284F84D
:108D2000B020234493F8B030023B022BC4D8A846AD
:108D3000C2E7022194F8B830204AD15494F8B80020
:108D400003F028F9831E022B8246D4D80121204645
:108D5000FFF728FE1B4B1B689842CCD01A4B1B68B0
:108D60009842C6D14FF0010AC5E701212046FFF71E
:108D700019FE144B1B68984218BF052294F8B830AE
:108D8000234414BF83F8B02083F8B0B0B8E70122C1
:108D900094F8B830234483F8B0208DE7012511E71B
:108DA000631893F8B9208AB10131C9B2012984F856
:108DB000B810F5D969E000BF382800207073002092
:108DC0003DB8F396342400200420002093F8B030FE
:108DD00003F0FB03013B18BF01237B4305FB01327A
:108DE0002244D2F82080B8F1000F3FF42DAF15FBDC
:108DF0000131012342460093214440230EA806F08E
:108E00000CFA00285DD100230DF1160206A90EA868
:108E100006F051FA002838DB50D1BDF816300C2B83
:108E200051D14046069907AA07F0E6FC68BB9DF8B9
:108E30001C30012B29D8E21892F8B0206B43023A7B
:108E4000022A8CBF0022012207FB02332344197D32
:108E50009DF820209142D6D80AD3597D9DF8212033
:108E60009142D0D804D3DA8ABDF822309A42CAD2CD
:108E700094F8B830234493F8B020012A1CD0023A69
:108E8000012A02D8012283F8B02000254FF0580AA9
:108E9000012D84F8B8501BD90023DFF8B482AD4D02
:108EA000AD4F0E93012B84F8B83040F2E7800E9B53
:108EB000022B00F02D81FEE70422E4E794F8B810BD
:108EC00072E70328E1D140F20113A4F8B030DCE7E7
:108ED000621992F8B970002F40F0C5800AA806F018
:108EE000FEFA92F8B030042B8DF82F3008D8012B01
:108EF00008D800F0B0804FF0FF3382F8B030AAE01D
:108F0000052BF6E70AFB0543194628462C31DA6C97
:108F100008F04FF90128014640F0AD8020460EAA26
:108F20000E9706F05FFA054600287FF48DAE94F8A0
:108F3000B8300AFB03431F6A002F3FF485AED3F815
:108F40004C80B8F1000F3FF47FAE81464FF0580BD4
:108F50009B6A0293029B4B451BD094F8B83029467C
:108F60000BFB03435B6A384603EBC9035A680023D3
:108F70000392FFF753FC00287FF466AE039A0E9B22
:108F800015449D4274D3D4F8B450B3FBF5F305FBFC
:108F90000355D4F8B40006F01DFA582394F8B8200D
:108FA00003FB0242536A926A1968013A03EBC20357
:108FB0000022D3F804E09C4672449042A3F10803D7
:108FC000F7D8DCF800000023411A3846FFF726FCEA
:108FD000034600287FF438AECDE900053A46414605
:108FE0002046FFF789FD00287FF42EAE384602F0B8
:108FF00059FF00287FF428AE582794F8B8002A4675
:1090000007FB0043196A08F0E2F8034600287FF4E2
:109010001BAE94F8B820014607FB0242126D404691
:10902000526806F072FA034600287FF40DAE94F8F9
:10903000B82007FB0242D2E91402013A50F832503C
:10904000016800EBC2077A684046691A06F05DFACB
:1090500000287FF4F9AD94F8B830234493F8B03089
:10906000FF2B3FF4F1AD94F8B8500135EDB20FE7A6
:1090700009F101096EE70028EDD0E5E5234493F8F6
:10908000B9208DF81C209DF81C2002F0FF013AB198
:109090000E9B01330E9394F8B8300133DBB201E735
:1090A00093F8B030012B0FD0204606F0EFF958B1FD
:1090B000D8F8005000235826012B84F8B83012D974
:1090C000284615B0BDE8F08F00212046FFF76AFC66
:1090D0002B688342ECD1D8F800209A42E8D03A6855
:1090E0009A42D5D1E4E7E21892F8B9205AB906FBC2
:1090F0000343D86C07F07FFB94F8B83006FB0343BA
:10910000186A07F078FB94F8B8300133DBB2D3E784
:1091100094F8B9301BB194F8BA30ABB90123582593
:1091200005FB034284F8B830106A06F058F8307135
:1091300094F8B83005FB03431B6A5B68B36094F88E
:10914000B83003FB05453560024B1D68B2E700BF30
:10915000082000203424002004200020054B10B5F6
:10916000BC2204460021184608F0ACFB2146FFF75C
:1091700019FD10BD386800200A4619B1024B0021C4
:109180001B681847704700BF0C2000200822F0B56C
:1091900089B006F0CBFBCB6A002703930B6B0C4620
:1091A00004934B6B064605938B6BCDE901770693D1
:1091B000CB6B0097079313466A461146104606F09C
:1091C000C8FA31460546304606F0C3FA216B05441D
:1091D0000391616B10460491A16B0591E16BCDE9A0
:1091E0000617114606F0B5FA31460544304606F03A
:1091F000B0FA0544206ACDE904770090606A0397CD
:109200000190A06A0290A06B0690E06B0790304638
:1092100006F09FFA0544606AD4F838C00090A06A4E
:10922000CDF810C00190E06AD4F83CC00290606BA9
:10923000CDE905C00390206A0790304606F089FA10
:109240000544E06ACDE904770090206B0397019014
:10925000606B0290206A0690A06A0790304606F084
:1092600098FB236B2D1A0093636B30460193A36B1D
:109270000293E36B0393636A0693E36A07930823FD
:1092800006F087FB636B2D1A0093A36B30460193A6
:10929000E36B0293236A0393636A0493A36ACDE9A1
:1092A0000537236B0793082306F073FBA36B2D1A76
:1092B0000093E36B3046CDE90137636A0393A36AF9
:1092C0000493E36A0593636B0793082306F061FB3D
:1092D0002D1A10D40D4C35B908223146204606F01F
:1092E00031FB01280FD0082322463146304606F0D4
:1092F00050FB2D1AEFE7054A08233146304606F0A9
:1093000028FA2D18F8D409B0F0BD00BF681E01007E
:1093100000487047641E01002DE9F04F00270368E4
:109320009DB002934368DFF8BCA103938368DDE935
:1093300002460493C36805930369DDE904BE0693FE
:10934000436907938369DDE9062C0893C36998464E
:109350000993089B0093CD590CAB2DBA5AF8049B86
:10936000DD514FEAF223A94483EAB213009D83EA58
:1093700072634B4425EA020502EA0C0985EA0905F5
:109380002B44434486EA0B054FEA743888EAB40854
:10939000254006EA0B0985EA090588EAB45804372E
:1093A000A844402F03EB0E054344DE46DDF8008061
:1093B00040F088804FF0100A4B490A9151460AF15B
:1093C000010A0DF1700E0AF00F070EEB870757F830
:1093D000407C01F00F094FEAB748019788EAF71877
:1093E00001F10E0707F00F070EEB870757F8407CD7
:1093F00009314FEAF74E8EEA774ECDF82CE001F0B6
:109400000F010DF1700E0EEB81010EEB890959F879
:1094100040EC51F8401CBAF1400F7144DDF804E013
:1094200088EADE08DDF82CE041448EEA972E71448C
:1094300005EA02084FEAF52E2CEA050787EA080735
:109440008EEAB51EDDF828808EEA756E774458F8EE
:1094500004EF49F8401C77440F4400994FEA733EEB
:10946000394484EA0607CDF828808EEAB30E07EA6D
:10947000030704EA06088EEAB35E87EA0807774422
:109480000F4401EB0B0ECDF800C0B34622D1029978
:109490003944016003991944049B4160234483606B
:1094A000059B3344C360069B73440361079B2B44B5
:1094B0004361089B13448361099B6344C3611DB0EE
:1094C000BDE8F08FB346CDF800C0264694461C4652
:1094D0002A4640E7944626462A461C4675463B46A1
:1094E0006CE700BF141F0100501F010010B50446B7
:1094F000C8B17022002106F084FF0B4B0B4A0C49C7
:10950000C4E900230B4B0C48C4E902130B4BC4E91C
:10951000040301200A4BA36103F17453A3F5230351
:10952000A3F69243E36110BD85AE67BB67E6096AA7
:1095300072F36E3C3AF54FA57F520E518C68059B35
:10954000ABD9831FBFF36F8F72B600234FF0FF308C
:10955000094A03F120010133102B42F82100F8D110
:1095600000234FF0FF30044A03F160010133102B58
:1095700042F82100F8D1704700E100E04FF0FF33DE
:1095800001212DE9F04300253D4A3E4E51603E4FFA
:10959000C2F84833DFF8F480C2F8083302F580528D
:1095A000516085B0C2F84833C2F808334FF0FF3934
:1095B00056F8044B44F30730C4F8089300F056FD06
:1095C0000123636000236846C4F84C31D4F84C2171
:1095D000C4F81031D4F81021C4F84431D4F844212F
:1095E000C4F80035D4F80C25DFF8A4C00092D4F8F4
:1095F00014250192D4F808250292D4F81025C4F855
:109600000C950392C4F81495C4F80895C4F8109505
:1096100050F8042B511C0FD002F01F01520928D022
:10962000012A28D1624602EB8102D2F800123940A9
:1096300041F00201C2F800120133042BE8D180226C
:109640000021A01808F03EF98022002104F5C07026
:1096500008F038F95DB14FF0FF330E4AC2F8083513
:109660004FF05022C2F8083305B0BDE8F083012561
:109670009CE74246D7E70023803153F82130FFDED4
:109680000040015018200100F0F0FCFF002584503C
:109690000028845000700150014B1B68184700BF20
:1096A0001020002030B585B004460D461022002160
:1096B000684608F007F902238DF80230044B2A4669
:1096C00021466846019305F029FB05B030BD00BF77
:1096D0009996000080B505460E461746984604F058
:1096E0003FFE034608F068F90446DFF8189042464A
:1096F00049F8003039463046A84754F8090000F0D0
:109700004FFC00BF080000002DE9F047058B044620
:109710002807904611D4022905F0070540F0CC80B7
:10972000204606F05FFF78B10138218B042811D85C
:10973000DFE800F0C2106D85950001290CBF45F0EF
:10974000100545F02005258388F31188BFF36F8F3E
:10975000BDE8F08701F0070AAA4500F0A5800027C0
:10976000B9463E46A368002B00F0BC8041F00801DA
:10977000218388F31188BFF36F8FA168002900F05F
:10978000BA800D68002900F0B68033465246204664
:10979000D1F80480C047002D76D02B6829461D469D
:1097A000F0E701F007035A1F012A1BD8002221F01D
:1097B0000701062B276889B2C4E9002209D13B467C
:1097C00003E0628B013262831B68002BF9D141F008
