:020000040000FA
:1000000060A90420393300006B9A000025330000FA
:100010002533000025330000253300002533000080
:100020000000000000000000000000009534000007
:1000300025330000000000003534000025330000A7
:100040002536000025360000253600002536000044
:100050002536000025360000253600002536000034
:100060002536000025360000253600002536000024
:100070002536000025360000253600002536000014
:100080002536000025360000253600002536000004
:1000900025360000253600002536000025360000F4
:1000A00025360000253600002536000025360000E4
:1000B00025360000253600002536000025360000D4
:1000C00025360000253600002536000025360000C4
:1000D00025360000253600002536000025360000B4
:1000E00025360000253600002536000025360000A4
:1000F0002536000025360000253600002536000094
:100100002536000025360000253600002536000083
:100110002536000025360000253600002536000073
:100120002536000025360000253600002536000063
:100130002536000025360000253600002536000053
:100140002536000025360000253600002536000043
:1001500025360000034613F8012B002AFBD1181A9C
:100160000138704710B509F0D9FA094C02F0B6F819
:100170000028FBD123782BB900214FF476700AF0C8
:1001800063F9F3E70348BDE8104006F015B900BF76
:10019000005C0020A026002010B588B04FF47672D5
:1001A0000023CDE9062300236FF00F02094CCDE9AF
:1001B0000323CDE9013300934FF440722046064BF0
:1001C000064906F0D9FA2046054908B0BDE81040B6
:1001D0000AF0A4B8C026002065010000205D0420BC
:1001E00002B000000122044B1A704FF0FF324FF0B2
:1001F000FF33024806F014B9005C0020A02600205E
:10020000B0B5474B474A84B0C2F80036C2F804364E
:10021000C2F80836C2F80C36C2F81036C2F81436E6
:10022000C2F81836C2F81C3602F58052C2F8003601
:1002300000AFC2F80436C2F80836C2F80C36C2F86D
:100240001036C2F81436C2F81836C2F81C3603212C
:10025000354A364809F0DAFA07F0D0FCFFF79CFF80
:10026000381D00F053FF324B1B68984205D0012126
:10027000304A2E4809F0CAFAFEE7FB6803212E4AED
:100280002A4809F0CCFA7B686C468AB0187D597D03
:100290006A46DB8AC2E907130523284DC2E90550E7
:1002A00042F8103F00234FF42351204802F0ECF8AD
:1002B000A5460321224A1D4809F0A8FAFFF792FF3C
:1002C0003946387A00F042F8044608B109F03EFC9D
:1002D0003A68FB681B4D13447A68128913442B60FB
:1002E00004F0D6FB01F07AF901F05CF903F054F860
:1002F00084F30B8884F30A882B681B6883F30888CF
:1003000084F31488BFF36F8FBFF36F8F2B685B6824
:10031000984701210C4A054809F078FAFEE700BF2A
:100320003546526E008001500AB00000A0AA0000BD
:10033000E42D00201EB000003CB0000066B00000BC
:100340007FB00000E02D00209FB00000034607B5FD
:1003500058B10022064800920121064A09F069FAC4
:100360006FF0150003B05DF804FB0860FAE700BF0A
:10037000A0AA0000BDB0000021B1012906D06FF095
:1003800015007047044B53F830007047024B03EBE5
:10039000C0035868704700BFE8AA00002DE9F04F7D
:1003A0009B46D9B0794B039038A8DDE963790E46B6
:1003B00014461D6801F0CAF83FB1B9F1000F04DD21
:1003C0004A46394638A808F047FC4FF00008338900
:1003D0007289D6F80CA013449A44C24545D838A96E
:1003E0000CA808F05FFC659B5BB10CAF0DF1500CE5
:1003F0003A4603CA624518605960174603F108037C
:10040000F6D100232246009331464FF6FF7306A82B
:1004100007F0F5FB074628BB214603980B9E07F023
:10042000D0FCB0421ED34FF0FF36DFF864B1DFF8E6
:1004300064910DF1120304AA05A906A807F02DFC8A
:1004400000280FDB40F09A80059906A807F071FCA0
:1004500010BB4FF6FF71BDF812004F4A32F8023B55
:100460008B4217D1494B1D688BE0629BAAEB0809B0
:10047000994528BF99465A464B464146204609F0C1
:1004800067FA0028EED14A46594638A808F0E4FB3E
:10049000C844A2E79842E1D1BDF81230102B17D022
:1004A000222B4DD0012BC4D1BDF81030202BD9D830
:1004B0002046059938AA09F04BFA06460028D1D102
:1004C0009DF810A0BAF1200F19D94FF0FF36B0E710
:1004D000BDF81070202FC5D13B462046059938AA9B
:1004E00009F036FA0028BDD13A4638A90CA807F021
:1004F00061FCDBF800308342B4D1012799E7D9F8D9
:100500000030DFF898800393039B9E42DDDA1CA83D
:1005100001F01CF8D8F804201CA8126858F8081B31
:1005200008F09AFB1CA914A808F0BCFB524638A995
:1005300014A80AF048F800283FF47BAF0136E3E73F
:10054000731C3FF476AFD9F800309E42BDDABDF897
:100550001030802B86D82046059938AA09F0F8F982
:1005600000287FF47FAFF6B22021BDF8103000964E
:1005700038AA0CA800F014F80546A6E7002F3FF4AF
:1005800071AF284659B0BDE8F08F00BFC8240020E5
:10059000E42D0020F8AA0000C4AF0000FCAA00006F
:1005A0002DE9F04798B017461E469DF880203B4B3A
:1005B000814653F8321003EBC2035B68039118685D
:1005C000DFF8DC800144302304AA03A8D8F80050E7
:1005D00007F0FBFC00284FD1DDE903431C44214612
:1005E00008AB05AA03A807F018FD002844D1069A15
:1005F000072A41D12B49079809F0E5FF00283BD194
:10060000099A082A38D128490A9809F0DCFF98BBD2
:10061000214604AA03A807F0ECFC68BBDDE903A3AC
:100620000AEB0302944227D1412B25D13E443023CB
:10063000314605AA04A8049707F0C7FC1B4DA0B9D2
:10064000DDE9043213449E420FD3324604A908A8C0
:1006500007F07DFB48B9324604A910A807F077FBE4
:1006600018B99AF80030042B0AD0D8F800302D6859
:10067000AB4218BFD8F80050284618B0BDE8F08744
:1006800000F076FE20220090494608AB0AF10100F6
:1006900008F07FF90128E8D12B68E8E7FCAA000000
:1006A000C8240020E7B00000DEB00000E42D0020E8
:1006B0002DE9F74F9846836807468B428A461446D1
:1006C0005AD95B1A934257D3B8F1000F44D06A4607
:1006D00007F079FA002851DB0AF1FF3ADDF80090C3
:1006E000A244284D284C294E6A465146384607F008
:1006F0006AFA002842DBDDE900BA3846524659461C
:1007000009F050F9002839DBC5F80046C5F8044661
:10071000C5F80846C5F80C46C5F81046C5F8144695
:10072000C5F81846C5F81C46C6F80046C6F8044683
:10073000C6F80846C6F80C46C6F81046C6F8144671
:10074000C6F81846C6F81C46B8F1000F0ED0CB45C7
:1007500014D90BF1FF3AC7E701396A46214407F083
:1007600032FA00280ADBDDF80090BAE7DA44D14516
:1007700004D30AF1010AB7E74FF0FF3003B0BDE838
:10078000F08F00BF008001503546526E009001503E
:10079000034637B54FF48072084693F8B8401349C2
:1007A0000192620051F82250A8420ED1582101FB5B
:1007B000043201FB0434526A283401A909F037F9E4
:1007C00008B9019B236003B030BD013251F82220EB
:1007D000904208D1582101FB043201FB0433126D11
:1007E00003F15404E9E70120EDE700BF04AB00008A
:1007F00070B590F8B850104E6D0056F825100446AC
:10080000FFF7C6FF98B9013556F825102046FFF7C7
:10081000BFFF054668B9582294F8B83002FB03437D
:10082000186A09F0D4F8C4F8B400284670BD012550
:10083000FBE70925F9E700BF04AB00002DE9F04F05
:100840004FF02C0987B0582509FB01F990F8B8A0A2
:10085000044605FB0A930344D3F820800E4604AFF8
:10086000B8F1000F01D109F071F9404609F0B6F86E
:10087000024694F8B80015FB009525446B1E03351D
:1008800013F8011F914264D1AB42F9D1504B1D685E
:1008900028460C37BD46BDE8F08F4E4B1D684E4BC9
:1008A0001B68AB421BD0C6B10121404607F027FBB5
:1008B0004A4B6C4688B004AA4949C2E905134FF473
:1008C00000739383474B42F8103F00234FF4E251EB
:1008D000454801F0D9FDA546D8E7444BE9E7582241
:1008E00094F8B8305343E218D16C8845D0D1D2F88F
:1008F000209000227A602C2202FB063323441989BF
:1009000004234046FA18194409F022F80028BDD102
:1009100094F8B830012B18D0002BB9D1D9E90123B4
:10092000134479688A4201D89942B1D90121304AE9
:100930002D4808F06BFF01212E4A2B4808F066FF76
:100940003146404607F0DBFAA0E74FF082732A4AAF
:10095000E7E758232C2103FB0AF201FB062204EBF4
:10096000020CDCF81050EB0690D4A158234A9142B7
:1009700093D1DCF80C20BCF8081089188DD2BCF893
:100980000A20521889D2D8F808108A4285D240F637
:100990000C6B15EA0B0B80D1314604F07BF9054650
:1009A000174A5823126890427FF479AF0AFB0391EB
:1009B0004FF48073424600932046CDE902BB114BB1
:1009C000CDF804B02144FFF7E9FC054667E700BF16
:1009D000C4240020C8240020E42D0020F7B000002B
:1009E00001B1000003000001A0AA0000EFB0000068
:1009F00024B1000068B10000008800013DB8F39602
:100A0000C0240020015C00202DE9F84F8846914663
:100A10009A460026DFF88CB0234D244C0B9B9E4257
:100A200001D300200FE00B9B40469F1BB7F5806F62
:100A300028BF4FF480671B4A3B4606EB0A0108F0CB
:100A400087FF10B10120BDE8F88F0A993B465A464E
:100A50004846711808F091FF0028F3D1144BC5F8EF
:100A600000463E44C5F80446C5F80846C5F80C469D
:100A7000C5F81046C5F81446C5F81846C5F81C4612
:100A8000C3F80046C3F80446C3F80846C3F80C464A
:100A9000C3F81046C3F81446C3F81846C3F81C46FA
:100AA000BCE700BFE82D0020008001503546526EA3
:100AB000009001502DE9F04F002504460E46A8464F
:100AC000934FDFF8509295B0012D84F8B8502BD990
:100AD0000025DFF8449219F8017B012F19D139461E
:100AE0002846FFF749FC0EA9C0B202F015F80146EE
:100AF000002840F0F9800E98826808F053FF014604
:100B0000002840F0F180854A2B463946814808F09C
:100B100086FE002D00F0E680B8F1000F00F06B813A
:100B200000232C275825EDE0631993F8B91000290C
:100B30004CD14FF0580B0BFB054207EBC52353621A
:100B400003F5805328461365FFF716FC94F8B81098
:100B5000C0B20BFB0141203101F0DEFF60B9012181
:100B60002846FFF709FC94F8B810C0B20BFB01410E
:100B70004C3101F0D1FF08B108F0E8FF2046FFF743
:100B800037FE054698B90021204607F071F98346E3
:100B900008B394F8B83002214846614A08F03FFE95
:100BA000012294F8B830234483F8B0200EE04FF4CB
:100BB00080735C4A0221484608F031FE012294F815
:100BC000B8309542234483F8B020DCD194F8B85073
:100BD0000135EDB278E7204600F0A6FA0028DFD014
:100BE0000AA807F06EF907F075F90546A0B994F860
:100BF000B830002BC0D094F8B020042A04BF0122E2
:100C000084F8B020012BB7D094F8B130042BB3D1C5
:100C1000012384F8B130AFE79DF82FA0BAF1010F9E
:100C20004ED1582294F8B830CDF838B002FB0343C7
:100C30003D4AD96AD86C91422BD1998E04230EAAD1
:100C4000194408F085FEF8B14FF0050B94F8B83060
:100C5000234483F8B0B094F8B8306BB1E21892F83E
:100C6000B020012AB2D0042A0CD094F8B020042A73
:100C700002D1012284F8B020234493F8B030023B23
:100C8000022BA3D8A846A1E7022194F8B830224A43
:100C9000D15494F8B80004F0A9F8831E022B8346BF
:100CA000D4D801212046FFF7C9FD204B1B6898428C
:100CB000CCD01F4B1B689842C6D14FF0010BC5E743
:100CC00001212046FFF7BAFD184B1B68984218BF58
:100CD000052294F8B830234414BF83F8B02083F879
:100CE000B0A0B8E70125F6E6124A00912B46012193
:100CF000084808F09EFD0CE7E21892F8B910D9B147
:100D00000133DBB2012B84F8B830F5D973E000BFB2
:100D1000E8310020A0AA0000015D0020EEB1000033
:100D2000C7B100008AB100003DB8F396E42D002061
:100D3000C424002014B2000092F8B01001F0FB01AE
:100D4000013918BF0121794305FB03122244D2F86F
:100D50002080B8F1000F3FF40FAF03FB0511012312
:100D600042460093214440230EA806F048FF002885
:100D70005DD100230DF1160206A90EA806F08DFF25
:100D8000002838DB50D1BDF816300C2B51D140462D
:100D9000069907AA08F0DCFD68BB9DF81C30012B02
:100DA00029D8E21892F8B0206B43023A022A8CBF8D
:100DB0000022012207FB02332344197D9DF82020E5
:100DC0009142D6D80AD3597D9DF821209142D0D89E
:100DD00004D3DA8ABDF822309A42CAD294F8B830E5
:100DE000234493F8B020012A1CD0023A012A02D8E9
:100DF000012283F8B02000254FF0580A012D84F815
:100E0000B8501BD90023DFF8E482B94DB94F0E93D7
:100E1000012B84F8B83040F200810E9B022B00F0C9
:100E20004681FEE70422E4E794F8B83068E7032837
:100E3000E1D140F20113A4F8B030DCE7621992F876
:100E4000B970002F40F0E4800AA807F03AF892F851
:100E5000B030042B8DF82F3008D8012B08D800F0C3
:100E6000C4804FF0FF3382F8B030BEE0052BF6E7C8
:100E70000AFB0543194628462C31DA6C09F035F88F
:100E80000128014640F0C18020460EAA0E9706F0C8
:100E90009BFF054600287FF46FAE94F8B8B003219D
:100EA0005B46954A954808F0BAFC0321944A93485A
:100EB00008F0ACFC94F8B8300AFB03431F6A002F1B
:100EC0003FF45AAED3F84C80B8F1000F3FF454AE63
:100ED000A9469B6A0293029B4B451CD0582294F86A
:100EE000B830294602FB03435B6A384603EBC9036B
:100EF0005A6800230392FFF7DBFB00287FF43CAE27
:100F0000039A0E9B15449D427CD3D4F8B450B3FB96
:100F1000F5F305FB0355D4F8B40006F04DFF582354
:100F200094F8B82003FB0242536A926A1968013AA6
:100F300003EBC2030022D3F804E09C4672449042C3
:100F4000A3F10803F7D8DCF800000023411A384663
:100F5000FFF7AEFB814600287FF40EAE03215B460F
:100F6000684A6648009508F064FC4B463A4641469C
:100F70002046CDE90095FFF747FD00287FF4FCAD42
:100F8000384603F0BBFE00287FF4F6AD582794F8EE
:100F9000B8002A4607FB0043196A08F0B4FF03466D
:100FA00000287FF4E9AD94F8B820014607FB02421F
:100FB000126D4046526806F09AFF034600287FF4FF
:100FC000DBAD94F8B82007FB0242D2E91402013AE3
:100FD00050F83250016800EBC2077A684046691A3F
:100FE00006F085FF00287FF4C7AD94F8B83023449D
:100FF00093F8B030FF2B0BD10121434A3F4808F052
:1010000005FCB9E509F1010965E70028EDD0B3E574
:1010100094F8B8500135EDB2F0E6234493F8B920C6
:101020008DF81C209DF81C2002F0FF013AB10E9BA8
:1010300001330E9394F8B8300133DBB2E8E693F84D
:10104000B030012B0FD0204606F012FF58B1D8F86F
:10105000005000235826012B84F8B83012D92846B6
:1010600015B0BDE8F08F00212046FFF7E7FB2B68A5
:101070009842ECD1D8F800309842E8D03B689842CA
:10108000D5D1E4E7E21892F8B9205AB906FB034338
:10109000D86C08F05CFC94F8B83006FB0343186A7F
:1010A00008F055FC94F8B8300133DBB2D3E794F87C
:1010B000B9301BB194F8BA30ABB90123582505FB00
:1010C000034284F8B830106A06F07BFD307194F862
:1010D000B83005FB03431B6A5B68B36094F8B83013
:1010E00003FB05453560024B1D68B2E7C8240020AC
:1010F000E42D0020C424002046B20000A0AA000075
:1011000076B200008FB20000D4B20000054B10B5DB
:10111000BC2204460021184609F04DFA2146FFF78B
:10112000C9FC10BDE85100205822F8B590F8B8303D
:1011300002FB0300D0F828C0466DBCF5807F02D8C2
:10114000B6F5807F37D9204A022120E0AC4215D184
:10115000476A07EBC2077F6801323C44076D07EB23
:10116000C3077F6801333D446245EFD3B342EDD3FB
:10117000624501D1B34224D0144AE5E70FD2476A51
:10118000022907EBC2077F683C4405D1104A114889
:1011900008F03CFB0020F8BD01210132E4E7076DB7
:1011A000012907EBC3077F683D4401D1084ACBE71B
:1011B00002210133D8E700210B460A460D460C46B2
:1011C000D2E70120E7E700BFDBB2000037B3000041
:1011D00005B30000A0AA00000A4619B1024B002185
:1011E0001B681847704700BFCC2400200822F0B5C8
:1011F00089B007F049F8CB6A002703930B6B0C46C4
:1012000004934B6B064605938B6BCDE901770693F0
:10121000CB6B0097079313466A461146104606F0BB
:1012200046FF31460546304606F041FF216B054436
:101230000391616B10460491A16B0591E16BCDE9BF
:101240000617114606F033FF31460544304606F0D6
:101250002EFF0544206ACDE904770090606A039769
:101260000190A06A0290A06B0690E06B0790304658
:1012700006F01DFF0544606AD4F838C00090A06AEB
:10128000CDF810C00190E06AD4F83CC00290606BC9
:10129000CDE905C00390206A0790304606F007FFAD
:1012A0000544E06ACDE904770090206B0397019034
:1012B000606B0290206A0690A06A0790304607F0A3
:1012C00016F8236B2D1A0093636B30460193A36BC2
:1012D0000293E36B0393636A0693E36A079308231D
:1012E00007F005F8636B2D1A0093A36B304601934A
:1012F000E36B0293236A0393636A0493A36ACDE9C1
:101300000537236B0793082306F0F1FFA36B2D1A13
:101310000093E36B3046CDE90137636A0393A36A18
:101320000493E36A0593636B0793082306F0DFFFDA
:101330002D1A10D40D4C35B908223146204606F03E
:10134000AFFF01280FD0082322463146304606F071
:10135000CEFF2D1AEFE7054A08233146304606F046
:10136000A6FE2D18F8D409B0F0BD00BF18AB0000E0
:101370000048704714AB00002DE9F04F00270368C8
:101380009DB002934368DFF8BCA103938368DDE955
:1013900002460493C36805930369DDE904BE06931E
:1013A000436907938369DDE9062C0893C36998466E
:1013B0000993089B0093CD590CAB2DBA5AF8049BA6
:1013C000DD514FEAF223A94483EAB213009D83EA78
:1013D00072634B4425EA020502EA0C0985EA090515
:1013E0002B44434486EA0B054FEA743888EAB40874
:1013F000254006EA0B0985EA090588EAB45804374E
:10140000A844402F03EB0E054344DE46DDF8008080
:1014100040F088804FF0100A4B490A9151460AF17A
:10142000010A0DF1700E0AF00F070EEB870757F84F
:10143000407C01F00F094FEAB748019788EAF71896
:1014400001F10E0707F00F070EEB870757F8407CF6
:1014500009314FEAF74E8EEA774ECDF82CE001F0D5
:101460000F010DF1700E0EEB81010EEB890959F899
:1014700040EC51F8401CBAF1400F7144DDF804E033
:1014800088EADE08DDF82CE041448EEA972E7144AC
:1014900005EA02084FEAF52E2CEA050787EA080755
:1014A0008EEAB51EDDF828808EEA756E774458F80E
:1014B00004EF49F8401C77440F4400994FEA733E0B
:1014C000394484EA0607CDF828808EEAB30E07EA8D
:1014D000030704EA06088EEAB35E87EA0807774442
:1014E0000F4401EB0B0ECDF800C0B34622D1029998
:1014F0003944016003991944049B4160234483608B
:10150000059B3344C360069B73440361079B2B44D4
:101510004361089B13448361099B6344C3611DB00D
:10152000BDE8F08FB346CDF800C0264694461C4671
:101530002A4640E7944626462A461C4675463B46C0
:101540006CE700BFC4AB000000AC000010B504465F
:10155000C8B17022002107F002FC0B4B0B4A0C496A
:10156000C4E900230B4B0C48C4E902130B4BC4E93C
:10157000040301200A4BA36103F17453A3F5230371
:10158000A3F69243E36110BD85AE67BB67E6096AC7
:1015900072F36E3C3AF54FA57F520E518C68059B55
:1015A000ABD9831FBFF36F8F72B600234FF0FF30AC
:1015B000094A03F120010133102B42F82100F8D130
:1015C00000234FF0FF30044A03F160010133102B78
:1015D00042F82100F8D1704700E100E04FF0FF33FE
:1015E00001212DE9F04300253D4A3E4E51603E4F1A
:1015F000C2F84833DFF8F480C2F8083302F58052AD
:10160000516085B0C2F84833C2F808334FF0FF3953
:1016100056F8044B44F30730C4F8089301F05AFF1E
:101620000123636000236846C4F84C31D4F84C2190
:10163000C4F81031D4F81021C4F84431D4F844214E
:10164000C4F80035D4F80C25DFF8A4C00092D4F813
:1016500014250192D4F808250292D4F81025C4F874
:101660000C950392C4F81495C4F80895C4F8109525
:1016700050F8042B511C0FD002F01F01520928D042
:10168000012A28D1624602EB8102D2F800123940C9
:1016900041F00201C2F800120133042BE8D180228C
:1016A0000021A01808F087FF8022002104F5C070F7
:1016B00008F081FF5DB14FF0FF330E4AC2F80835E4
:1016C0004FF05022C2F8083305B0BDE8F083012581
:1016D0009CE74246D7E70023803153F82130FFDEF4
:1016E00000400150C8AC0000F0F0FCFF0025845021
:1016F00000288450007001502DE9F04F91B0009304
:1017000002F004030293C2F3C203013384070546C7
:101710000E46DDF868800392059340F0BB81041DFE
:1017200030B1072909D86FF01B0011B0BDE8F08F68
:1017300001F007063444C6F10806009B4FF000098B
:101740004FF0040A591E4FF0FF334F460193CB462A
:101750005346CDF810900DB1009A226005980028EC
:1017600000F3E8809848009A824203D39748824267
:10177000C0F0E080039AA4EB050E92074FEA9E00AA
:1017800000F103810F2F00F2B180002D00F00581E0
:1017900007F140020DEB020C019A0CF8200C0CF83A
:1017A000102C049801300490E7E07A285DD84B288B
:1017B0000ED8472859D829282DD8252852D054D8B2
:1017C00020287AD02338D0F1000B4BEB000B74E0CB
:1017D0004C382E2849D8DFE800F07048484848487F
:1017E0004848484848484B48484848484848485965
:1017F000484B4B595959704B6D487048184B184815
:1018000048827F4B48484B487F0000204FF0000B38
:101810004FF0040A38E001222A38C0B202FA00F080
:1018200010EA0E0F49D110F0625C2FD110EA020BC2
:1018300043D06046013C5444B4FBFAF40AFB04F480
:10184000002D61D0A3EB050CA444B4453FF66BAF6B
:10185000002868D1042B47D158F8043B23600423A7
:1018600004342AE0019A013A01924FF0000B24E07F
:1018700011F8010C6C2834D1002011F8023C834689
:101880006C2BC5D14FF0080A5346D3E708F107087F
:1018900028F00708073424F00704F8E802AB35B154
:1018A00006982044B0423FF63EAFC4E900AB4FF08B
:1018B000000B08344FF0080A534611F8010F0028B6
:1018C00078D0BBF1000F7FF470AF2528F5D14FF031
:1018D000010B019B013301934FF0040AECE75846DA
:1018E00094E700208346A5E7082B02D06FF015008F
:1018F0001BE708F1070828F00708F8E80223C4E905
:10190000002308230834D8E768B9042B02D108F172
:101910000408A4E7082BE9D108F1070828F0070814
:1019200008F10808EDE7059A013A059258F8042BEA
:10193000009210E7039A900720D54FF0010CA4EB1A
:10194000050E4FEA9E00BEF5007FCFD20F2FCDD8F7
:10195000F5B107F140020DEB020E019AC0B20EF88C
:10196000200C0EF8102CBCF1000F3FF41AAF60F001
:101970007F000EF8200C09F101090137C5F10802BA
:101980004FF6DA7E0434069297E74FF0000CDAE760
:10199000BCF1000F01D00136EFE7029802360028B3
:1019A000EBD10098CDE90631FEF7D4FBDDE9063135
:1019B0000644E2E7631BB3F5806F97D245B9A6F101
:1019C0000804E018B1E600BFD0A600007CBE00000D
:1019D000029A9B0828602B709DF81030C2B1EB7002
:1019E00085F80290B9F1000F05D0002208A8C5F1D2
:1019F000010C97420ED14FF0000AC5F101030DF121
:101A0000200801930DF1300B574512D1601B8CE675
:101A10006B70E5E710F8013B190608D50CEB040ED6
:101A2000B64503F07F033FF67EAE04F8013B01327A
:101A3000DFE7B9F1000F03D098F90020002A17DB87
:101A4000029BD3B11AF80B2004F8012B0022019B52
:101A500018191044B0423FF666AE98F8000000999D
:101A600004F8010B2046039208F098FD039A1444F1
:101A70000AF1010A08F10108C6E798F8002055F8B4
:101A800022300093029B009845F82230FEF762FB5B
:101A9000421CDCE76FF00D0047E600BF2DE9F04F78
:101AA00097B000AFD7F880B03B62CBF3C0030446D9
:101AB000894690F802A0FA62BB6141B94578007886
:101AC0000AEB800020444D4517D8A0EB0409E378C9
:101AD000FB61BAF1000F02D01BF0010F16D1FB69B8
:101AE00053BBFB6A1BB1494620463A6A98474D46AC
:101AF00028465C37BD46BDE8F08F461C3046FEF7F1
:101B000029FB0130304409F10109DCE762682378E0
:101B10007A62FA6A9900796104EB8301002A40F045
:101B200001810E464FF000084D4601EB0A094E4573
:101B30004CD101EB0A0610E01BF0020FD1D0237844
:101B40009A007A61626804EB83017A62FA6A002A79
:101B500077D14D46904601EB0A061BF0050F0CBFEE
:101B600002230123FB62FB6906EB430A0BF002032D
:101B7000BB625645BCD016F8021B16F8013C54F85F
:101B80002390994B994502D3984B994536D3BB691D
:101B9000002B40D0786A07F0F5F900283BD0E946E1
:101BA0008AB06A46924B53617B6AC2E906314FF4B0
:101BB000007313848F4B42F8103F00234FF41251EF
:101BC0008D4800F061FC023DCD46D2E716F8013B9E
:101BD000F96254F82300FEF7BDFAD7F88430F96AA9
:101BE00001304BB1D7F8883098453EBFD7F88430E4
:101BF00023F8180008F10108054498E7BB6923B1F0
:101C0000786A07F0BFF90028C9D11BF0010F05D190
:101C1000FB6AED1AADE7BB6A002BAAD04846FEF777
:101C200099FAD7F8843053B1D7F8883098453FBF38
:101C3000D7F88420431C22F8183008F10108054425
:101C400097E7BAF1000F73D01BF0040673D0D046AB
:101C5000002607F1480052463B61B96208F09EFC3D
:101C6000B96A3B6901EB0A02BA62FA69F969520082
:101C7000FA60BA6A02EB41023A610BF00202BA6002
:101C80003A69B96A8A4258D162781BF0020F18BFCC
:101C900000217A6208BF4FEA5801B2181BF0010F09
:101CA000D2B240F09F801BF0040F14BF40460020CA
:101CB000BB616270A070E17020463A6A7969FB6A84
:101CC0009847051EFFF614AFBB69414623707B6A37
:101CD0003A6A6370FB6984F802A0E37007F1480078
:101CE000FB6A9847B0F10008C0F2BA807B69A9EBA3
:101CF0000A01C91AFB683A6AC91AD7E90A03984760
:101D00000028C0F2AF804FF0000BA84408EB00059C
:101D100007F1380AB34571D300213A6A0846FB6AD5
:101D20009847E5E656464FF0000807F1380092E77D
:101D30005646D04696E7B04694E7BA6A12F8021BB8
:101D400012F8015CBA6254F82500274A904202D387
:101D5000264A90421ED3BA6932B1786A7B6007F096
:101D600011F97B6800288BD1BA6802BB08F1280200
:101D700007F1300C08F10100944407F1580208F112
:101D8000020852FA80F00CF8101C5FFA88F800F88C
:101D9000105C75E7BA693AB1786A7B6007F0F2F8CF
:101DA0007B6800287FF46CAF1BF0010F09D006F1AF
:101DB000280207F13000711C161806F8205CCEB21C
:101DC0005EE71BF0040F3FF45BAF08F1280207F158
:101DD000300008F1010102EB000808F8105C5FFA1E
:101DE00081F84DE7002063E7D0A600007CBE00002C
:101DF000BBB300000400000170AA00001BF80A3009
:101E000054F8239087F83730D7F884302BB3D7F8BD
:101E100088309B4521D2D7F8843033F81B800121CC
:101E20003A6AFB6A07F13700984700281ADB054435
:101E3000B8F1000F06D14846FEF78CF900F1010811
:101E40001FFA88F8414648463A6AFB6A98470028D4
:101E500008DB05440BF1010B5CE74FF00008DEE7FF
:101E6000454645E6054643E680B505460E46174617
:101E7000984604F041FF034608F020FC0446DFF8D2
:101E80001890424649F8003039463046A84754F881
:101E9000090001F0B9FA00BF080000002DE9F04781
:101EA000058B04462807904611D4022905F0070542
:101EB00040F0CC80204607F003FB78B10138218B3D
:101EC000042811D8DFE800F0C2106D8595000129C3
:101ED0000CBF45F0100545F02005258388F31188D7
:101EE000BFF36F8FBDE8F08701F0070AAA4500F045
:101EF000A5800027B9463E46A368002B00F0BC80B1
:101F000041F00801218388F31188BFF36F8FA16826
:101F1000002900F0BA800D68002900F0B680334631
:101F200052462046D1F80480C047002D76D02B6859
:101F300029461D46F0E701F007035A1F012A1BD866
:101F4000002221F00701062B276889B2C4E900228C
:101F500009D13B4603E0628B013262831B68002B90
:101F6000F9D141F002012046218307F0A9FA0028A7
:101F70007AD041F0200176E0042B0AD121F007014C
:101F800089B22046218307F09BFA10B141F020016D
:101F90002183218B01F0070AAA454FD00027B946BB
:101FA000AAE7236921F0070141F00601062DD3F8C5
:101FB000009021832DD1B9F1000F3FD041F00801ED
:101FC000218388F31188BFF36F8F20463949C847B2
:101FD00029E021F00701236941F0040189B2042DB1
:101FE000D3F804902183E6D000274FF0040A3E4640
:101FF00082E721F00701236941F0050189B2052D2F
:10200000D3F808902183D6D000274FF0050A3E462A
:1020100072E700274FF0060A3E466DE72B4687E73A
:10202000B9F1000FD1D1EFF31188202383F3128887
:10203000BFF36F8F238B23F008032383258BEA06DE
:102040002ED525F01003238305F007056669218B43
:10205000002EBFF670AF00232768C4E9003321F0DB
:10206000070141F001012183218B4FF0000901F0AC
:10207000070AAA457FF440AF002F9CD041F0080129
:10208000218388F31188BFF36F8F002FC8D03D687C
:10209000394633465246204607F03EFA2F46F4E7CB
:1020A000AB067FF51BAF25F02003238305F0070562
:1020B00000E700BF459500002DE9F84F8146304804
:1020C0000F4607F00DFB064670B92E4C0546A0469C
:1020D0004FF0010ADFF8B0B05C4507D3B9F1000F4B
:1020E00002D04FF0010AFDB9BDE8F88F237B83B120
:1020F0002368DB680BB120469847636883F806A025
:1021000023681B6943B9636804222046196807F0F5
:102110000EFB01361034DFE7204698470028F2D046
:102120000AFA06F31D43F4E7A94695FAA5F4B4FAB2
:1021300084F40AFA04F3260108EB04146FEA030B93
:1021400025EA0305237B63B158F806301B6993B970
:102150004644736804222046196809EA0B0907F00F
:10216000E6FA002DE1D127B14FF4A470002108F068
:102170006BF94D46B7E7204698470028F1D1E7E7CD
:10218000B4520020C8AA0000D8AA0000014B53F89E
:1021900020007047E4AC000008B5034608462BB1A8
:1021A000044A136000F006FC002008BD6FF0150023
:1021B000FBE700BFD02400200122014B1A707047BA
:1021C000035D002010B50446064807F089FA3CB1CB
:1021D000054BD3E8EF1F0139C3E8E21F002AF8D10D
:1021E00010BD00BFAC520020B052002000200146BC
:1021F000034BD3E8EF0FC3E8E21F002AF9D1704781
:10220000AC52002070B5FFF7F1FF0546074C084EB1
:10221000B44200D370BD63685B792BB123685B68FF
:1022200013B12946204698471034F1E7C8AA0000A8
:10223000D8AA000010B5044C0449204606F0D9FF86
:10224000034B1C6010BD00BFA0250020D0AC0000D7
:10225000A452002000230D4A10B513700C4A4FF40D
:10226000004113600B4A0C481360FFF795FFFFF71E
:10227000E1FF0A4B0A4918468B4200D310BD1A1AD7
:102280005C681211013222711033F5E7045D002001
:10229000AC520020B0520020DD960000C8AA000019
:1022A000D8AA0000014600220023014806F0C2BF60
:1022B000A0250020014807F05BB800BFA025002042
:1022C000024B0146186807F0A7B800BFA4520020CF
:1022D000014807F0DCB800BFA025002070B5274BEF
:1022E0001878002849D0FFF7E5FF0546002841D1BE
:1022F000234B244C1B68002B19DD08F031F94FF4F7
:102300007A72A0FB020302FB0131C30B43EA414393
:10231000D4E900209B1A40F2E9324FEAD13161EB57
:102320000001934271F1000101D3FFF76BFFD4E983
:10233000003213F57A7342F10002C4E90032BDE8BD
:102340007040FFF7C5BF63685B7923B123682946F6
:1023500020461B6898471034B442F4D32846FFF750
:10236000AFFF094BD3E8EF1F0139C3E8E21F002A92
:10237000BED0F7E7054C064EEEE770BD035D0020CA
:10238000AC520020402B0020B0520020C8AA000010
:10239000D8AA000070B50D4D297861B90120FFF76A
:1023A0008BFE0B4C0B4EB44206D3FFF797FF002871
:1023B000FBD101232B7070BD63685B791BB123686F
:1023C00020469B6898471034EDE700BF045D00206D
:1023D000C8AA0000D8AA000013B5164807F080F973
:1023E000154B1B7873B1EFF31184202383F312880C
:1023F000BFF36F8FFFF772FF84F31188BFF36F8F06
:1024000002B010BD0D4B1B68002BF9D038B900226B
:1024100000230B48CDE9002304F06AFFF0E7092808
:10242000EED1074808F09EF8064802B0BDE810401B
:1024300003F0C2BFB0520020045D0020A85200206B
:10244000482B0020B026002010B5064B04461B6820
:1024500098472146A060044806F06BFFBDE8104095
:10246000FFF7BABFD0240020A0250020044A054B66
:102470009B1AB1EBD30F34BF52F8310000207047E4
:1024800070AA0000C8AA00002DE9F04F8FB0C1F378
:102490004A2804AF0D469146B8607B600C0DB8F138
:1024A000000F63D000264FF0040B4FF00A0A07F12B
:1024B0001403C7F80C80C7E907667E620193CDF864
:1024C00008B0CDF800A007F11C0332464846F96871
:1024D000FFF7E4FAB0F5006F03461CD36C468AB0F0
:1024E000D9F8041004AB26481A46C3E9050140F2A6
:1024F000FF71D9614FF400711984224B42F8103FEB
:102500004FF4125133462048FFF7BEFFA5462C3743
:10251000BD46BDE8F08FC0F30A0804F11700184467
:1025200020F0070080083B60FFF7BCFE68F35325EE
:10253000044690B13B6800F11001C7E9083607F185
:102540001403F961CDE900A3CDF808B048460F4A5D
:10255000F96807F11C03FFF7A1FA68F353252A462F
:1025600020467B68B96807F001F9D0E704F117004D
:1025700020F007008008FFF795FE0446EDE700BF56
:102580007CB400000400000190AA00004197000004
:102590002DE9F04F87B00446DDE9105ADDE91279E4
:1025A000934698460391BFB13B4652461021002006
:1025B000CDF80090CDF81490FFF79EF8B0F5006FBD
:1025C00006460AD340F2FF730221174A174807B0A4
:1025D000BDE8F04F07F023B93E4605F1170030443F
:1025E00020F007008008FFF75DFE04F007040BF001
:1025F000070BE40044EA8B1444EA462444EA0554F9
:10260000054640B13FB13B4652463146CDF80090B9
:102610001030FFF771F8434622462846039907B069
:10262000BDE8F04F07F0A2B8BBB4000090AA0000CC
:10263000406820B1034BC01A40F3CF0070474FF001
:10264000FF30704770AA00000EB403B503AB53F817
:10265000042B01460448019301F004FA02B05DF82E
:1026600004EB03B0704700BF81980000CA0605D490
:102670008B064CBF02490349FFF7E6BF704700BF16
:10268000F4B40000F3B400002DE9F04F89B09B468C
:10269000149B9DF84CA00693159B04460593169B2E
:1026A0000D469046179E0493BAF1000F00F09D80EE
:1026B00006F48073079307F038F806F00209024623
:1026C00000283ED020469149FFF7BEFF0746B9F1EA
:1026D000000F08D016F0440F35D12A4620468C4909
:1026E000FFF7B2FF074406F0010353B1894B2046C0
:1026F00053F82A20884B8949002A08BF1A46FFF759
:10270000A3FF06F48073002B49D006F00803002BCA
:1027100063D1B8F1000F66D0424620468049FFF7EA
:1027200093FF0546069B3D44002B6DD1049B002B77
:1027300073D1F30700F1E48031462046FFF796FF9E
:10274000D8E00746C3E7774B18680028CAD0764B15
:102750004FF47A791B684FF03C0CB5FBF3F5B5FBF1
:10276000F0F14FF4616300FB115509FB05F5B1FB76
:10277000F3F2B5FBF0FE03FB121100FB1E55B1FB9B
:10278000FCF309FB05F5B5FBF0F50CFB1311204636
:102790000091CDE901E56549FFF756FFA2E706F094
:1027A0000803EBB1624B204653F82A206149FFF73A
:1027B0004BFF0546B8F1000F05D042462046584968
:1027C000FFF742FF0544BBF1000FABD05A4620464D
:1027D0005949FFF739FF0544A4E74FF0000BE1E743
:1027E00006F00805E6E745469CE7BBF1010F069BAE
:1027F00006D1002B64D1049B002B7BD000250CE07C
:10280000002BF8D04D485CE04D48069B22464D49D0
:1028100006F087FB049B002B68D0DFF82C81DFF8E3
:102820002C91049F3146102F204628BF10274FF0CF
:10283000000BFFF71BFF5D4545DC059B4946204625
:102840001A78FFF701FF4FF0010B1BF0070F03D1C0
:1028500041462046FFF7F8FE5F453BD9059B4946B8
:10286000204613F80B20FFF7EFFE0BF1010BBBF135
:10287000100FEAD14FF0000B20463549FFF7E4FE78
:102880005A46059B20469A5CA2F120015F2928BF89
:102890002E223049FFF7D8FE0BF1010BBBF1100FD0
:1028A0001DD01BF0070F03D141462046FFF7CCFE99
:1028B0005F455A46E5D841462046FFF7C5FEEBE79F
:1028C0001F485546A1E741462046FFF7BDFE0BF1E4
:1028D000010BB0E720462049FFF7B6FEC5E7059B90
:1028E0003B440593049BDB1B04939AD1BAF1000F80
:1028F0007FF41FAF204609B0BDE8F04F06F0B3BF2C
:102900002046054A0549FFF79FFE15E7FBB4000086
:10291000FFB40000F4AC0000F6B4000018BD0000E5
:1029200024B50000BC520020B852002008B50000B9
:1029300008AD000028B500002EB50000AF980000DB
:1029400081980000653A00003BB5000033B50000F7
:102950003DB500003FB5000039B5000042F20F73ED
:1029600073B58B4228BF0B460568044605216846AF
:102970000D4A04F09FFE0646636828460B225B68FA
:102980000A4906F062FF63683246694628465B687A
:1029900006F05BFF63681B2228465B68044906F06B
:1029A00054FF02B070BD00BF43B200005EB500002E
:1029B00042B5000000210123064A904206D8064A8B
:1029C00001B901231360054B1860704701214008CD
:1029D0005B00F2E740420F00B8520020BC520020DA
:1029E0000122014B1A707047055D0020014B002049
:1029F00019607047D45200200148FFF7AFBF00BFF5
:102A000038AD000010B5064B0C461868FFF7BEFB4A
:102A10002146BDE8104003460F220248184700BF78
:102A2000D452002038AD00000122F8B5084B094D02
:102A3000094E1A70D5E900470CB92C60F8BD214643
:102A400030463A4600F01EF8241A0644F4E700BF68
:102A5000065D0020C8520020075D002010B9074B1A
:102A600018707047064B1B781BB141F2883007F095
:102A700062BBA420002107F0E7BC00BF055D002079
:102A8000065D00202DE9F04780460E460424DFF85D
:102A900074901D4F99F80050A5B907F03FFB3246DE
:102AA00082464146284603F071F90546504607F034
:102AB0003DFBE5B101233B7099F8003073B9304616
:102AC000BDE8F08732464146002003F05FF9054635
:102AD000EFE72046651EFFF7C1FF2C46002003F0FC
:102AE00099F90028EBD03B78002BF2D1E7E73B784F
:102AF000002BE4D0013C2046FFF7B0FF3B78002BD1
:102B0000C8D1DCE7065D0020055D0020014B0360B5
:102B10000020704748AD000070B5104B0D461C6892
:102B2000B4B10F4B196800238B4202DB6FF0010038
:102B300070BD224612F8106B864202D01446013353
:102B4000F2E7E06807F0FCFA28B100202C60EFE71C
:102B50006FF00C00ECE76FF01200E9E7D4240020DE
:102B600048AD000010B5436888B0029383680C46F6
:102B7000CDE9033200230A68C068CDE90623054980
:102B800001AA059307F0C1F8079808B9059B2360CF
:102B900008B010BDEB99000008B5054806F017FA1B
:102BA000044806F014FABDE80840034806F00FBADE
:102BB000A0B50000D8B500000BB60000014804F035
:102BC00037BC00BFFCAD000038B5044618B90F4B48
:102BD0000F485B6898476168B1F5683F10D0B1F560
:102BE000680F0DD00B4DA9420AD011F4686120681E
:102BF00007D00146084807F0F9FA00232360656012
:102C000038BD142207F0D7FCF9E700BF34250020B7
:102C100039B600002C5F5CA9D857002008B560B316
:102C20004368B3F5683F0ED0B3F5680F18D0144A67
:102C3000934220D000684FF0FF324FF0FF3303F093
:102C4000F3FA58B115E001220368D3E8EF1F002919
:102C500003D1C3E8E02F0028F7D10AD1002008BD36
:102C60000368084A1B7803F5807352F82330002B61
:102C7000F4D00548F3E70548F1E76FF4E040EEE7EC
:102C80002C5F5CA900000350E98FFFFFEA8FFFFF74
:102C900008B520B34368B3F5683F09D0B3F5680FB2
:102CA00013D0114A93421DD0006803F035FB14E0A5
:102CB00000220368D3E8EF1F012903D1C3E8E02F06
:102CC0000028F7D109D0094808BD00210368084A47
:102CD0001B7803F5807342F823100020F4E76FF4AB
:102CE000E040F1E70348EFE72C5F5CA9E98FFFFFC5
:102CF00000000350EA8FFFFF10B5044618B91D4BC2
:102D00001D485B6898476368B3F5683F2FD0B3F5FB
:102D1000680F2CD0194A934219D1236803BB4FF096
:102D2000FF324FF0FF332146154803F04FFA08B940
:102D300023681BB90F4B13485B6898471422002186
:102D4000206807F038FC4FF46863636008E0B3F56F
:102D5000683F0DD83A2B03D040F6BA629342DED1D9
:102D6000206807F08DFA636843F03A03636010BD92
:102D7000054AF3E73425002039B600002C5F5CA932
:102D8000D85700205FB600003A00003A08B506495F
:102D900040231422054807F01BFABDE80840044907
:102DA000044804F0B7BB00BFD8520020D857002019
:102DB00004AE000018AE00002DE9F04706460C46B0
:102DC00000AF002936D0D1E90012E9468AB06D463D
:102DD000A3684FF0050AA8461F48C5E90723C5E9BF
:102DE000050148F810AF002342464FF421511B481B
:102DF000FFF74AFBD4E90312CD466369AD46184894
:102E0000C5E90723C5E90501C5F810A0002342461E
:102E10004FF421511148FFF737FBCD46E3690121FB
:102E2000104A0E4806F0FBFCA36901210E4A0B482C
:102E300006F0F5FC012E07D1EFF305830B4A31466E
:102E40000648103B06F0EBFC2146304603F012F832
:102E5000BD46BDE8F08700BF8CB60000B0AA0000F8
:102E6000BBB60000EAB60000F9B6000027B70000C4
:102E700030BFFFF7FDBF00BF2DE9F04105460B4E07
:102E8000DFF82C80324606EB0807CC1B20460949A8
:102E900007F084FBA01942460021083C07F08BFB99
:102EA0002C6707F10800BDE8F08100BF00000000BA
:102EB00004000000D8AA0000054B5A699B689A429A
:102EC0001FBF044A536843F080535360704700BFEC
:102ED000F459002000ED00E070B52A4C06460D467E
:102EE00029482A4906F0C8FDA36ADB0647D52648CB
:102EF000274906F0C1FD1120A36A1C0704D522480A
:102F0000244906F0B9FD12201E4CA36A990712D578
:102F100021491D4806F0B0FD636BA26A120609D56F
:102F200001211E4A184806F07AFC1EB1A36A23F05C
:102F30008003A3621320134CA36ADE0704D5124852
:102F4000174906F099FD1420A36A9C0604D50E4883
:102F5000144906F091FD15200A4B9A6AD10658BF14
:102F60009A6A9A6A920642BF5A6A22F400525A62D8
:102F70009A6A42F0FF029A6200232B7070BD102003
:102F8000BAE700BF00ED00E0B0AA00003AB70000C9
:102F900050B7000083B7000096B70000AEB700003E
:102FA000C4B70000E3B7000010B5244C24492548FD
:102FB00006F062FDA36A99013ED52248224906F037
:102FC0005BFD1E20A36ADA0104D51E481F4906F0E6
:102FD00053FD1F20194CA36ADB0204D519481C4974
:102FE00006F04AFD0220A36A1C0304D515481949BE
:102FF00006F042FD2120114CA36A590304D5114863
:10300000154906F039FD2220A36A9A0304D50D481C
:10301000124906F031FD2320084CA36ADB0304D5D6
:1030200008480F4906F028FD2420A36A6FEA0343ED
:103030006FEA1343A36210BD1D20C3E700ED00E05B
:1030400012B80000B0AA00002AB800003DB8000085
:1030500057B8000081B800009FB80000C4B8000055
:10306000DEB8000070B5294C06460D4628482949AF
:1030700006F002FDA36AD9043CD52548264906F08E
:10308000FBFC1720A36A1A0504D52148234906F042
:10309000F3FC18201D4CA36A9B0512D51C4820493F
:1030A00006F0EAFCA36BA26A100409D501211D4AAF
:1030B000174806F0B4FB1EB1A36A23F40043A362D1
:1030C0001920124CA36A590504D51148164906F077
:1030D000D3FC1A20A36ADA050ED50D48134906F071
:1030E000CBFC1B20094A936A43F47F43936200237D
:1030F0002B7070BD1620C5E7A36A9B04F2D5044867
:103100000B4906F0B9FC1C20ECE700BF00ED00E025
:10311000B0AA000009B900001FB9000083B7000081
:1031200030B9000049B900005EB9000079B900006B
:10313000E3B700002DE9F0418AB0654B0446D3F8AF
:103140000480002600AFC8F3080586F31188BFF39A
:103150006F8F02F07F43B3F17F4F07D102F00C0372
:10316000082B12D15B495C4806F086FC00263446E9
:103170000023FB71EB1E092B00F28980DFE803F0CE
:103180000A7F827B87878787878510074CBF0C461D
:103190000126EDE75149504806F06EFC00234C4DE6
:1031A000FB71EB6A9A0705D54D494B4806F064FC64
:1031B000002331E0EB6A002B01DA4A49F5E7EB6ABC
:1031C0005B00F5D54849444806F056FC6B69A26996
:1031D00043F480736B61BFF34F8FBFF36F8F6B69E5
:1031E00032F8022C23F480736B61BFF34F8FBFF36F
:1031F0006F8F4DF602739A4207D0AB6ADBB26BB3A6
:103200000120F91DFFF768FE37E023680121374AE6
:10321000314806F004FB2368FA79DAB907F10805AA
:1032200004F1200C2A4620686168083403C2644512
:103230001546F7D17A6A002E45D0C2F3080121B9AC
:103240006FEA52226FEA42227A62184607F10801B9
:10325000FFF7B2FD2837BD46BDE8F081AB6A13F435
:103260007F4F04D00120F91DFFF7FCFE05E0AB6A9B
:10327000B3F5803F9CD3FFF797FE0346CCE70020D1
:10328000F91DBFE70020F91DEEE719498DE7194A3E
:1032900018F4F87FE8468AB0174B18BF13466A4601
:1032A0001649103DC2E905134FF400731384144B03
:1032B000D56142F8103F00234FF411510648FFF743
:1032C000E3F8C54674E722F4FF7222F00102BBE77F
:1032D00000ED00E0BFB90000B0AA0000EAB90000AC
:1032E00001BA000022BA000030BA00004FBA000054
:1032F0006BBA0000A6B9000091B900008FBA0000B7
:1033000004000001064B5A6942F010025A615A69E2
:1033100042F480625A615A6922F008025A61704789
:1033200000ED00E0EFF30880EFF3098101B572468C
:10333000FFF700FF01BD00BF002080F31488BFF33A
:103340006F8F002080F30A8880F30B880F4880F38A
:10335000088801F0FBFD00200D490860BFF34F8F86
:1033600000F02CF8202080F311880A484FF4006107
:10337000401880F30988EFF314800221084380F39A
:103380001488BFF36F8F00F0EBF8000060A90420F1
:1033900094ED00E020600420002318460649D1F88F
:1033A0009020C2F30722934200DB7047C1F89830A7
:1033B000C1F8A0000133F6E700ED00E010B572B6E9
:1033C000002484F31388FFF7E7FF23464FF0FF3014
:1033D0000C4A03F120010133102B42F82100F8D1EF
:1033E00000234FF0FF30074A03F160010133102B37
:1033F00042F82100F8D162B6BFF34F8FBFF36F8F51
:1034000010BD00BF00E100E0084B9B6883420BD178
:10341000EFF3058343B1064B5A6842F080525A607D
:103420005A6A22F400425A6203F06CBCF45900203C
:1034300000ED00E014498A684FF030001044EFF3CB
:10344000098C80E8F01F202080F31288BFF36F8F73
:103450000E4F4FF000664A698A603E60106F0C4C58
:103460002060506F0023536780F3118802F1300011
:1034700090E8F01F8CF3098802F1000004B506F013
:1034800003FBBDE804407047F459002004ED00E060
:10349000F45700201EF0040F0CBFEFF30880EFF389
:1034A0000980816911F8021C0229FFD001B572461A
:1034B00006F0D7FA01BD00BF40B2002807DB0123A8
:1034C0004109034A00F01F00834042F82130704751
:1034D00000E100E040B200280CDB0122064943096C
:1034E00000F01F008240203341F82320BFF34F8FAC
:1034F000BFF36F8F704700BF00E100E0054B42094A
:1035000053F82220012300F01F0003FA00F01040BE
:10351000704700BF00E100E040B2002801F1010166
:10352000ACBF00F16040064B4FEA4111C9B2ABBFDE
:1035300000F5614000F00F0080F800131954704747
:1035400014ED00E0044B054A23F07F039360BFF3C2
:103550004F8FBFF36F8F70470000000000ED00E059
:1035600008B5FFF7EFFF074AD2F8883023F470035D
:10357000C2F8883002F06CFD03F0F8FC00F046F869
:1035800002F0A6FD00ED00E042F8203C009B0B4954
:1035900042F81C3C019B21F0010142F8183C029BBF
:1035A00042F8081C42F8143C4FF0807342F8043C87
:1035B0000023203A02654367704700BF691E000080
:1035C00000B50B4B15469860026F0A4B0E461A6009
:1035D000036E83F30B882C4686F309880020064B84
:1035E00098472046002100220023044C204700BFBA
:1035F000F4590020F4570020919A0000691E000041
:103600001022014B1A61704700ED00E000232021D9
:103610000348C2180133452B82F80013F9D17047D3
:1036200000E100E008B5EFF30583064A103B02EB2A
:10363000C30152F8330049688847BDE80840FFF7E6
:103640003BBC00BFD8A700001FB5094C094A234660
:103650000121094800F012F900230393074B0121CF
:10366000E41A01A80193029400F012F904B010BD0D
:10367000000007200020002028AE0000C026002007
:1036800010B50C7A0B6804F01F0223F01F031A43D5
:10369000CB68640923F01F03054943EA440343F060
:1036A0000103C1F89800C1F89C20C1F8A03010BDFA
:1036B00000ED00E010B50A4BD3F89030C3F30723B8
:1036C000013B984208D901210346064A064806F004
:1036D000A6F86FF0150010BDFFF7D2FFFBE700BFA3
:1036E00000ED00E0A6BA0000A8AA00002DE9F04F06
:1036F0008946144606464FF00008514D85B0C8452E
:1037000027DAD6F804A0BAF1000F44D0BAF11F0F9F
:1037100017D91AF01F0F14D1D6F800B01BF01F0FE5
:103720000FD1584606F0F0F907460AEB0B000138B6
:1037300006F0EAF9874210D06FF01507414A3B4680
:1037400001E04346404A0121404806F068F86FF026
:103750001504204605B0BDE8F08F17F1160FEDD027
:10376000BC42EBDDC5F89870D5F89C10C5F8987090
:10377000D5F8A03021F01F0143F01F0BD6E900322D
:103780001A44994202F1FF3A1DD1D34507D131467F
:10379000F8B206F0C2F908F101080C36AFE731467D
:1037A000C5F89870D5F89C3022F01F0203F01F0373
:1037B0001343C5F89C30E0B206F0AFF910F1160FD4
:1037C000C5D0441CE7E7C5F89870D5F8A020013BA8
:1037D00023F01F0302F01F021343D3453146E0B22A
:1037E000C5F8A030E8D006F098F910F1160FAED069
:1037F000C5F89870D5F89C209DF808300BF1FF3B78
:1038000062F304038DF80830D5F8A0309DF8082045
:103810005B0863F347128DF80820D6E900321344A1
:10382000009323F01F035B44A3EB0A03013023F052
:103830001F036946C0B20393FFF73CFFBEE700BF1A
:1038400000ED00E0EFBA0000CCBA0000A8AA00002A
:103850000522044BC3F89420BFF34F8FBFF36F8F43
:10386000704700BF00ED00E0BFF35F8F0022024B06
:10387000C3F89420704700BF00ED00E010B5034C82
:103880002278FFF733FF207010BD00BF175D0020C6
:103890002DE9F74F294D8A4606464FF00008AB4602
:1038A000274FD0451BDAD6F80490B9F1000F3FD06E
:1038B00031680846019106F027F90199044609EBA1
:1038C0000100013806F020F984424FF014021D4B2C
:1038D00008D002FB08F36FF015024BF8032003B089
:1038E000BDE8F08F14F1160F2C60F8D01978A142C2
:1038F000F5DD02FB08B0C7F89840C7F89840D7F844
:103900009C4000F10801007B64F304000871D7F8C3
:10391000A0000C79400860F347140C71D7F89C1094
:1039200021F01F016960D7F8A01021F01F01296163
:1039300008F1010814350C36B3E700BFF857002032
:1039400000ED00E0175D0020F0B54149414CD1F891
:1039500090302568C3F307239D4287B075D80020B7
:10396000FFF782FF3C4BC1F8C030854216D13B4C7B
:1039700001A82570FFF7CAF800250646384FAE4269
:1039800013D1002023783249D1F89020C2F30722C6
:10399000934254DBFFF75CFF00202FE0616801EBEE
:1039A0000011FFF76DFE0130DFE70199280101EBFF
:1039B0000513DA683A40B2F5001F21D0B2F5800F46
:1039C0002BD0B2F5801F38D15A689B680958013B4B
:1039D00022F01F0003440120844623F01F0340EA25
:1039E0004C10CDE902218DF8100002A92078059332
:1039F000FFF760FE00281DDA6FF0150007B0F0BD7C
:103A00005A689B680958013B22F01F0003444FF09D
:103A1000020C012023F01F03E1E75A689B68095854
:103A2000013B22F01F0003444FF0000C022023F062
:103A30001F03D4E723780133237001359FE7C1F8D2
:103A40009830C1F8A00001339EE74FF0FF30D5E772
:103A500000ED00E034AE0000AAFF4400175D002036
:103A60000000F0FFF0B587B007460E46144600216F
:103A7000102268461D4606F09EFD02238DF8023096
:103A8000054B2A4621466846CDE90476019303F0AA
:103A90003DFE07B0F0BD00BF539B000008B50548D0
:103AA00005F095FA002383F31188BFF36F8F042389
:103AB000184602DF21BB000008B50649064821F080
:103AC0000701C1F1005202F5E02205F0D2F9002011
:103AD00008BD00BF67AD04200C580020054B03EB68
:103AE0008000D0F8003223F0E04343F04053C0F8A8
:103AF0000032704700258450052370B5144D154ED3
:103B00002C780134B4FBF3F303EB8303E41A06F0DF
:103B1000B9F9114A137823B156F82430C01A07288E
:103B200014D94FF05023D3F8141141B10021C3F838
:103B30001411D3F814312C700CB9012313702C78A4
:103B400006F0A0F946F82400012070BD0020FCE733
:103B5000195D002018580020185D00200122002067
:103B600008B50A490A4BC3F80025C1F8D006FFF78B
:103B7000B5FF1046FFF7B2FFC1F80427C1F80429CA
:103B8000C1F8002BBDE8084000F0A4B80040005088
:103B90000010005007B50DF1070001F025FB0F4B99
:103BA000984218D14FF480620D4B0E49C3F8B825E6
:103BB0004FF40062C3F83C259DF8070006F019FA9F
:103BC0009DF80700084906F00FFA01209DF807301C
:103BD000984001F003FB03B05DF804FB0000AD0B5F
:103BE00000A002502CA0025028A1025048B1054B61
:103BF000054A1B68B3FBF2F35843044B43F001033F
:103C0000184770470825002040420F00E0AA000036
:103C1000002170B5104C114D114E000714F8013BF6
:103C200003F01F025B090FD0012B0FD1334603EBCA
:103C30008203D3F80022013122F0E042024304293A
:103C4000C3F80022EAD170BD2B46F0E70023803292
:103C500053F82230FFDE00BF32BB00000025845045
:103C6000002884502DE9F041064601200D46FFF75B
:103C7000CFFF4FF47F03D3F83021D3F83431072A34
:103C800020D1023B032B02D8114AD35CD3B14FF0B1
:103C900050244FF0010800270520C4F81886C4F806
:103CA000147606F09FF94046C4F8148606F09AF997
:103CB000C4F81476C4F8187630462B46BDE8F041B7
:103CC000002118474FF050230022C3F81426F3E7D1
:103CD0002EBB00000149024805F041BC5CAE00006B
:103CE0002C580020084B70B5C31A0D4607499B108D
:103CF000044659434022064805F04BFF2B46014637
:103D00002046BDE8704018475C580020B76DDBB610
:103D100038A70000402373B50B4C0093041B0B46DF
:103D20000D460A49A41061430646094A094805F0B0
:103D30005BFF011E05DA30462B4602B0BDE870403D
:103D4000184702B070BD00BF5C580020B76DDBB6ED
:103D5000519C000038A700002DE9F8430022012102
:103D600006460520FFF7D8FB124801F0BDFA124BBA
:103D700098421CD1306900F083F9002401F0C6FAA2
:103D80004FF01C090C27DFF834803569414609FBE8
:103D9000045005F0E4FB002807DB012307FB045572
:103DA0001C44042CAB67F0D10020BDE8F8836FF011
:103DB0000400FAE7753E00000000AD0B68AE00009D
:103DC0001FB500220123CDE902236B46084ACDF836
:103DD00000D0CDF804D005F034FF002805DB4FF407
:103DE00080420023684602F01BFB05B05DF804FB2F
:103DF000819C000010B5EFF31184202383F3128817
:103E0000BFF36F8F074A136823F00201DB071160CD
:103E100002D4012006F0F2F884F31188BFF36F8F0B
:103E200010BD00BFFC5800200C22104B014602FBC5
:103E30000033002030B4D3E91C521867EFF311802F
:103E4000202484F31288BFF36F8F9C6F04F0C004AA
:103E500044F002049C6780F31188BFF36F8F1DB19B
:103E60002B4630BC0248184730BC70475C580020D5
:103E700038A7000008B509281BD8DFE800F00512B4
:103E80001A1A1A1A1A16100E0A4B986F10F0070019
:103E90000FD1BDE80840FFF7C7BF0220F9E70320B4
:103EA000F7E700F0FBF80120F3E7BDE8084000F079
:103EB00003B908BD5C58002010B4EFF31182202331
:103EC00083F31288BFF36F8F1748016841F0020433
:103ED0000460C80707D482F31188BFF36F8F0120F5
:103EE00010BC01F02BBA4FF05021D1F80C04D1F8DE
:103EF0000C14C907EFD5EFF3118083F31288BFF3D9
:103F00006F8F0A498B6F03F0C00343F002038B6786
:103F100080F31188BFF36F8F82F31188BFF36F8F27
:103F2000002010BCFFF780BFFC5800205C58002028
:103F3000F8B5012206462649D1E8EF3FC1E8E02F57
:103F40000028F9D133B9234923484B60CB608A60FC
:103F500005F018FB731E012B1FD806F0D9F9044693
:103F6000E0B91E4B1B78CBB14FF05023022205461F
:103F7000C3F808234FF05027D7F81824D7F818347F
:103F8000D20314D503F00303012B01D0012E0ED16F
:103F9000BCB185F31188BFF36F8FF8BDEFF31185C6
:103FA000202383F31288BFF36F8F0124E2E71CB153
:103FB000284605F08DFDDFE70021212006F044FAB8
:103FC000DAE74FF050230222C3F80423E5E700BFED
:103FD0005858002048580020785800201B5D0420C5
:103FE00001220B4BD3E8EF1F002903D1C3E8E02FD8
:103FF0000028F7D10AD100230649CB60064B4B605D
:1040000003238B60054B186805F0BCBA704700BFEE
:104010001C5900200459002059400000005900207C
:1040200007B5002200230948CDE900234FF40032F0
:10403000002303F05DF9064B186805F0FAFA002238
:10404000044B1A6003B05DF804FB00BFE0250020BC
:10405000005900201C59002008B5002006F070F817
:1040600028B901F0D1F90122034B1A7008BD0348A9
:10407000BDE8084002F0FCBA1A5D0020F8240020D8
:10408000034B044A186000231360034A136070470F
:104090000059002018590020145900200022024B1A
:1040A0001A70FFF79DBF00BF1A5D0020014806F09F
:1040B00059BA00BFE0250020024A1368013313609B
:1040C000FFF7AEBF18590020024B0B6001231360AD
:1040D000704700BF2059002000487047A4AE000080
:1040E00007B50346054A00910548012105F0A1FBEB
:1040F0006FF0150003B05DF804FB00BF70BB00005B
:1041000088AA000010B501220648114606F0BFF843
:1041100005F0FCFF044C206005F0F5FF6060002016
:1041200010BD00BF2859002020590020F7B50E46C9
:10413000144605F0E8FF21460546304605F01AFE14
:10414000374660B3B6FBF5F305FB136323B9B4FB45
:10415000F5F305FB13434BB13346134A0094134860
:10416000012105F066FB6FF0150002E0A54202D9BF
:10417000002003B0F0BD4FF0FF324FF0FF330C488A
:1041800002F04EF905F0BFFF0546384601F0A0FDEC
:10419000641B2F44F9D1064802F00EF9E8E7054AFE
:1041A00033460094DBE700BF8DBB000088AA000007
:1041B0002859002070BB0000F7B50E46194630465E
:1041C00017461C4605F0D6FD50B93346174A0094F1
:1041D0001748012105F02DFB6FF0150003B0F0BD6D
:1041E00046EA040515F0030503D0124A334600944D
:1041F000EEE7A4B14FF0FF324FF0FF330E4802F06C
:104200000FF924F00304A54205EB060009D10B4A7F
:10421000D2F80034DB07FBD5074802F0CDF80020C8
:10422000DCE7795901F072FD0435ECE770BB000062
:1042300088AA0000ACBB0000285900200090035061
:10424000B1F5802F10B508D2C1F58020834204D883
:1042500041EA030010F0030003D06FF0150008E0FE
:1042600004309842FCD30748134401449A4201D1D8
:10427000002010BD087812F8014B204001F8010B16
:10428000F4E700BF1B5D0020024B0B6001231360AD
:10429000704700BFACAE000000487047B4AE0000ED
:1042A000B1F5802F104608B51A4609D2C1F5802312
:1042B0009A4205D8044B194406F070F9002008BD55
:1042C0006FF01500FBE700BF1B5D0020B1F5802FEC
:1042D00038B51DD2C1F580239A4219D841EA0205AA
:1042E000C5F30B05A5B90C4B21F47F6121F00F013B
:1042F000140B0B44A54201D1002038BD18464FF4E1
:104300008052FF2106F057F9013500F58053F1E79F
:104310006FF01500F1E700BF1B5D002008B54FF4FA
:104320008022FF21024806F046F9002008BD00BFA8
:104330001B5D00204FF4802301480B60704700BFD5
:104340001B5D0020F0B51646426801F01F04107B8B
:1043500087B044EA40141069002871D0B6F5001FF8
:1043600002F1100506D12146284605F0C7FE0020BF
:1043700007B0F0BD0027B6F5800F01A80197476090
:1043800039D1B3F1007F14BF052304238DF8043025
:104390000023CDE90403039393680DF1030723FA87
:1043A00001F111F001013DD1B6F1A07F3AD104F045
:1043B0001F03620903F1800328D0012A46D1254A50
:1043C00052F82330DB072DD43A462146284601F027
:1043D000E9FA214B98421BD002972146284603AAAE
:1043E00001F098F91D4B98422DD101222146284613
:1043F00001F030FBBBE7B3F1C06F05D0B3F1007F34
:1044000014BF01230223C1E70323BFE7144AD7E700
:104410003946284601F016FB104B9842DCD06FF06D
:104420000B00A5E73A462146284601F0BBFA0B4BA4
:104430009842D2D128469DF8031001F0FBFACCE750
:104440006FF0850094E76FF0150091E751F8233085
:10445000FFDE00BF002884500400AD0B0000AD0B50
:10446000002584504209034670B502D0012A17D0B6
:1044700070BD0D4E326951680029F9D0012503F055
:104480001F030C689D400029F2D08A682A4002D0A0
:1044900030464B6898472CB1236821461C46F2E70A
:1044A000024EE7E72346F8E778A7000058A7000088
:1044B00038B545682B69B3B11035284601F0B0FA1C
:1044C000044680B90146284601F086FA084B984216
:1044D0000BD122462846074901F05EFA2246052103
:1044E0000D20FFF719F8002038BD6FF00400FBE73E
:1044F0000000AD0B654400002DE9F04340F20635A5
:104500004668D00648BF0320337B02EA050558BF42
:10451000C2F3401087B001F01F07B5F5837F144642
:1045200047EA43178DF8030043D00FD8062D18D063
:1045300007D8B5B1022D3ED06FF0150007B0BDE829
:10454000F083B5F5807FF7D101250AE040F2022221
:10455000954232D0B5F5407F31D0B5F5007FEBD133
:10456000022522032DD5012372688B4093603269A6
:1045700082BB07F01F037F092AD0012F77D13E4A63
:1045800002EB830284F48033D2F80012C3F30043B9
:10459000C4F3404444EA430421F4706144EA8004D3
:1045A00021F00F0144EA05230B43C2F8003200203A
:1045B000C4E70725D5E70425D3E70525D1E703257B
:1045C000CFE7630341BF012372688B40D360CEE71E
:1045D0002A4AD5E71036394630460DF1020201F07D
:1045E000E1F914F4403F80460CD13946304605F0DD
:1045F00083FD234B9845DAD130469DF8021001F037
:1046000019FAD4E74FF0000901AB3946304603AA46
:10461000CDE90439CDE90199CDF80C9001F07AF893
:10462000174B984288D114F4003315D09DF803300D
:1046300084F48034C4F300448DF80E3039464B4680
:10464000304603AA8DF80C508DF80D4001F022F988
:104650000B4B9842CDD06FE7CDE9043339460DF1CD
:104660000303304603AA039301F054F8F0E78033C4
:1046700052F82330FFDE00BF00288450002584500C
:104680000000AD0B0123834070B5DC430B4AD2E838
:10469000EF1F01EA0405C2E8E65F002EF7D14FF4F0
:1046A000803282400648C0F80823BFF35F8FBFF313
:1046B0006F8F0B4214BF0120002070BD54590020A1
:1046C0000050015070B40E4922F07F46D1E9003409
:1046D000D01AC31844F10004C1E90034A6F5001350
:1046E000B3F5400F09D2074B1B681A0A1B069C1929
:1046F000054B42F10005C3E9004570BC02F012BD54
:10470000902B002058590020982B0020D9B101236C
:104710000D4A8340D2E8EFCF4CEA030CC2E8E1CF68
:104720000029F7D14FF48033084A8340C2F804339C
:10473000074BD3E8AF3FC340DB0742BF4FF4001243
:10474000044BC3F800217047545900200050015019
:104750005059002000E100E00D4B1868010A0006E6
:10476000BFF35F8F0B4BD3F80435181841F10001EC
:10477000B3F5801F0AD2084BD3E90023904271EBB6
:10478000030303D210F1807041F10001704700BFB4
:104790005859002000500150982B00202DE9F04F6F
:1047A00085B016461F4604469DF840A0FFF76AFFF5
:1047B0000190FFF7D1FFB04271EB070352D23B4BA0
:1047C000301A67EB0101984271F100014DD2384B6C
:1047D00003EB0413D3E902239F4208BF964258D04B
:1047E0004FF48038334908FA04F8204626F07F4B0E
:1047F000C1F8488305F03AFB4FF00309584604F12D
:104800005005AD00ADB205F1502504F5A87305F5CE
:1048100080350293029A20F07F4341F82230C1F89C
:104820004483D1F80435244AC01A033820F07F406D
:1048300090422ED9286868B1D1F80435A3EB0B005B
:1048400020F07F40B0F5000F039322D9204605F0F9
:104850000DFB039BBAF1000F07D109EB030009F12F
:104860000109D7E7BAF1000F09D06FF0150520460E
:104870000199FFF74BFF284605B0BDE8F08F0123F3
:104880000E4AA340D2E8EF0F1843C2E8E10F002917
:10489000F8D107490E982301C8500F9B01EB041271
:1048A0000025C2E902675360E1E700BF0100800014
:1048B000802B002000500150FDFF7F005059002048
:1048C0007FB500254FF0FF304FF0FF31194C1A4BE8
:1048D0000226C4F80833C4F84833184BC4F8085506
:1048E000C3E902014FF480334FF40012C4F80433DB
:1048F000134B0121C4F804631520C3F880212A4614
:10490000FEF70AFE1520FEF7D7FD01230D4AA3602E
:10491000236013600C4B0D4A009328460023CDE919
:104920000155FFF73BFF3046FFF702FB284604B076
:1049300070BD00BF0050015003000F00802B00200D
:1049400000E100E054590020C5460000FFFF7F0051
:104950002DE9F7432E4BD3F8042390070BD5D3F85A
:10496000042142B10022C3F804212A4AD3F80431B9
:10497000136801331360264AD2F80433D90326D5CD
:10498000254BD3E8EF1F21F00100C3E8E40F002C12
:10499000F7D1CB0702D4D2F84031C3B100251C4C6B
:1049A000C4F84051D4F84031FFF7D6FEEFF311823E
:1049B000202383F31288BFF36F8F184BD3E902676C
:1049C000B042B94106D282F31188BFF36F8F03B0B2
:1049D000BDE8F0834FF0FF38D3E900104FF0FF3906
:1049E0001D60C3E902894FF48033C4F84833C4F82A
:1049F0004051D4F8403182F31188BFF36F8F002902
:104A0000E5D0009032463B4628468847DFE700BFA6
:104A1000005001505859002050590020802B002090
:104A200030B5431C124C85B005D08442A8BF044663
:104A3000012CB8BF0124FFF78FFE0E4B0C4DD3E9BC
:104A40000013401AB0F5000F0FD22218AA4228BF57
:104A50002A46002052180849CDE90100009143F18F
:104A60000003FFF79BFE05B030BD2A46F1E700BF0B
:104A7000FFFF7F00902B0020C546000008B5FFF720
:104A80006BFE024B1B68C01A08BD00BF902B0020B4
:104A9000012310B5074C15206360FEF71BFD4FF492
:104AA0000012054BC4F80833C4F84833034BC3F86D
:104AB000802110BD0050015003000F0000E100E014
:104AC0004FF0005318680D4B984210D003F11C535F
:104AD000A3F58B13A3F6CC5398420AD0084B984207
:104AE00009D0084B98420CBF0420022070470020D8
:104AF0007047032070470120704700BFB6B3B4B5BC
:104B00005DCE03F1EC49F2B608B5FFF7D9FF30B13D
:104B1000034805F027FD0022024BC3F8402408BDDE
:104B200018260020003000502DE9F0414FF05023AE
:104B300015460122C3F81426002852D0002950D06F
:104B40004FF0005302F13642A2F14B12A2F5984207
:104B5000C3E900204FF408429960DA60FFF7B0FF24
:104B60004FF47F03D3F830210646072AD3F83431B7
:104B700042D1023B032B03D82A4AD35C002B3BD003
:104B80004FF050244FF0010800270520C4F8188684
:104B9000C4F8147605F026FA4046C4F8148605F0E9
:104BA00021FAC4F81476C4F8187603211E4A1F4867
:104BB00004F02CFEA5B31E4C204605F0BCFAFFF70E
:104BC0007FFF8642F8D002281CD11A4A17480121DB
:104BD00004F01CFE0022184B6FF00D00C3F84024B7
:104BE00008E012486FF015030321144A04F017FE81
:104BF0006FF01500BDE8F0814FF050230022C3F89C
:104C00001426D2E74FF050230122C3F814260C4A91
:104C10000321064804F0FAFD0022074BC3F84024A4
:104C20000020E7E78BBC000041BC0000B8AA0000F0
:104C300040420F0058BC00000030005021BC000072
:104C400073BC000010220B4B13B5C3F840240022A4
:104C5000FFF76AFF044650B94FF4004200230648AC
:104C6000CDE9002302F044FB044805F064FA204635
:104C700002B010BD003000501826002040420F0046
:104C80001022034BC3F840240122FFF74DBF00BFA1
:104C900000300050012803D111B9024B1868704749
:104CA000014BFBE7E42D0020C024002013B504468F
:104CB000104805F045FAB0B1002001A9FFF73AFB12
:104CC0000D4B02689A4211D10389C16818444368A8
:104CD000B3F1807F0AD91CB1FFF7D2FF02B010BD3B
:104CE000FFF7B0FFFAE76FF01200F7E76FF03C0054
:104CF000F4E700BFB8A700003DB8F396F0B585B063
:104D00006E4681680546103921F0070404F066FEFE
:104D100032460A4B03F1100C3746186859680833BD
:104D200003C763453E46F7D110232146284604F0C9
:104D300024FE003818BF012005B0F0BDE2AF00002E
:104D400030B50D46816887B0102302AA1039044699
:104D500004F0FEFD002802DA012007B030BD102269
:104D6000204602A905F0F4F800283AD110221E4985
:104D700002A805F028FC00280CBF012302232B7099
:104D8000204605F0D1F8012301460DF10702204627
:104D900004F0DEFD0028DFDB9DF80730204603F03D
:104DA0000F021B096A702B7101220DF1070105F03A
:104DB000CFF810B96B78042B03D901236B70002353
:104DC0002B71A2682046183A22F00702083AA91C63
:104DD00005F0D1F80028BFD12046E91C05F0E7F81E
:104DE000BBE70323CBE700BFE2AF00002DE9F041B2
:104DF00084B000AF3946054605F079F8012804462D
:104E000006D13D4B394653F8350005F0D6F8044637
:104E100024B1FF201037BD46BDE8F081364B07F1C5
:104E2000080103EBC503586805F0C7F8012845D110
:104E300003212B46314A324804F0F1FC314B3C73DC
:104E4000BB6000263A7897F808802F4C11462078EE
:104E500005F070F8002837D04146607805F06AF810
:104E6000002831D0A378042B02D0F97899422BD1B5
:104E7000E378042B02D0F97A994225D12379042BC7
:104E80001FD16279022A2CD1204B6E468AB06A4625
:104E9000D36140F201331E4913841E4BC2E905154C
:104EA00042F8103F002316484FF41351FDF7ECFA77
:104EB0006079B546831E022BACD9AAE70028C0D082
:104EC000A7E7B9789942DCD00136032E04F1060435
:104ED000BCD10B482B4631460F4A04F0A0FC012000
:104EE00098E7032A05D00D4B0D49042A08BF0B464D
:104EF000CBE70C4BC9E700BFECAE0000B6BC00002E
:104F0000A0AA0000030103033CBD000098BC000000
:104F1000FCBC0000040000011BBD00009DBC0000A3
:104F2000AFBC000093BC00004FF47F03D3F83021E6
:104F3000D3F83431072A05D1023B032B02D8024AA9
:104F4000D05C70470020704756BD000008B5FFF7E1
:104F5000EBFF58B1784BD3F8202A3AB90D21C3F8AA
:104F6000201A0121C3F81C19C3F81C290022D30000
:104F700003F57F03D3F80013013107D0D3F80013F2
:104F80000132D3F80433202A0B60F0D1FFF7CCFFB5
:104F9000002840F0B980FFF7C7FF40B1674B684A6F
:104FA000C3F830254FF050230122C3F858254FF4A1
:104FB0007F03D3F83021D3F83431072A09D1023BDB
:104FC000032B06D85F4AD35C1BB100225E4BC3F8AB
:104FD0004C25FFF7A9FF50B14FF05023D3F8002420
:104FE000D00742BF0022C3F81421C3F818214FF4A0
:104FF0007F03D3F83021D3F83431072A09D14FF099
:105000005023D3F80024D10744BF6FF00102C3F846
:105010000024FFF789FF18B16522474BC3F80C271E
:105020004FF47F03D3F83021D3F83431072A16D157
:10503000454BD3F82034002B11DA4FF050230322D4
:10504000C3F8182501229A60D3F80421002AFBD066
:105050000022C3F804210122DA60C3F818254FF4B6
:105060007F03D3F83021D3F83431072A23D1023B10
:10507000032B02D8354AD35CEBB17E222E4B2F494D
:10508000C3F80C27C3F83C297F23314AC2F81831F2
:105090000023C1F8043EC1F8083E01F54821C1F8DB
:1050A0001031C2F82431C2F82C3102F5FF1202F59A
:1050B0008052C2F8A032274B9A6AD2072CD5012120
:1050C0001E4AC2F80415D2F800140029FBD09A6ACF
:1050D00022F001029A62194BD3F80024002AFBD077
:1050E0000022C3F80425D3F80024002AFBD0BFF324
:1050F0004F8F1949194BCA6802F4E0621343CB6021
:10510000BFF34F8F00BFFDE729220B4BC3F80C27DD
:105110000322C3F83C273EE70F49D1F88C2042F424
:105120004062C1F88C2019680D4AC2F84415DB6949
:10513000C2F84C3508BD00BF00400050009003503D
:105140004400EFBE52BD0000002003504EBD0000E1
:10515000002000500080FF0000ED00E00400FA0590
:105160000060005030B50468ACB1B4FA84F3012299
:10517000C3F11F03DBB29A4024EA0202D0E8EF5FDA
:10518000A54204D1C0E8EC2FBCF1000FF6D1EAD162
:1051900002480B7030BD0248FCE700BF0000AD0BB9
:1051A0000200AD0B10B50368CB40DB0710D4012320
:1051B0008B40026843EA0201D0E8EF4F944204D1E9
:1051C000C0E8EC1FBCF1000FF6D1F2D1014810BDD0
:1051D0000148FCE70000AD0B0400AD0B014BC3F828
:1051E00004057047007001500146014800F070B995
:1051F0000C2500200328F7B506462ED84FF0502185
:10520000364B374A33F81000925DC1F80803002589
:105210000A44012142F210744FF05027314B1160C3
:1052200033F816308E4203F150231D601B688DF851
:10523000071008BF0DF10705022E32D0032E40D013
:10524000012E1CD0D7F8183403F480333DB923B1B4
:10525000012004F0C7FE013CF0D103B0F0BDD7F847
:10526000182402F003022A70002BF6D09DF80700E4
:105270000128F2D104F0B6FE013CDDD1EDE7D7F80C
:105280000C3403F480333DB9002BE6D0012004F048
:10529000A9FE013CF3D1E0E7D7F80C2402F00102AB
:1052A000E1E7D7F85C3403F480333DB9002BD4D068
:1052B000012004F097FE013CF3D1CEE7D7F85C243F
:1052C000ECE7D7F85434DB03C7D5002DCED101204D
:1052D00004F088FE013CF4D1BFE700BFFAAF000044
:1052E0005ABD0000F2AF0000054B1A792AB95A7175
:1052F000012218601A71034870470348704700BFC5
:105300005C5900200000AD0B0C00AD0B08B50A4B3A
:105310001B6833B10520FEF7F1F810B90520FEF740
:10532000CBF84FF050230122C3F81825C3F81425F9
:10533000C3F8802508BD00BF5C59002010B50328C4
:1053400042D8DFE800F01802524C00224FF480737C
:105350000121002003F1502318601C68012402F190
:1053600050221460274A1268002A44D04FF050237C
:10537000C3F8041328E04FF05023D3F81814D3F8DF
:105380001824C90310D502F00303012B02D000201A
:10539000FFF730FF4FF0502301220221C3F81825F8
:1053A00008224FF48273D4E7D3F81424D207F1D53E
:1053B000D3F81C2402F00302012AE8D1114A126832
:1053C0001AB10222C3F8042310BDD3F80421002A25
:1053D000FBD00022C3F80421D3F80431F4E71822EB
:1053E0004FF490734FF48071B3E720224FF492731F
:1053F0004FF40071ADE71A68002AFCD018601B68F2
:10540000E2E700BF5C5900204FF05023D3F80C14A2
:10541000D3F80C24C80322D5D10720D5D3F81824FB
:10542000D2031CD5104A517901F0FF00C9B9C3F865
:105430001C01D3F81C11012151711961126822B1AC
:105440008022C3F8042309487047D3F81C21002A9E
:10545000FBD00022C3F81C21D3F81C31F3E7044829
:1054600070470448704700BF5C5900200000AD0B36
:105470000500AD0B0B00AD0BF8B54FF05023012725
:105480000025D3F80443114E04B9F8BDB4FA84F0F2
:10549000C0F11F00830003F580739BB203F150231A
:1054A00007FA00F2196892B224EA02040029EBD04C
:1054B0001D601B684FF05023C3F80823802A33680F
:1054C000C0B208BF75719847DEE700BF5C59002085
:1054D0000079024B03EB0010FFF744BE14250020B7
:1054E000036803F01F025B09026004D0012B03482C
:1054F00018BF002070470248704700BF0028845042
:1055000000258450034A4309D35C00F01F0018446F
:10551000C0B270475EBD000070B50546FFF7F2FFF0
:105520000C4C083034F810300E46DA0508D5C3F3B9
:10553000432304EBC302284654F83330526898479B
:10554000A3682BB131462846E268BDE87040184791
:1055500070BD00BF6459002008B5FFF7D3FF034BAF
:10556000083033F81000400B08BD00BF645900201C
:1055700008B5FFF7C7FF034B083033F81000C0F33E
:10558000400008BD6459002008B5FFF7BBFF034B7E
:10559000083033F81000C0F3401008BD64590020F3
:1055A000034611F0010010B5CCB20BD1A207C4F331
:1055B00040000DD5074A106A58601062003818BFC5
:1055C000012005E004490A6A1A600A62002AEDD047
:1055D00010BD00BF002884500025845010B5FFF78F
:1055E00091FF124A083032F81030D9051CD5C3F3A8
:1055F000432123F4F85322F81030002002F10E0466
:1056000034F8023F13F4807F03D0C3F3432399425D
:105610000AD001303028F3D1002342F83130044859
:10562000BDE81040FFF7BEBD10BD00BF64590020AB
:10563000DC590020F0B5044600200125064601F1A2
:10564000A05101F55151104A89008A420BD10F4BEC
:10565000D3F87C2132B10022C3F87C21D3F87C310D
:1056600040F00040F0BD02F13043A3F551439B08E8
:1056700005FA03F31C4204D0176817B116601768C7
:1056800018430432E1E700BF00D1005000D00050C1
:10569000F7B506460846FFF735FF1A4F00F1080533
:1056A00037F815300C46DB072AD5304604F000FDEC
:1056B0002046FFF769FF58B12046FFF74DFF002253
:1056C000316800B201EB8003C3F81025C3F8102540
:1056D0002046FFF783FF002301A827F81530019427
:1056E000FFF7FEFE019B00EB8300D0F80022064B83
:1056F000134043F00203C0F80032044803B0F0BD89
:105700000348FBE764590020F0F0FCFF0000AD0BFC
:105710000400AD0B2DE9F0431646804685B00846DF
:10572000FFF7F0FE0C463168054609B32046FFF747
:105730001FFF18B12046FFF727FF10BB00230DF114
:105740000F02CDE900338DF80E308DF80F30204672
:105750000B460DF10E0104F053FC4A4A05F1080115
:1057600032F8113023F0020343F0010322F8113024
:1057700073687BB320461F785968FFF7F9FE10B1B4
:10578000E9B1414829E03F4A05F1080032F81030FC
:1057900023F02003DB04DB0C22F8103079B1032F57
:1057A000EFD87168D1F804E0D8F800109EF800C076
:1057B00001EB8C01A7B9C1F81075C1F81075314A19
:1057C00005F1080132F8113023F01C0343EA870386
:1057D00022F81130B3685BBB2C4805B0BDE8F083FC
:1057E000D1F810E543EA4C332EF0030EC1F810E572
:1057F000D8F8001043F0200301EB8C0EDEF81015F2
:1058000022F8103021F44F3121F44071CEF81015F8
:105810002102DEF8108501F47C5141EA074141EA9A
:105820000801CEF8101502EB4C01A1F87C40C6E748
:105830002046D3E90067FFF7D1FE002ECCD0114CF3
:10584000D4E90023964203D19F4201D1002209E00E
:105850000F480DF10F01FFF785FC0C4B9842BCD1AE
:105860009DF80F2004EBC20308355F6034F8153053
:1058700044F8326043EA422343F4807324F815303D
:10588000AAE700BF645900200400AD0B0000AD0B77
:10589000DC5900202DE9F0430C46804685B02046B7
:1058A00011461D46FFF72EFE064629B32046FFF798
:1058B0005FFE18B92046FFF767FE18BB334F06F1AD
:1058C000080937F8193013F01C0F02D04B78012B60
:1058D00018D001238DF80F3000234A1CCDE90013A6
:1058E00020468B1C0DF10F0104F08AFB37F81930AC
:1058F00043F0030327F81930002D44D02046FFF76A
:1059000037FE18B9224805B0BDE8F083002295F8AB
:1059100000C0D8F800301D4F03EB8C03C3F81025EE
:10592000C3F8102506F1080237F812104FEA8C0E62
:1059300021F02001C904C90C27F812106E7816B3A3
:10594000D8F80000AD787044D0F81035360423F450
:10595000991323F4F853C0F81035230203F47C5351
:1059600006F440362D05D0F810E5334305F48015D4
:105970002B4341EA4C3143EA0E0341F02001C0F8C9
:10598000103527F812100348BDE700BF6459002006
:105990000400AD0B0000AD0B014BC3E902127047D0
:1059A0006459002010B508461446FFF7EDFD50B1CC
:1059B0000846FFF7A7FD054B083033F810300448C0
:1059C0005B0B237010BD0348FCE700BF6459002047
:1059D0000000AD0B0400AD0B70B50E4C064694F8FC
:1059E0008C50A5B96022294604F1100004F0E3FDB3
:1059F0003068C0F87C51D0F87C3140F30730FDF7B7
:105A00005BFD0123044884F88C30A36770BD034814
:105A1000FCE700BF645900200000AD0B0C00AD0B8B
:105A2000034B93F88C00003818BF0120704700BF6B
:105A3000645900200079024B03EB8000FFF7B2BBF2
:105A4000242500200079024B03EB8000FFF78ABB7E
:105A500024250020F7B5054608461646FFF794FDB5
:105A60000C462968F0B12046FFF782FD0746C8B909
:105A70002046FFF771FD04B2A40004F580728F5038
:105A80008A5829682144D1F8102542F00102C1F852
:105A900010252EB10122296802FA00F3C1F804335F
:105AA00003B0F0BDD1F804332046002BA4BF4FF063
:105AB0000043C1F80433FFF725FD0F4B083033F8DE
:105AC0001030C3F38203042B11D0052B11D001A891
:105AD0000194FFF705FD019A0369D34003F0010328
